{
	"MyNFT.sol": {
		"NFTMarketplace": {
			"abi": [
				{
					"anonymous": false,
					"inputs": [
						{
							"indexed": true,
							"internalType": "address",
							"name": "owner",
							"type": "address"
						},
						{
							"indexed": false,
							"internalType": "string",
							"name": "uri",
							"type": "string"
						},
						{
							"indexed": false,
							"internalType": "uint256",
							"name": "price",
							"type": "uint256"
						}
					],
					"name": "Mint",
					"type": "event"
				},
				{
					"anonymous": false,
					"inputs": [
						{
							"indexed": true,
							"internalType": "address",
							"name": "buyer",
							"type": "address"
						},
						{
							"indexed": true,
							"internalType": "address",
							"name": "seller",
							"type": "address"
						},
						{
							"indexed": false,
							"internalType": "string",
							"name": "uri",
							"type": "string"
						},
						{
							"indexed": false,
							"internalType": "uint256",
							"name": "price",
							"type": "uint256"
						}
					],
					"name": "Purchase",
					"type": "event"
				},
				{
					"inputs": [
						{
							"internalType": "string",
							"name": "uri",
							"type": "string"
						},
						{
							"internalType": "uint256",
							"name": "priceInWei",
							"type": "uint256"
						}
					],
					"name": "mint",
					"outputs": [],
					"stateMutability": "nonpayable",
					"type": "function"
				},
				{
					"inputs": [
						{
							"internalType": "string",
							"name": "NFT",
							"type": "string"
						}
					],
					"name": "purchaseNFT",
					"outputs": [],
					"stateMutability": "payable",
					"type": "function"
				},
				{
					"inputs": [
						{
							"internalType": "address",
							"name": "_address",
							"type": "address"
						}
					],
					"name": "showNFTs",
					"outputs": [
						{
							"internalType": "string[]",
							"name": "",
							"type": "string[]"
						}
					],
					"stateMutability": "view",
					"type": "function"
				},
				{
					"inputs": [
						{
							"internalType": "string",
							"name": "uri",
							"type": "string"
						}
					],
					"name": "showPrice",
					"outputs": [
						{
							"internalType": "uint256",
							"name": "",
							"type": "uint256"
						}
					],
					"stateMutability": "view",
					"type": "function"
				},
				{
					"stateMutability": "payable",
					"type": "receive"
				}
			],
			"devdoc": {
				"kind": "dev",
				"methods": {},
				"version": 1
			},
			"evm": {
				"assembly": "    /* \"MyNFT.sol\":60:2416  contract NFTMarketplace {... */\n  mstore(0x40, 0x80)\n  callvalue\n  dup1\n  iszero\n  tag_1\n  jumpi\n  revert(0x00, 0x00)\ntag_1:\n  pop\n  dataSize(sub_0)\n  dup1\n  dataOffset(sub_0)\n  0x00\n  codecopy\n  0x00\n  return\nstop\n\nsub_0: assembly {\n        /* \"MyNFT.sol\":60:2416  contract NFTMarketplace {... */\n      mstore(0x40, 0x80)\n      jumpi(tag_1, lt(calldatasize, 0x04))\n      shr(0xe0, calldataload(0x00))\n      dup1\n      0x056b01ce\n      eq\n      tag_3\n      jumpi\n      dup1\n      0x16923a2f\n      eq\n      tag_4\n      jumpi\n      dup1\n      0x87972862\n      eq\n      tag_5\n      jumpi\n      dup1\n      0xc4a70945\n      eq\n      tag_6\n      jumpi\n      jump(tag_2)\n    tag_1:\n      jumpi(tag_2, calldatasize)\n      stop\n    tag_2:\n      revert(0x00, 0x00)\n        /* \"MyNFT.sol\":553:845  function mint(string memory uri, uint priceInWei) public {... */\n    tag_3:\n      callvalue\n      dup1\n      iszero\n      tag_9\n      jumpi\n      revert(0x00, 0x00)\n    tag_9:\n      pop\n      tag_10\n      0x04\n      dup1\n      calldatasize\n      sub\n      dup2\n      add\n      swap1\n      tag_11\n      swap2\n      swap1\n      tag_12\n      jump\t// in\n    tag_11:\n      tag_13\n      jump\t// in\n    tag_10:\n      stop\n        /* \"MyNFT.sol\":891:1005  function showNFTs(address _address) public view returns (string[] memory) {... */\n    tag_4:\n      callvalue\n      dup1\n      iszero\n      tag_14\n      jumpi\n      revert(0x00, 0x00)\n    tag_14:\n      pop\n      tag_15\n      0x04\n      dup1\n      calldatasize\n      sub\n      dup2\n      add\n      swap1\n      tag_16\n      swap2\n      swap1\n      tag_17\n      jump\t// in\n    tag_16:\n      tag_18\n      jump\t// in\n    tag_15:\n      mload(0x40)\n      tag_19\n      swap2\n      swap1\n      tag_20\n      jump\t// in\n    tag_19:\n      mload(0x40)\n      dup1\n      swap2\n      sub\n      swap1\n      return\n        /* \"MyNFT.sol\":1751:2413  function purchaseNFT(string memory NFT) public payable {... */\n    tag_5:\n      tag_21\n      0x04\n      dup1\n      calldatasize\n      sub\n      dup2\n      add\n      swap1\n      tag_22\n      swap2\n      swap1\n      tag_23\n      jump\t// in\n    tag_22:\n      tag_24\n      jump\t// in\n    tag_21:\n      stop\n        /* \"MyNFT.sol\":1051:1220  function showPrice(string memory uri) public view returns (uint) {... */\n    tag_6:\n      callvalue\n      dup1\n      iszero\n      tag_25\n      jumpi\n      revert(0x00, 0x00)\n    tag_25:\n      pop\n      tag_26\n      0x04\n      dup1\n      calldatasize\n      sub\n      dup2\n      add\n      swap1\n      tag_27\n      swap2\n      swap1\n      tag_23\n      jump\t// in\n    tag_27:\n      tag_28\n      jump\t// in\n    tag_26:\n      mload(0x40)\n      tag_29\n      swap2\n      swap1\n      tag_30\n      jump\t// in\n    tag_29:\n      mload(0x40)\n      dup1\n      swap2\n      sub\n      swap1\n      return\n        /* \"MyNFT.sol\":553:845  function mint(string memory uri, uint priceInWei) public {... */\n    tag_13:\n        /* \"MyNFT.sol\":652:653  0 */\n      0x00\n        /* \"MyNFT.sol\":629:654  owners[uri] == address(0) */\n      0xffffffffffffffffffffffffffffffffffffffff\n      and\n        /* \"MyNFT.sol\":629:635  owners */\n      0x02\n        /* \"MyNFT.sol\":636:639  uri */\n      dup4\n        /* \"MyNFT.sol\":629:640  owners[uri] */\n      mload(0x40)\n      tag_32\n      swap2\n      swap1\n      tag_33\n      jump\t// in\n    tag_32:\n      swap1\n      dup2\n      mstore\n      0x20\n      add\n      mload(0x40)\n      dup1\n      swap2\n      sub\n      swap1\n      keccak256\n      0x00\n      swap1\n      sload\n      swap1\n      0x0100\n      exp\n      swap1\n      div\n      0xffffffffffffffffffffffffffffffffffffffff\n      and\n        /* \"MyNFT.sol\":629:654  owners[uri] == address(0) */\n      0xffffffffffffffffffffffffffffffffffffffff\n      and\n      eq\n        /* \"MyNFT.sol\":621:677  require(owners[uri] == address(0), \"NFT already exists\") */\n      tag_34\n      jumpi\n      mload(0x40)\n      0x08c379a000000000000000000000000000000000000000000000000000000000\n      dup2\n      mstore\n      0x04\n      add\n      tag_35\n      swap1\n      tag_36\n      jump\t// in\n    tag_35:\n      mload(0x40)\n      dup1\n      swap2\n      sub\n      swap1\n      revert\n    tag_34:\n        /* \"MyNFT.sol\":690:694  nfts */\n      0x00\n        /* \"MyNFT.sol\":690:706  nfts[msg.sender] */\n      0x00\n        /* \"MyNFT.sol\":695:705  msg.sender */\n      caller\n        /* \"MyNFT.sol\":690:706  nfts[msg.sender] */\n      0xffffffffffffffffffffffffffffffffffffffff\n      and\n      0xffffffffffffffffffffffffffffffffffffffff\n      and\n      dup2\n      mstore\n      0x20\n      add\n      swap1\n      dup2\n      mstore\n      0x20\n      add\n      0x00\n      keccak256\n        /* \"MyNFT.sol\":712:715  uri */\n      dup3\n        /* \"MyNFT.sol\":690:716  nfts[msg.sender].push(uri) */\n      swap1\n      dup1\n      0x01\n      dup2\n      sload\n      add\n      dup1\n      dup3\n      sstore\n      dup1\n      swap2\n      pop\n      pop\n      0x01\n      swap1\n      sub\n      swap1\n      0x00\n      mstore\n      keccak256(0x00, 0x20)\n      add\n      0x00\n      swap1\n      swap2\n      swap1\n      swap2\n      swap1\n      swap2\n      pop\n      swap1\n      dup2\n      tag_38\n      swap2\n      swap1\n      tag_39\n      jump\t// in\n    tag_38:\n      pop\n        /* \"MyNFT.sol\":741:751  priceInWei */\n      dup1\n        /* \"MyNFT.sol\":727:733  prices */\n      0x01\n        /* \"MyNFT.sol\":734:737  uri */\n      dup4\n        /* \"MyNFT.sol\":727:738  prices[uri] */\n      mload(0x40)\n      tag_40\n      swap2\n      swap1\n      tag_33\n      jump\t// in\n    tag_40:\n      swap1\n      dup2\n      mstore\n      0x20\n      add\n      mload(0x40)\n      dup1\n      swap2\n      sub\n      swap1\n      keccak256\n        /* \"MyNFT.sol\":727:751  prices[uri] = priceInWei */\n      dup2\n      swap1\n      sstore\n      pop\n        /* \"MyNFT.sol\":776:786  msg.sender */\n      caller\n        /* \"MyNFT.sol\":762:768  owners */\n      0x02\n        /* \"MyNFT.sol\":769:772  uri */\n      dup4\n        /* \"MyNFT.sol\":762:773  owners[uri] */\n      mload(0x40)\n      tag_41\n      swap2\n      swap1\n      tag_33\n      jump\t// in\n    tag_41:\n      swap1\n      dup2\n      mstore\n      0x20\n      add\n      mload(0x40)\n      dup1\n      swap2\n      sub\n      swap1\n      keccak256\n      0x00\n        /* \"MyNFT.sol\":762:786  owners[uri] = msg.sender */\n      0x0100\n      exp\n      dup2\n      sload\n      dup2\n      0xffffffffffffffffffffffffffffffffffffffff\n      mul\n      not\n      and\n      swap1\n      dup4\n      0xffffffffffffffffffffffffffffffffffffffff\n      and\n      mul\n      or\n      swap1\n      sstore\n      pop\n        /* \"MyNFT.sol\":809:819  msg.sender */\n      caller\n        /* \"MyNFT.sol\":804:837  Mint(msg.sender, uri, priceInWei) */\n      0xffffffffffffffffffffffffffffffffffffffff\n      and\n      0xec4de1eef14af3ae5d77facf1ed7a9d3d50f6285573ee0ec155fc11217fc3442\n        /* \"MyNFT.sol\":821:824  uri */\n      dup4\n        /* \"MyNFT.sol\":826:836  priceInWei */\n      dup4\n        /* \"MyNFT.sol\":804:837  Mint(msg.sender, uri, priceInWei) */\n      mload(0x40)\n      tag_42\n      swap3\n      swap2\n      swap1\n      tag_43\n      jump\t// in\n    tag_42:\n      mload(0x40)\n      dup1\n      swap2\n      sub\n      swap1\n      log2\n        /* \"MyNFT.sol\":553:845  function mint(string memory uri, uint priceInWei) public {... */\n      pop\n      pop\n      jump\t// out\n        /* \"MyNFT.sol\":891:1005  function showNFTs(address _address) public view returns (string[] memory) {... */\n    tag_18:\n        /* \"MyNFT.sol\":948:963  string[] memory */\n      0x60\n        /* \"MyNFT.sol\":983:987  nfts */\n      0x00\n        /* \"MyNFT.sol\":983:997  nfts[_address] */\n      0x00\n        /* \"MyNFT.sol\":988:996  _address */\n      dup4\n        /* \"MyNFT.sol\":983:997  nfts[_address] */\n      0xffffffffffffffffffffffffffffffffffffffff\n      and\n      0xffffffffffffffffffffffffffffffffffffffff\n      and\n      dup2\n      mstore\n      0x20\n      add\n      swap1\n      dup2\n      mstore\n      0x20\n      add\n      0x00\n      keccak256\n        /* \"MyNFT.sol\":976:997  return nfts[_address] */\n      dup1\n      sload\n      dup1\n      0x20\n      mul\n      0x20\n      add\n      mload(0x40)\n      swap1\n      dup2\n      add\n      0x40\n      mstore\n      dup1\n      swap3\n      swap2\n      swap1\n      dup2\n      dup2\n      mstore\n      0x20\n      add\n      0x00\n      swap1\n    tag_45:\n      dup3\n      dup3\n      lt\n      iszero\n      tag_46\n      jumpi\n      dup4\n      dup3\n      swap1\n      0x00\n      mstore\n      keccak256(0x00, 0x20)\n      add\n      dup1\n      sload\n      tag_48\n      swap1\n      tag_49\n      jump\t// in\n    tag_48:\n      dup1\n      0x1f\n      add\n      0x20\n      dup1\n      swap2\n      div\n      mul\n      0x20\n      add\n      mload(0x40)\n      swap1\n      dup2\n      add\n      0x40\n      mstore\n      dup1\n      swap3\n      swap2\n      swap1\n      dup2\n      dup2\n      mstore\n      0x20\n      add\n      dup3\n      dup1\n      sload\n      tag_50\n      swap1\n      tag_49\n      jump\t// in\n    tag_50:\n      dup1\n      iszero\n      tag_51\n      jumpi\n      dup1\n      0x1f\n      lt\n      tag_52\n      jumpi\n      0x0100\n      dup1\n      dup4\n      sload\n      div\n      mul\n      dup4\n      mstore\n      swap2\n      0x20\n      add\n      swap2\n      jump(tag_51)\n    tag_52:\n      dup3\n      add\n      swap2\n      swap1\n      0x00\n      mstore\n      keccak256(0x00, 0x20)\n      swap1\n    tag_53:\n      dup2\n      sload\n      dup2\n      mstore\n      swap1\n      0x01\n      add\n      swap1\n      0x20\n      add\n      dup1\n      dup4\n      gt\n      tag_53\n      jumpi\n      dup3\n      swap1\n      sub\n      0x1f\n      and\n      dup3\n      add\n      swap2\n    tag_51:\n      pop\n      pop\n      pop\n      pop\n      pop\n      dup2\n      mstore\n      0x20\n      add\n      swap1\n      0x01\n      add\n      swap1\n      jump(tag_45)\n    tag_46:\n      pop\n      pop\n      pop\n      pop\n      swap1\n      pop\n        /* \"MyNFT.sol\":891:1005  function showNFTs(address _address) public view returns (string[] memory) {... */\n      swap2\n      swap1\n      pop\n      jump\t// out\n        /* \"MyNFT.sol\":1751:2413  function purchaseNFT(string memory NFT) public payable {... */\n    tag_24:\n        /* \"MyNFT.sol\":1817:1838  address previousOwner */\n      0x00\n        /* \"MyNFT.sol\":1841:1847  owners */\n      0x02\n        /* \"MyNFT.sol\":1848:1851  NFT */\n      dup3\n        /* \"MyNFT.sol\":1841:1852  owners[NFT] */\n      mload(0x40)\n      tag_55\n      swap2\n      swap1\n      tag_33\n      jump\t// in\n    tag_55:\n      swap1\n      dup2\n      mstore\n      0x20\n      add\n      mload(0x40)\n      dup1\n      swap2\n      sub\n      swap1\n      keccak256\n      0x00\n      swap1\n      sload\n      swap1\n      0x0100\n      exp\n      swap1\n      div\n      0xffffffffffffffffffffffffffffffffffffffff\n      and\n        /* \"MyNFT.sol\":1817:1852  address previousOwner = owners[NFT] */\n      swap1\n      pop\n        /* \"MyNFT.sol\":1896:1897  0 */\n      0x00\n        /* \"MyNFT.sol\":1871:1898  previousOwner != address(0) */\n      0xffffffffffffffffffffffffffffffffffffffff\n      and\n        /* \"MyNFT.sol\":1871:1884  previousOwner */\n      dup2\n        /* \"MyNFT.sol\":1871:1898  previousOwner != address(0) */\n      0xffffffffffffffffffffffffffffffffffffffff\n      and\n      sub\n        /* \"MyNFT.sol\":1863:1921  require(previousOwner != address(0), \"NFT does not exist\") */\n      tag_56\n      jumpi\n      mload(0x40)\n      0x08c379a000000000000000000000000000000000000000000000000000000000\n      dup2\n      mstore\n      0x04\n      add\n      tag_57\n      swap1\n      tag_58\n      jump\t// in\n    tag_57:\n      mload(0x40)\n      dup1\n      swap2\n      sub\n      swap1\n      revert\n    tag_56:\n        /* \"MyNFT.sol\":1957:1967  msg.sender */\n      caller\n        /* \"MyNFT.sol\":1940:1967  previousOwner != msg.sender */\n      0xffffffffffffffffffffffffffffffffffffffff\n      and\n        /* \"MyNFT.sol\":1940:1953  previousOwner */\n      dup2\n        /* \"MyNFT.sol\":1940:1967  previousOwner != msg.sender */\n      0xffffffffffffffffffffffffffffffffffffffff\n      and\n      sub\n        /* \"MyNFT.sol\":1932:1996  require(previousOwner != msg.sender, \"You already own this NFT\") */\n      tag_59\n      jumpi\n      mload(0x40)\n      0x08c379a000000000000000000000000000000000000000000000000000000000\n      dup2\n      mstore\n      0x04\n      add\n      tag_60\n      swap1\n      tag_61\n      jump\t// in\n    tag_60:\n      mload(0x40)\n      dup1\n      swap2\n      sub\n      swap1\n      revert\n    tag_59:\n        /* \"MyNFT.sol\":2009:2019  uint price */\n      0x00\n        /* \"MyNFT.sol\":2022:2028  prices */\n      0x01\n        /* \"MyNFT.sol\":2029:2032  NFT */\n      dup4\n        /* \"MyNFT.sol\":2022:2033  prices[NFT] */\n      mload(0x40)\n      tag_62\n      swap2\n      swap1\n      tag_33\n      jump\t// in\n    tag_62:\n      swap1\n      dup2\n      mstore\n      0x20\n      add\n      mload(0x40)\n      dup1\n      swap2\n      sub\n      swap1\n      keccak256\n      sload\n        /* \"MyNFT.sol\":2009:2033  uint price = prices[NFT] */\n      swap1\n      pop\n        /* \"MyNFT.sol\":2107:2137  _removeNFT(previousOwner, NFT) */\n      tag_63\n        /* \"MyNFT.sol\":2118:2131  previousOwner */\n      dup3\n        /* \"MyNFT.sol\":2133:2136  NFT */\n      dup5\n        /* \"MyNFT.sol\":2107:2117  _removeNFT */\n      tag_64\n        /* \"MyNFT.sol\":2107:2137  _removeNFT(previousOwner, NFT) */\n      jump\t// in\n    tag_63:\n        /* \"MyNFT.sol\":2193:2203  msg.sender */\n      caller\n        /* \"MyNFT.sol\":2179:2185  owners */\n      0x02\n        /* \"MyNFT.sol\":2186:2189  NFT */\n      dup5\n        /* \"MyNFT.sol\":2179:2190  owners[NFT] */\n      mload(0x40)\n      tag_65\n      swap2\n      swap1\n      tag_33\n      jump\t// in\n    tag_65:\n      swap1\n      dup2\n      mstore\n      0x20\n      add\n      mload(0x40)\n      dup1\n      swap2\n      sub\n      swap1\n      keccak256\n      0x00\n        /* \"MyNFT.sol\":2179:2203  owners[NFT] = msg.sender */\n      0x0100\n      exp\n      dup2\n      sload\n      dup2\n      0xffffffffffffffffffffffffffffffffffffffff\n      mul\n      not\n      and\n      swap1\n      dup4\n      0xffffffffffffffffffffffffffffffffffffffff\n      and\n      mul\n      or\n      swap1\n      sstore\n      pop\n        /* \"MyNFT.sol\":2214:2218  nfts */\n      0x00\n        /* \"MyNFT.sol\":2214:2230  nfts[msg.sender] */\n      0x00\n        /* \"MyNFT.sol\":2219:2229  msg.sender */\n      caller\n        /* \"MyNFT.sol\":2214:2230  nfts[msg.sender] */\n      0xffffffffffffffffffffffffffffffffffffffff\n      and\n      0xffffffffffffffffffffffffffffffffffffffff\n      and\n      dup2\n      mstore\n      0x20\n      add\n      swap1\n      dup2\n      mstore\n      0x20\n      add\n      0x00\n      keccak256\n        /* \"MyNFT.sol\":2236:2239  NFT */\n      dup4\n        /* \"MyNFT.sol\":2214:2240  nfts[msg.sender].push(NFT) */\n      swap1\n      dup1\n      0x01\n      dup2\n      sload\n      add\n      dup1\n      dup3\n      sstore\n      dup1\n      swap2\n      pop\n      pop\n      0x01\n      swap1\n      sub\n      swap1\n      0x00\n      mstore\n      keccak256(0x00, 0x20)\n      add\n      0x00\n      swap1\n      swap2\n      swap1\n      swap2\n      swap1\n      swap2\n      pop\n      swap1\n      dup2\n      tag_67\n      swap2\n      swap1\n      tag_39\n      jump\t// in\n    tag_67:\n      pop\n        /* \"MyNFT.sol\":2290:2303  previousOwner */\n      dup2\n        /* \"MyNFT.sol\":2282:2313  payable(previousOwner).transfer */\n      0xffffffffffffffffffffffffffffffffffffffff\n      and\n        /* \"MyNFT.sol\":2282:2340  payable(previousOwner).transfer(price*1000000000000000000) */\n      0x08fc\n        /* \"MyNFT.sol\":2320:2339  1000000000000000000 */\n      0x0de0b6b3a7640000\n        /* \"MyNFT.sol\":2314:2319  price */\n      dup4\n        /* \"MyNFT.sol\":2314:2339  price*1000000000000000000 */\n      tag_68\n      swap2\n      swap1\n      tag_69\n      jump\t// in\n    tag_68:\n        /* \"MyNFT.sol\":2282:2340  payable(previousOwner).transfer(price*1000000000000000000) */\n      swap1\n      dup2\n      iszero\n      mul\n      swap1\n      mload(0x40)\n      0x00\n      mload(0x40)\n      dup1\n      dup4\n      sub\n      dup2\n      dup6\n      dup9\n      dup9\n      call\n      swap4\n      pop\n      pop\n      pop\n      pop\n      iszero\n      dup1\n      iszero\n      tag_71\n      jumpi\n      returndatacopy(0x00, 0x00, returndatasize)\n      revert(0x00, returndatasize)\n    tag_71:\n      pop\n        /* \"MyNFT.sol\":2379:2392  previousOwner */\n      dup2\n        /* \"MyNFT.sol\":2358:2405  Purchase(msg.sender, previousOwner, NFT, price) */\n      0xffffffffffffffffffffffffffffffffffffffff\n      and\n        /* \"MyNFT.sol\":2367:2377  msg.sender */\n      caller\n        /* \"MyNFT.sol\":2358:2405  Purchase(msg.sender, previousOwner, NFT, price) */\n      0xffffffffffffffffffffffffffffffffffffffff\n      and\n      0x027bfcc85aa550e83a60ed86105ce29b32d6c93bce67c8c1e20277c8e5550fe6\n        /* \"MyNFT.sol\":2394:2397  NFT */\n      dup6\n        /* \"MyNFT.sol\":2399:2404  price */\n      dup5\n        /* \"MyNFT.sol\":2358:2405  Purchase(msg.sender, previousOwner, NFT, price) */\n      mload(0x40)\n      tag_72\n      swap3\n      swap2\n      swap1\n      tag_43\n      jump\t// in\n    tag_72:\n      mload(0x40)\n      dup1\n      swap2\n      sub\n      swap1\n      log3\n        /* \"MyNFT.sol\":1806:2413  {... */\n      pop\n      pop\n        /* \"MyNFT.sol\":1751:2413  function purchaseNFT(string memory NFT) public payable {... */\n      pop\n      jump\t// out\n        /* \"MyNFT.sol\":1051:1220  function showPrice(string memory uri) public view returns (uint) {... */\n    tag_28:\n        /* \"MyNFT.sol\":1110:1114  uint */\n      0x00\n        /* \"MyNFT.sol\":1158:1159  0 */\n      0x00\n        /* \"MyNFT.sol\":1135:1160  owners[uri] != address(0) */\n      0xffffffffffffffffffffffffffffffffffffffff\n      and\n        /* \"MyNFT.sol\":1135:1141  owners */\n      0x02\n        /* \"MyNFT.sol\":1142:1145  uri */\n      dup4\n        /* \"MyNFT.sol\":1135:1146  owners[uri] */\n      mload(0x40)\n      tag_74\n      swap2\n      swap1\n      tag_33\n      jump\t// in\n    tag_74:\n      swap1\n      dup2\n      mstore\n      0x20\n      add\n      mload(0x40)\n      dup1\n      swap2\n      sub\n      swap1\n      keccak256\n      0x00\n      swap1\n      sload\n      swap1\n      0x0100\n      exp\n      swap1\n      div\n      0xffffffffffffffffffffffffffffffffffffffff\n      and\n        /* \"MyNFT.sol\":1135:1160  owners[uri] != address(0) */\n      0xffffffffffffffffffffffffffffffffffffffff\n      and\n      sub\n        /* \"MyNFT.sol\":1127:1183  require(owners[uri] != address(0), \"NFT does not exist\") */\n      tag_75\n      jumpi\n      mload(0x40)\n      0x08c379a000000000000000000000000000000000000000000000000000000000\n      dup2\n      mstore\n      0x04\n      add\n      tag_76\n      swap1\n      tag_58\n      jump\t// in\n    tag_76:\n      mload(0x40)\n      dup1\n      swap2\n      sub\n      swap1\n      revert\n    tag_75:\n        /* \"MyNFT.sol\":1201:1207  prices */\n      0x01\n        /* \"MyNFT.sol\":1208:1211  uri */\n      dup3\n        /* \"MyNFT.sol\":1201:1212  prices[uri] */\n      mload(0x40)\n      tag_77\n      swap2\n      swap1\n      tag_33\n      jump\t// in\n    tag_77:\n      swap1\n      dup2\n      mstore\n      0x20\n      add\n      mload(0x40)\n      dup1\n      swap2\n      sub\n      swap1\n      keccak256\n      sload\n        /* \"MyNFT.sol\":1194:1212  return prices[uri] */\n      swap1\n      pop\n        /* \"MyNFT.sol\":1051:1220  function showPrice(string memory uri) public view returns (uint) {... */\n      swap2\n      swap1\n      pop\n      jump\t// out\n        /* \"MyNFT.sol\":1290:1719  function _removeNFT(address owner, string memory NFT) internal {... */\n    tag_64:\n        /* \"MyNFT.sol\":1364:1389  string[] storage userNFTs */\n      0x00\n        /* \"MyNFT.sol\":1392:1396  nfts */\n      0x00\n        /* \"MyNFT.sol\":1392:1403  nfts[owner] */\n      0x00\n        /* \"MyNFT.sol\":1397:1402  owner */\n      dup5\n        /* \"MyNFT.sol\":1392:1403  nfts[owner] */\n      0xffffffffffffffffffffffffffffffffffffffff\n      and\n      0xffffffffffffffffffffffffffffffffffffffff\n      and\n      dup2\n      mstore\n      0x20\n      add\n      swap1\n      dup2\n      mstore\n      0x20\n      add\n      0x00\n      keccak256\n        /* \"MyNFT.sol\":1364:1403  string[] storage userNFTs = nfts[owner] */\n      swap1\n      pop\n        /* \"MyNFT.sol\":1419:1425  uint i */\n      0x00\n        /* \"MyNFT.sol\":1428:1429  0 */\n      0x00\n        /* \"MyNFT.sol\":1419:1429  uint i = 0 */\n      swap1\n      pop\n        /* \"MyNFT.sol\":1414:1712  for (uint i = 0; i < userNFTs.length; i++) {... */\n    tag_79:\n        /* \"MyNFT.sol\":1435:1443  userNFTs */\n      dup2\n        /* \"MyNFT.sol\":1435:1450  userNFTs.length */\n      dup1\n      sload\n      swap1\n      pop\n        /* \"MyNFT.sol\":1431:1432  i */\n      dup2\n        /* \"MyNFT.sol\":1431:1450  i < userNFTs.length */\n      lt\n        /* \"MyNFT.sol\":1414:1712  for (uint i = 0; i < userNFTs.length; i++) {... */\n      iszero\n      tag_80\n      jumpi\n        /* \"MyNFT.sol\":1525:1528  NFT */\n      dup3\n        /* \"MyNFT.sol\":1509:1530  keccak256(bytes(NFT)) */\n      dup1\n      mload\n      swap1\n      0x20\n      add\n      keccak256\n        /* \"MyNFT.sol\":1492:1500  userNFTs */\n      dup3\n        /* \"MyNFT.sol\":1501:1502  i */\n      dup3\n        /* \"MyNFT.sol\":1492:1503  userNFTs[i] */\n      dup2\n      sload\n      dup2\n      lt\n      tag_82\n      jumpi\n      tag_83\n      tag_84\n      jump\t// in\n    tag_83:\n    tag_82:\n      swap1\n      0x00\n      mstore\n      keccak256(0x00, 0x20)\n      add\n        /* \"MyNFT.sol\":1476:1505  keccak256(bytes(userNFTs[i])) */\n      mload(0x40)\n      tag_86\n      swap2\n      swap1\n      tag_87\n      jump\t// in\n    tag_86:\n      mload(0x40)\n      dup1\n      swap2\n      sub\n      swap1\n      keccak256\n        /* \"MyNFT.sol\":1476:1530  keccak256(bytes(userNFTs[i])) == keccak256(bytes(NFT)) */\n      sub\n        /* \"MyNFT.sol\":1472:1701  if (keccak256(bytes(userNFTs[i])) == keccak256(bytes(NFT))) {... */\n      tag_88\n      jumpi\n        /* \"MyNFT.sol\":1565:1573  userNFTs */\n      dup2\n        /* \"MyNFT.sol\":1592:1593  1 */\n      0x01\n        /* \"MyNFT.sol\":1574:1582  userNFTs */\n      dup4\n        /* \"MyNFT.sol\":1574:1589  userNFTs.length */\n      dup1\n      sload\n      swap1\n      pop\n        /* \"MyNFT.sol\":1574:1593  userNFTs.length - 1 */\n      tag_89\n      swap2\n      swap1\n      tag_90\n      jump\t// in\n    tag_89:\n        /* \"MyNFT.sol\":1565:1594  userNFTs[userNFTs.length - 1] */\n      dup2\n      sload\n      dup2\n      lt\n      tag_91\n      jumpi\n      tag_92\n      tag_84\n      jump\t// in\n    tag_92:\n    tag_91:\n      swap1\n      0x00\n      mstore\n      keccak256(0x00, 0x20)\n      add\n        /* \"MyNFT.sol\":1551:1559  userNFTs */\n      dup3\n        /* \"MyNFT.sol\":1560:1561  i */\n      dup3\n        /* \"MyNFT.sol\":1551:1562  userNFTs[i] */\n      dup2\n      sload\n      dup2\n      lt\n      tag_94\n      jumpi\n      tag_95\n      tag_84\n      jump\t// in\n    tag_95:\n    tag_94:\n      swap1\n      0x00\n      mstore\n      keccak256(0x00, 0x20)\n      add\n        /* \"MyNFT.sol\":1551:1594  userNFTs[i] = userNFTs[userNFTs.length - 1] */\n      swap1\n      dup2\n      tag_97\n      swap2\n      swap1\n      tag_98\n      jump\t// in\n    tag_97:\n      pop\n        /* \"MyNFT.sol\":1631:1639  userNFTs */\n      dup2\n        /* \"MyNFT.sol\":1631:1645  userNFTs.pop() */\n      dup1\n      sload\n      dup1\n      tag_99\n      jumpi\n      tag_100\n      tag_101\n      jump\t// in\n    tag_100:\n    tag_99:\n      0x01\n      swap1\n      sub\n      dup2\n      dup2\n      swap1\n      0x00\n      mstore\n      keccak256(0x00, 0x20)\n      add\n      0x00\n      tag_103\n      swap2\n      swap1\n      tag_104\n      jump\t// in\n    tag_103:\n      swap1\n      sstore\n        /* \"MyNFT.sol\":1679:1686  return; */\n      pop\n      pop\n      jump(tag_78)\n        /* \"MyNFT.sol\":1472:1701  if (keccak256(bytes(userNFTs[i])) == keccak256(bytes(NFT))) {... */\n    tag_88:\n        /* \"MyNFT.sol\":1452:1455  i++ */\n      dup1\n      dup1\n      0x01\n      add\n      swap2\n      pop\n      pop\n        /* \"MyNFT.sol\":1414:1712  for (uint i = 0; i < userNFTs.length; i++) {... */\n      jump(tag_79)\n    tag_80:\n      pop\n        /* \"MyNFT.sol\":1353:1719  {... */\n      pop\n        /* \"MyNFT.sol\":1290:1719  function _removeNFT(address owner, string memory NFT) internal {... */\n    tag_78:\n      pop\n      pop\n      jump\t// out\n    tag_104:\n      pop\n      dup1\n      sload\n      tag_105\n      swap1\n      tag_49\n      jump\t// in\n    tag_105:\n      0x00\n      dup3\n      sstore\n      dup1\n      0x1f\n      lt\n      tag_107\n      jumpi\n      pop\n      jump(tag_106)\n    tag_107:\n      0x1f\n      add\n      0x20\n      swap1\n      div\n      swap1\n      0x00\n      mstore\n      keccak256(0x00, 0x20)\n      swap1\n      dup2\n      add\n      swap1\n      tag_108\n      swap2\n      swap1\n      tag_109\n      jump\t// in\n    tag_108:\n    tag_106:\n      pop\n      jump\t// out\n    tag_109:\n    tag_110:\n      dup1\n      dup3\n      gt\n      iszero\n      tag_111\n      jumpi\n      0x00\n      dup2\n      0x00\n      swap1\n      sstore\n      pop\n      0x01\n      add\n      jump(tag_110)\n    tag_111:\n      pop\n      swap1\n      jump\t// out\n        /* \"#utility.yul\":7:82   */\n    tag_112:\n        /* \"#utility.yul\":40:46   */\n      0x00\n        /* \"#utility.yul\":73:75   */\n      0x40\n        /* \"#utility.yul\":67:76   */\n      mload\n        /* \"#utility.yul\":57:76   */\n      swap1\n      pop\n        /* \"#utility.yul\":7:82   */\n      swap1\n      jump\t// out\n        /* \"#utility.yul\":88:205   */\n    tag_113:\n        /* \"#utility.yul\":197:198   */\n      0x00\n        /* \"#utility.yul\":194:195   */\n      0x00\n        /* \"#utility.yul\":187:199   */\n      revert\n        /* \"#utility.yul\":211:328   */\n    tag_114:\n        /* \"#utility.yul\":320:321   */\n      0x00\n        /* \"#utility.yul\":317:318   */\n      0x00\n        /* \"#utility.yul\":310:322   */\n      revert\n        /* \"#utility.yul\":334:451   */\n    tag_115:\n        /* \"#utility.yul\":443:444   */\n      0x00\n        /* \"#utility.yul\":440:441   */\n      0x00\n        /* \"#utility.yul\":433:445   */\n      revert\n        /* \"#utility.yul\":457:574   */\n    tag_116:\n        /* \"#utility.yul\":566:567   */\n      0x00\n        /* \"#utility.yul\":563:564   */\n      0x00\n        /* \"#utility.yul\":556:568   */\n      revert\n        /* \"#utility.yul\":580:682   */\n    tag_117:\n        /* \"#utility.yul\":621:627   */\n      0x00\n        /* \"#utility.yul\":672:674   */\n      0x1f\n        /* \"#utility.yul\":668:675   */\n      not\n        /* \"#utility.yul\":663:665   */\n      0x1f\n        /* \"#utility.yul\":656:661   */\n      dup4\n        /* \"#utility.yul\":652:666   */\n      add\n        /* \"#utility.yul\":648:676   */\n      and\n        /* \"#utility.yul\":638:676   */\n      swap1\n      pop\n        /* \"#utility.yul\":580:682   */\n      swap2\n      swap1\n      pop\n      jump\t// out\n        /* \"#utility.yul\":688:868   */\n    tag_118:\n        /* \"#utility.yul\":736:813   */\n      0x4e487b7100000000000000000000000000000000000000000000000000000000\n        /* \"#utility.yul\":733:734   */\n      0x00\n        /* \"#utility.yul\":726:814   */\n      mstore\n        /* \"#utility.yul\":833:837   */\n      0x41\n        /* \"#utility.yul\":830:831   */\n      0x04\n        /* \"#utility.yul\":823:838   */\n      mstore\n        /* \"#utility.yul\":857:861   */\n      0x24\n        /* \"#utility.yul\":854:855   */\n      0x00\n        /* \"#utility.yul\":847:862   */\n      revert\n        /* \"#utility.yul\":874:1155   */\n    tag_119:\n        /* \"#utility.yul\":957:984   */\n      tag_184\n        /* \"#utility.yul\":979:983   */\n      dup3\n        /* \"#utility.yul\":957:984   */\n      tag_117\n      jump\t// in\n    tag_184:\n        /* \"#utility.yul\":949:955   */\n      dup2\n        /* \"#utility.yul\":945:985   */\n      add\n        /* \"#utility.yul\":1087:1093   */\n      dup2\n        /* \"#utility.yul\":1075:1085   */\n      dup2\n        /* \"#utility.yul\":1072:1094   */\n      lt\n        /* \"#utility.yul\":1051:1069   */\n      0xffffffffffffffff\n        /* \"#utility.yul\":1039:1049   */\n      dup3\n        /* \"#utility.yul\":1036:1070   */\n      gt\n        /* \"#utility.yul\":1033:1095   */\n      or\n        /* \"#utility.yul\":1030:1118   */\n      iszero\n      tag_185\n      jumpi\n        /* \"#utility.yul\":1098:1116   */\n      tag_186\n      tag_118\n      jump\t// in\n    tag_186:\n        /* \"#utility.yul\":1030:1118   */\n    tag_185:\n        /* \"#utility.yul\":1138:1148   */\n      dup1\n        /* \"#utility.yul\":1134:1136   */\n      0x40\n        /* \"#utility.yul\":1127:1149   */\n      mstore\n        /* \"#utility.yul\":917:1155   */\n      pop\n        /* \"#utility.yul\":874:1155   */\n      pop\n      pop\n      jump\t// out\n        /* \"#utility.yul\":1161:1290   */\n    tag_120:\n        /* \"#utility.yul\":1195:1201   */\n      0x00\n        /* \"#utility.yul\":1222:1242   */\n      tag_188\n      tag_112\n      jump\t// in\n    tag_188:\n        /* \"#utility.yul\":1212:1242   */\n      swap1\n      pop\n        /* \"#utility.yul\":1251:1284   */\n      tag_189\n        /* \"#utility.yul\":1279:1283   */\n      dup3\n        /* \"#utility.yul\":1271:1277   */\n      dup3\n        /* \"#utility.yul\":1251:1284   */\n      tag_119\n      jump\t// in\n    tag_189:\n        /* \"#utility.yul\":1161:1290   */\n      swap2\n      swap1\n      pop\n      jump\t// out\n        /* \"#utility.yul\":1296:1604   */\n    tag_121:\n        /* \"#utility.yul\":1358:1362   */\n      0x00\n        /* \"#utility.yul\":1448:1466   */\n      0xffffffffffffffff\n        /* \"#utility.yul\":1440:1446   */\n      dup3\n        /* \"#utility.yul\":1437:1467   */\n      gt\n        /* \"#utility.yul\":1434:1490   */\n      iszero\n      tag_191\n      jumpi\n        /* \"#utility.yul\":1470:1488   */\n      tag_192\n      tag_118\n      jump\t// in\n    tag_192:\n        /* \"#utility.yul\":1434:1490   */\n    tag_191:\n        /* \"#utility.yul\":1508:1537   */\n      tag_193\n        /* \"#utility.yul\":1530:1536   */\n      dup3\n        /* \"#utility.yul\":1508:1537   */\n      tag_117\n      jump\t// in\n    tag_193:\n        /* \"#utility.yul\":1500:1537   */\n      swap1\n      pop\n        /* \"#utility.yul\":1592:1596   */\n      0x20\n        /* \"#utility.yul\":1586:1590   */\n      dup2\n        /* \"#utility.yul\":1582:1597   */\n      add\n        /* \"#utility.yul\":1574:1597   */\n      swap1\n      pop\n        /* \"#utility.yul\":1296:1604   */\n      swap2\n      swap1\n      pop\n      jump\t// out\n        /* \"#utility.yul\":1610:1758   */\n    tag_122:\n        /* \"#utility.yul\":1708:1714   */\n      dup3\n        /* \"#utility.yul\":1703:1706   */\n      dup2\n        /* \"#utility.yul\":1698:1701   */\n      dup4\n        /* \"#utility.yul\":1685:1715   */\n      calldatacopy\n        /* \"#utility.yul\":1749:1750   */\n      0x00\n        /* \"#utility.yul\":1740:1746   */\n      dup4\n        /* \"#utility.yul\":1735:1738   */\n      dup4\n        /* \"#utility.yul\":1731:1747   */\n      add\n        /* \"#utility.yul\":1724:1751   */\n      mstore\n        /* \"#utility.yul\":1610:1758   */\n      pop\n      pop\n      pop\n      jump\t// out\n        /* \"#utility.yul\":1764:2189   */\n    tag_123:\n        /* \"#utility.yul\":1842:1847   */\n      0x00\n        /* \"#utility.yul\":1867:1933   */\n      tag_196\n        /* \"#utility.yul\":1883:1932   */\n      tag_197\n        /* \"#utility.yul\":1925:1931   */\n      dup5\n        /* \"#utility.yul\":1883:1932   */\n      tag_121\n      jump\t// in\n    tag_197:\n        /* \"#utility.yul\":1867:1933   */\n      tag_120\n      jump\t// in\n    tag_196:\n        /* \"#utility.yul\":1858:1933   */\n      swap1\n      pop\n        /* \"#utility.yul\":1956:1962   */\n      dup3\n        /* \"#utility.yul\":1949:1954   */\n      dup2\n        /* \"#utility.yul\":1942:1963   */\n      mstore\n        /* \"#utility.yul\":1994:1998   */\n      0x20\n        /* \"#utility.yul\":1987:1992   */\n      dup2\n        /* \"#utility.yul\":1983:1999   */\n      add\n        /* \"#utility.yul\":2032:2035   */\n      dup5\n        /* \"#utility.yul\":2023:2029   */\n      dup5\n        /* \"#utility.yul\":2018:2021   */\n      dup5\n        /* \"#utility.yul\":2014:2030   */\n      add\n        /* \"#utility.yul\":2011:2036   */\n      gt\n        /* \"#utility.yul\":2008:2120   */\n      iszero\n      tag_198\n      jumpi\n        /* \"#utility.yul\":2039:2118   */\n      tag_199\n      tag_116\n      jump\t// in\n    tag_199:\n        /* \"#utility.yul\":2008:2120   */\n    tag_198:\n        /* \"#utility.yul\":2129:2183   */\n      tag_200\n        /* \"#utility.yul\":2176:2182   */\n      dup5\n        /* \"#utility.yul\":2171:2174   */\n      dup3\n        /* \"#utility.yul\":2166:2169   */\n      dup6\n        /* \"#utility.yul\":2129:2183   */\n      tag_122\n      jump\t// in\n    tag_200:\n        /* \"#utility.yul\":1848:2189   */\n      pop\n        /* \"#utility.yul\":1764:2189   */\n      swap4\n      swap3\n      pop\n      pop\n      pop\n      jump\t// out\n        /* \"#utility.yul\":2209:2549   */\n    tag_124:\n        /* \"#utility.yul\":2265:2270   */\n      0x00\n        /* \"#utility.yul\":2314:2317   */\n      dup3\n        /* \"#utility.yul\":2307:2311   */\n      0x1f\n        /* \"#utility.yul\":2299:2305   */\n      dup4\n        /* \"#utility.yul\":2295:2312   */\n      add\n        /* \"#utility.yul\":2291:2318   */\n      slt\n        /* \"#utility.yul\":2281:2403   */\n      tag_202\n      jumpi\n        /* \"#utility.yul\":2322:2401   */\n      tag_203\n      tag_115\n      jump\t// in\n    tag_203:\n        /* \"#utility.yul\":2281:2403   */\n    tag_202:\n        /* \"#utility.yul\":2439:2445   */\n      dup2\n        /* \"#utility.yul\":2426:2446   */\n      calldataload\n        /* \"#utility.yul\":2464:2543   */\n      tag_204\n        /* \"#utility.yul\":2539:2542   */\n      dup5\n        /* \"#utility.yul\":2531:2537   */\n      dup3\n        /* \"#utility.yul\":2524:2528   */\n      0x20\n        /* \"#utility.yul\":2516:2522   */\n      dup7\n        /* \"#utility.yul\":2512:2529   */\n      add\n        /* \"#utility.yul\":2464:2543   */\n      tag_123\n      jump\t// in\n    tag_204:\n        /* \"#utility.yul\":2455:2543   */\n      swap2\n      pop\n        /* \"#utility.yul\":2271:2549   */\n      pop\n        /* \"#utility.yul\":2209:2549   */\n      swap3\n      swap2\n      pop\n      pop\n      jump\t// out\n        /* \"#utility.yul\":2555:2632   */\n    tag_125:\n        /* \"#utility.yul\":2592:2599   */\n      0x00\n        /* \"#utility.yul\":2621:2626   */\n      dup2\n        /* \"#utility.yul\":2610:2626   */\n      swap1\n      pop\n        /* \"#utility.yul\":2555:2632   */\n      swap2\n      swap1\n      pop\n      jump\t// out\n        /* \"#utility.yul\":2638:2760   */\n    tag_126:\n        /* \"#utility.yul\":2711:2735   */\n      tag_207\n        /* \"#utility.yul\":2729:2734   */\n      dup2\n        /* \"#utility.yul\":2711:2735   */\n      tag_125\n      jump\t// in\n    tag_207:\n        /* \"#utility.yul\":2704:2709   */\n      dup2\n        /* \"#utility.yul\":2701:2736   */\n      eq\n        /* \"#utility.yul\":2691:2754   */\n      tag_208\n      jumpi\n        /* \"#utility.yul\":2750:2751   */\n      0x00\n        /* \"#utility.yul\":2747:2748   */\n      0x00\n        /* \"#utility.yul\":2740:2752   */\n      revert\n        /* \"#utility.yul\":2691:2754   */\n    tag_208:\n        /* \"#utility.yul\":2638:2760   */\n      pop\n      jump\t// out\n        /* \"#utility.yul\":2766:2905   */\n    tag_127:\n        /* \"#utility.yul\":2812:2817   */\n      0x00\n        /* \"#utility.yul\":2850:2856   */\n      dup2\n        /* \"#utility.yul\":2837:2857   */\n      calldataload\n        /* \"#utility.yul\":2828:2857   */\n      swap1\n      pop\n        /* \"#utility.yul\":2866:2899   */\n      tag_210\n        /* \"#utility.yul\":2893:2898   */\n      dup2\n        /* \"#utility.yul\":2866:2899   */\n      tag_126\n      jump\t// in\n    tag_210:\n        /* \"#utility.yul\":2766:2905   */\n      swap3\n      swap2\n      pop\n      pop\n      jump\t// out\n        /* \"#utility.yul\":2911:3565   */\n    tag_12:\n        /* \"#utility.yul\":2989:2995   */\n      0x00\n        /* \"#utility.yul\":2997:3003   */\n      0x00\n        /* \"#utility.yul\":3046:3048   */\n      0x40\n        /* \"#utility.yul\":3034:3043   */\n      dup4\n        /* \"#utility.yul\":3025:3032   */\n      dup6\n        /* \"#utility.yul\":3021:3044   */\n      sub\n        /* \"#utility.yul\":3017:3049   */\n      slt\n        /* \"#utility.yul\":3014:3133   */\n      iszero\n      tag_212\n      jumpi\n        /* \"#utility.yul\":3052:3131   */\n      tag_213\n      tag_113\n      jump\t// in\n    tag_213:\n        /* \"#utility.yul\":3014:3133   */\n    tag_212:\n        /* \"#utility.yul\":3200:3201   */\n      0x00\n        /* \"#utility.yul\":3189:3198   */\n      dup4\n        /* \"#utility.yul\":3185:3202   */\n      add\n        /* \"#utility.yul\":3172:3203   */\n      calldataload\n        /* \"#utility.yul\":3230:3248   */\n      0xffffffffffffffff\n        /* \"#utility.yul\":3222:3228   */\n      dup2\n        /* \"#utility.yul\":3219:3249   */\n      gt\n        /* \"#utility.yul\":3216:3333   */\n      iszero\n      tag_214\n      jumpi\n        /* \"#utility.yul\":3252:3331   */\n      tag_215\n      tag_114\n      jump\t// in\n    tag_215:\n        /* \"#utility.yul\":3216:3333   */\n    tag_214:\n        /* \"#utility.yul\":3357:3420   */\n      tag_216\n        /* \"#utility.yul\":3412:3419   */\n      dup6\n        /* \"#utility.yul\":3403:3409   */\n      dup3\n        /* \"#utility.yul\":3392:3401   */\n      dup7\n        /* \"#utility.yul\":3388:3410   */\n      add\n        /* \"#utility.yul\":3357:3420   */\n      tag_124\n      jump\t// in\n    tag_216:\n        /* \"#utility.yul\":3347:3420   */\n      swap3\n      pop\n        /* \"#utility.yul\":3143:3430   */\n      pop\n        /* \"#utility.yul\":3469:3471   */\n      0x20\n        /* \"#utility.yul\":3495:3548   */\n      tag_217\n        /* \"#utility.yul\":3540:3547   */\n      dup6\n        /* \"#utility.yul\":3531:3537   */\n      dup3\n        /* \"#utility.yul\":3520:3529   */\n      dup7\n        /* \"#utility.yul\":3516:3538   */\n      add\n        /* \"#utility.yul\":3495:3548   */\n      tag_127\n      jump\t// in\n    tag_217:\n        /* \"#utility.yul\":3485:3548   */\n      swap2\n      pop\n        /* \"#utility.yul\":3440:3558   */\n      pop\n        /* \"#utility.yul\":2911:3565   */\n      swap3\n      pop\n      swap3\n      swap1\n      pop\n      jump\t// out\n        /* \"#utility.yul\":3571:3697   */\n    tag_128:\n        /* \"#utility.yul\":3608:3615   */\n      0x00\n        /* \"#utility.yul\":3648:3690   */\n      0xffffffffffffffffffffffffffffffffffffffff\n        /* \"#utility.yul\":3641:3646   */\n      dup3\n        /* \"#utility.yul\":3637:3691   */\n      and\n        /* \"#utility.yul\":3626:3691   */\n      swap1\n      pop\n        /* \"#utility.yul\":3571:3697   */\n      swap2\n      swap1\n      pop\n      jump\t// out\n        /* \"#utility.yul\":3703:3799   */\n    tag_129:\n        /* \"#utility.yul\":3740:3747   */\n      0x00\n        /* \"#utility.yul\":3769:3793   */\n      tag_220\n        /* \"#utility.yul\":3787:3792   */\n      dup3\n        /* \"#utility.yul\":3769:3793   */\n      tag_128\n      jump\t// in\n    tag_220:\n        /* \"#utility.yul\":3758:3793   */\n      swap1\n      pop\n        /* \"#utility.yul\":3703:3799   */\n      swap2\n      swap1\n      pop\n      jump\t// out\n        /* \"#utility.yul\":3805:3927   */\n    tag_130:\n        /* \"#utility.yul\":3878:3902   */\n      tag_222\n        /* \"#utility.yul\":3896:3901   */\n      dup2\n        /* \"#utility.yul\":3878:3902   */\n      tag_129\n      jump\t// in\n    tag_222:\n        /* \"#utility.yul\":3871:3876   */\n      dup2\n        /* \"#utility.yul\":3868:3903   */\n      eq\n        /* \"#utility.yul\":3858:3921   */\n      tag_223\n      jumpi\n        /* \"#utility.yul\":3917:3918   */\n      0x00\n        /* \"#utility.yul\":3914:3915   */\n      0x00\n        /* \"#utility.yul\":3907:3919   */\n      revert\n        /* \"#utility.yul\":3858:3921   */\n    tag_223:\n        /* \"#utility.yul\":3805:3927   */\n      pop\n      jump\t// out\n        /* \"#utility.yul\":3933:4072   */\n    tag_131:\n        /* \"#utility.yul\":3979:3984   */\n      0x00\n        /* \"#utility.yul\":4017:4023   */\n      dup2\n        /* \"#utility.yul\":4004:4024   */\n      calldataload\n        /* \"#utility.yul\":3995:4024   */\n      swap1\n      pop\n        /* \"#utility.yul\":4033:4066   */\n      tag_225\n        /* \"#utility.yul\":4060:4065   */\n      dup2\n        /* \"#utility.yul\":4033:4066   */\n      tag_130\n      jump\t// in\n    tag_225:\n        /* \"#utility.yul\":3933:4072   */\n      swap3\n      swap2\n      pop\n      pop\n      jump\t// out\n        /* \"#utility.yul\":4078:4407   */\n    tag_17:\n        /* \"#utility.yul\":4137:4143   */\n      0x00\n        /* \"#utility.yul\":4186:4188   */\n      0x20\n        /* \"#utility.yul\":4174:4183   */\n      dup3\n        /* \"#utility.yul\":4165:4172   */\n      dup5\n        /* \"#utility.yul\":4161:4184   */\n      sub\n        /* \"#utility.yul\":4157:4189   */\n      slt\n        /* \"#utility.yul\":4154:4273   */\n      iszero\n      tag_227\n      jumpi\n        /* \"#utility.yul\":4192:4271   */\n      tag_228\n      tag_113\n      jump\t// in\n    tag_228:\n        /* \"#utility.yul\":4154:4273   */\n    tag_227:\n        /* \"#utility.yul\":4312:4313   */\n      0x00\n        /* \"#utility.yul\":4337:4390   */\n      tag_229\n        /* \"#utility.yul\":4382:4389   */\n      dup5\n        /* \"#utility.yul\":4373:4379   */\n      dup3\n        /* \"#utility.yul\":4362:4371   */\n      dup6\n        /* \"#utility.yul\":4358:4380   */\n      add\n        /* \"#utility.yul\":4337:4390   */\n      tag_131\n      jump\t// in\n    tag_229:\n        /* \"#utility.yul\":4327:4390   */\n      swap2\n      pop\n        /* \"#utility.yul\":4283:4400   */\n      pop\n        /* \"#utility.yul\":4078:4407   */\n      swap3\n      swap2\n      pop\n      pop\n      jump\t// out\n        /* \"#utility.yul\":4413:4537   */\n    tag_132:\n        /* \"#utility.yul\":4490:4496   */\n      0x00\n        /* \"#utility.yul\":4524:4529   */\n      dup2\n        /* \"#utility.yul\":4518:4530   */\n      mload\n        /* \"#utility.yul\":4508:4530   */\n      swap1\n      pop\n        /* \"#utility.yul\":4413:4537   */\n      swap2\n      swap1\n      pop\n      jump\t// out\n        /* \"#utility.yul\":4543:4737   */\n    tag_133:\n        /* \"#utility.yul\":4652:4663   */\n      0x00\n        /* \"#utility.yul\":4686:4692   */\n      dup3\n        /* \"#utility.yul\":4681:4684   */\n      dup3\n        /* \"#utility.yul\":4674:4693   */\n      mstore\n        /* \"#utility.yul\":4726:4730   */\n      0x20\n        /* \"#utility.yul\":4721:4724   */\n      dup3\n        /* \"#utility.yul\":4717:4731   */\n      add\n        /* \"#utility.yul\":4702:4731   */\n      swap1\n      pop\n        /* \"#utility.yul\":4543:4737   */\n      swap3\n      swap2\n      pop\n      pop\n      jump\t// out\n        /* \"#utility.yul\":4743:4885   */\n    tag_134:\n        /* \"#utility.yul\":4820:4824   */\n      0x00\n        /* \"#utility.yul\":4843:4846   */\n      dup2\n        /* \"#utility.yul\":4835:4846   */\n      swap1\n      pop\n        /* \"#utility.yul\":4873:4877   */\n      0x20\n        /* \"#utility.yul\":4868:4871   */\n      dup3\n        /* \"#utility.yul\":4864:4878   */\n      add\n        /* \"#utility.yul\":4856:4878   */\n      swap1\n      pop\n        /* \"#utility.yul\":4743:4885   */\n      swap2\n      swap1\n      pop\n      jump\t// out\n        /* \"#utility.yul\":4891:4990   */\n    tag_135:\n        /* \"#utility.yul\":4943:4949   */\n      0x00\n        /* \"#utility.yul\":4977:4982   */\n      dup2\n        /* \"#utility.yul\":4971:4983   */\n      mload\n        /* \"#utility.yul\":4961:4983   */\n      swap1\n      pop\n        /* \"#utility.yul\":4891:4990   */\n      swap2\n      swap1\n      pop\n      jump\t// out\n        /* \"#utility.yul\":4996:5155   */\n    tag_136:\n        /* \"#utility.yul\":5070:5081   */\n      0x00\n        /* \"#utility.yul\":5104:5110   */\n      dup3\n        /* \"#utility.yul\":5099:5102   */\n      dup3\n        /* \"#utility.yul\":5092:5111   */\n      mstore\n        /* \"#utility.yul\":5144:5148   */\n      0x20\n        /* \"#utility.yul\":5139:5142   */\n      dup3\n        /* \"#utility.yul\":5135:5149   */\n      add\n        /* \"#utility.yul\":5120:5149   */\n      swap1\n      pop\n        /* \"#utility.yul\":4996:5155   */\n      swap3\n      swap2\n      pop\n      pop\n      jump\t// out\n        /* \"#utility.yul\":5161:5300   */\n    tag_137:\n        /* \"#utility.yul\":5250:5256   */\n      dup3\n        /* \"#utility.yul\":5245:5248   */\n      dup2\n        /* \"#utility.yul\":5240:5243   */\n      dup4\n        /* \"#utility.yul\":5234:5257   */\n      mcopy\n        /* \"#utility.yul\":5291:5292   */\n      0x00\n        /* \"#utility.yul\":5282:5288   */\n      dup4\n        /* \"#utility.yul\":5277:5280   */\n      dup4\n        /* \"#utility.yul\":5273:5289   */\n      add\n        /* \"#utility.yul\":5266:5293   */\n      mstore\n        /* \"#utility.yul\":5161:5300   */\n      pop\n      pop\n      pop\n      jump\t// out\n        /* \"#utility.yul\":5306:5663   */\n    tag_138:\n        /* \"#utility.yul\":5384:5387   */\n      0x00\n        /* \"#utility.yul\":5412:5451   */\n      tag_237\n        /* \"#utility.yul\":5445:5450   */\n      dup3\n        /* \"#utility.yul\":5412:5451   */\n      tag_135\n      jump\t// in\n    tag_237:\n        /* \"#utility.yul\":5467:5528   */\n      tag_238\n        /* \"#utility.yul\":5521:5527   */\n      dup2\n        /* \"#utility.yul\":5516:5519   */\n      dup6\n        /* \"#utility.yul\":5467:5528   */\n      tag_136\n      jump\t// in\n    tag_238:\n        /* \"#utility.yul\":5460:5528   */\n      swap4\n      pop\n        /* \"#utility.yul\":5537:5602   */\n      tag_239\n        /* \"#utility.yul\":5595:5601   */\n      dup2\n        /* \"#utility.yul\":5590:5593   */\n      dup6\n        /* \"#utility.yul\":5583:5587   */\n      0x20\n        /* \"#utility.yul\":5576:5581   */\n      dup7\n        /* \"#utility.yul\":5572:5588   */\n      add\n        /* \"#utility.yul\":5537:5602   */\n      tag_137\n      jump\t// in\n    tag_239:\n        /* \"#utility.yul\":5627:5656   */\n      tag_240\n        /* \"#utility.yul\":5649:5655   */\n      dup2\n        /* \"#utility.yul\":5627:5656   */\n      tag_117\n      jump\t// in\n    tag_240:\n        /* \"#utility.yul\":5622:5625   */\n      dup5\n        /* \"#utility.yul\":5618:5657   */\n      add\n        /* \"#utility.yul\":5611:5657   */\n      swap2\n      pop\n        /* \"#utility.yul\":5388:5663   */\n      pop\n        /* \"#utility.yul\":5306:5663   */\n      swap3\n      swap2\n      pop\n      pop\n      jump\t// out\n        /* \"#utility.yul\":5669:5865   */\n    tag_139:\n        /* \"#utility.yul\":5758:5768   */\n      0x00\n        /* \"#utility.yul\":5793:5859   */\n      tag_242\n        /* \"#utility.yul\":5855:5858   */\n      dup4\n        /* \"#utility.yul\":5847:5853   */\n      dup4\n        /* \"#utility.yul\":5793:5859   */\n      tag_138\n      jump\t// in\n    tag_242:\n        /* \"#utility.yul\":5779:5859   */\n      swap1\n      pop\n        /* \"#utility.yul\":5669:5865   */\n      swap3\n      swap2\n      pop\n      pop\n      jump\t// out\n        /* \"#utility.yul\":5871:5994   */\n    tag_140:\n        /* \"#utility.yul\":5951:5955   */\n      0x00\n        /* \"#utility.yul\":5983:5987   */\n      0x20\n        /* \"#utility.yul\":5978:5981   */\n      dup3\n        /* \"#utility.yul\":5974:5988   */\n      add\n        /* \"#utility.yul\":5966:5988   */\n      swap1\n      pop\n        /* \"#utility.yul\":5871:5994   */\n      swap2\n      swap1\n      pop\n      jump\t// out\n        /* \"#utility.yul\":6028:7019   */\n    tag_141:\n        /* \"#utility.yul\":6167:6170   */\n      0x00\n        /* \"#utility.yul\":6196:6260   */\n      tag_245\n        /* \"#utility.yul\":6254:6259   */\n      dup3\n        /* \"#utility.yul\":6196:6260   */\n      tag_132\n      jump\t// in\n    tag_245:\n        /* \"#utility.yul\":6276:6372   */\n      tag_246\n        /* \"#utility.yul\":6365:6371   */\n      dup2\n        /* \"#utility.yul\":6360:6363   */\n      dup6\n        /* \"#utility.yul\":6276:6372   */\n      tag_133\n      jump\t// in\n    tag_246:\n        /* \"#utility.yul\":6269:6372   */\n      swap4\n      pop\n        /* \"#utility.yul\":6398:6401   */\n      dup4\n        /* \"#utility.yul\":6443:6447   */\n      0x20\n        /* \"#utility.yul\":6435:6441   */\n      dup3\n        /* \"#utility.yul\":6431:6448   */\n      mul\n        /* \"#utility.yul\":6426:6429   */\n      dup6\n        /* \"#utility.yul\":6422:6449   */\n      add\n        /* \"#utility.yul\":6473:6539   */\n      tag_247\n        /* \"#utility.yul\":6533:6538   */\n      dup6\n        /* \"#utility.yul\":6473:6539   */\n      tag_134\n      jump\t// in\n    tag_247:\n        /* \"#utility.yul\":6562:6569   */\n      dup1\n        /* \"#utility.yul\":6593:6594   */\n      0x00\n        /* \"#utility.yul\":6578:6974   */\n    tag_248:\n        /* \"#utility.yul\":6603:6609   */\n      dup6\n        /* \"#utility.yul\":6600:6601   */\n      dup2\n        /* \"#utility.yul\":6597:6610   */\n      lt\n        /* \"#utility.yul\":6578:6974   */\n      iszero\n      tag_250\n      jumpi\n        /* \"#utility.yul\":6674:6683   */\n      dup5\n        /* \"#utility.yul\":6668:6672   */\n      dup5\n        /* \"#utility.yul\":6664:6684   */\n      sub\n        /* \"#utility.yul\":6659:6662   */\n      dup10\n        /* \"#utility.yul\":6652:6685   */\n      mstore\n        /* \"#utility.yul\":6725:6731   */\n      dup2\n        /* \"#utility.yul\":6719:6732   */\n      mload\n        /* \"#utility.yul\":6753:6837   */\n      tag_251\n        /* \"#utility.yul\":6832:6836   */\n      dup6\n        /* \"#utility.yul\":6817:6830   */\n      dup3\n        /* \"#utility.yul\":6753:6837   */\n      tag_139\n      jump\t// in\n    tag_251:\n        /* \"#utility.yul\":6745:6837   */\n      swap5\n      pop\n        /* \"#utility.yul\":6860:6930   */\n      tag_252\n        /* \"#utility.yul\":6923:6929   */\n      dup4\n        /* \"#utility.yul\":6860:6930   */\n      tag_140\n      jump\t// in\n    tag_252:\n        /* \"#utility.yul\":6850:6930   */\n      swap3\n      pop\n        /* \"#utility.yul\":6959:6963   */\n      0x20\n        /* \"#utility.yul\":6954:6957   */\n      dup11\n        /* \"#utility.yul\":6950:6964   */\n      add\n        /* \"#utility.yul\":6943:6964   */\n      swap10\n      pop\n        /* \"#utility.yul\":6638:6974   */\n      pop\n        /* \"#utility.yul\":6625:6626   */\n      0x01\n        /* \"#utility.yul\":6622:6623   */\n      dup2\n        /* \"#utility.yul\":6618:6627   */\n      add\n        /* \"#utility.yul\":6613:6627   */\n      swap1\n      pop\n        /* \"#utility.yul\":6578:6974   */\n      jump(tag_248)\n    tag_250:\n        /* \"#utility.yul\":6582:6596   */\n      pop\n        /* \"#utility.yul\":6990:6994   */\n      dup3\n        /* \"#utility.yul\":6983:6994   */\n      swap8\n      pop\n        /* \"#utility.yul\":7010:7013   */\n      dup8\n        /* \"#utility.yul\":7003:7013   */\n      swap6\n      pop\n        /* \"#utility.yul\":6172:7019   */\n      pop\n      pop\n      pop\n      pop\n      pop\n        /* \"#utility.yul\":6028:7019   */\n      swap3\n      swap2\n      pop\n      pop\n      jump\t// out\n        /* \"#utility.yul\":7025:7438   */\n    tag_20:\n        /* \"#utility.yul\":7188:7192   */\n      0x00\n        /* \"#utility.yul\":7226:7228   */\n      0x20\n        /* \"#utility.yul\":7215:7224   */\n      dup3\n        /* \"#utility.yul\":7211:7229   */\n      add\n        /* \"#utility.yul\":7203:7229   */\n      swap1\n      pop\n        /* \"#utility.yul\":7275:7284   */\n      dup2\n        /* \"#utility.yul\":7269:7273   */\n      dup2\n        /* \"#utility.yul\":7265:7285   */\n      sub\n        /* \"#utility.yul\":7261:7262   */\n      0x00\n        /* \"#utility.yul\":7250:7259   */\n      dup4\n        /* \"#utility.yul\":7246:7263   */\n      add\n        /* \"#utility.yul\":7239:7286   */\n      mstore\n        /* \"#utility.yul\":7303:7431   */\n      tag_254\n        /* \"#utility.yul\":7426:7430   */\n      dup2\n        /* \"#utility.yul\":7417:7423   */\n      dup5\n        /* \"#utility.yul\":7303:7431   */\n      tag_141\n      jump\t// in\n    tag_254:\n        /* \"#utility.yul\":7295:7431   */\n      swap1\n      pop\n        /* \"#utility.yul\":7025:7438   */\n      swap3\n      swap2\n      pop\n      pop\n      jump\t// out\n        /* \"#utility.yul\":7444:7953   */\n    tag_23:\n        /* \"#utility.yul\":7513:7519   */\n      0x00\n        /* \"#utility.yul\":7562:7564   */\n      0x20\n        /* \"#utility.yul\":7550:7559   */\n      dup3\n        /* \"#utility.yul\":7541:7548   */\n      dup5\n        /* \"#utility.yul\":7537:7560   */\n      sub\n        /* \"#utility.yul\":7533:7565   */\n      slt\n        /* \"#utility.yul\":7530:7649   */\n      iszero\n      tag_256\n      jumpi\n        /* \"#utility.yul\":7568:7647   */\n      tag_257\n      tag_113\n      jump\t// in\n    tag_257:\n        /* \"#utility.yul\":7530:7649   */\n    tag_256:\n        /* \"#utility.yul\":7716:7717   */\n      0x00\n        /* \"#utility.yul\":7705:7714   */\n      dup3\n        /* \"#utility.yul\":7701:7718   */\n      add\n        /* \"#utility.yul\":7688:7719   */\n      calldataload\n        /* \"#utility.yul\":7746:7764   */\n      0xffffffffffffffff\n        /* \"#utility.yul\":7738:7744   */\n      dup2\n        /* \"#utility.yul\":7735:7765   */\n      gt\n        /* \"#utility.yul\":7732:7849   */\n      iszero\n      tag_258\n      jumpi\n        /* \"#utility.yul\":7768:7847   */\n      tag_259\n      tag_114\n      jump\t// in\n    tag_259:\n        /* \"#utility.yul\":7732:7849   */\n    tag_258:\n        /* \"#utility.yul\":7873:7936   */\n      tag_260\n        /* \"#utility.yul\":7928:7935   */\n      dup5\n        /* \"#utility.yul\":7919:7925   */\n      dup3\n        /* \"#utility.yul\":7908:7917   */\n      dup6\n        /* \"#utility.yul\":7904:7926   */\n      add\n        /* \"#utility.yul\":7873:7936   */\n      tag_124\n      jump\t// in\n    tag_260:\n        /* \"#utility.yul\":7863:7936   */\n      swap2\n      pop\n        /* \"#utility.yul\":7659:7946   */\n      pop\n        /* \"#utility.yul\":7444:7953   */\n      swap3\n      swap2\n      pop\n      pop\n      jump\t// out\n        /* \"#utility.yul\":7959:8077   */\n    tag_142:\n        /* \"#utility.yul\":8046:8070   */\n      tag_262\n        /* \"#utility.yul\":8064:8069   */\n      dup2\n        /* \"#utility.yul\":8046:8070   */\n      tag_125\n      jump\t// in\n    tag_262:\n        /* \"#utility.yul\":8041:8044   */\n      dup3\n        /* \"#utility.yul\":8034:8071   */\n      mstore\n        /* \"#utility.yul\":7959:8077   */\n      pop\n      pop\n      jump\t// out\n        /* \"#utility.yul\":8083:8305   */\n    tag_30:\n        /* \"#utility.yul\":8176:8180   */\n      0x00\n        /* \"#utility.yul\":8214:8216   */\n      0x20\n        /* \"#utility.yul\":8203:8212   */\n      dup3\n        /* \"#utility.yul\":8199:8217   */\n      add\n        /* \"#utility.yul\":8191:8217   */\n      swap1\n      pop\n        /* \"#utility.yul\":8227:8298   */\n      tag_264\n        /* \"#utility.yul\":8295:8296   */\n      0x00\n        /* \"#utility.yul\":8284:8293   */\n      dup4\n        /* \"#utility.yul\":8280:8297   */\n      add\n        /* \"#utility.yul\":8271:8277   */\n      dup5\n        /* \"#utility.yul\":8227:8298   */\n      tag_142\n      jump\t// in\n    tag_264:\n        /* \"#utility.yul\":8083:8305   */\n      swap3\n      swap2\n      pop\n      pop\n      jump\t// out\n        /* \"#utility.yul\":8311:8459   */\n    tag_143:\n        /* \"#utility.yul\":8413:8424   */\n      0x00\n        /* \"#utility.yul\":8450:8453   */\n      dup2\n        /* \"#utility.yul\":8435:8453   */\n      swap1\n      pop\n        /* \"#utility.yul\":8311:8459   */\n      swap3\n      swap2\n      pop\n      pop\n      jump\t// out\n        /* \"#utility.yul\":8465:8855   */\n    tag_144:\n        /* \"#utility.yul\":8571:8574   */\n      0x00\n        /* \"#utility.yul\":8599:8638   */\n      tag_267\n        /* \"#utility.yul\":8632:8637   */\n      dup3\n        /* \"#utility.yul\":8599:8638   */\n      tag_135\n      jump\t// in\n    tag_267:\n        /* \"#utility.yul\":8654:8743   */\n      tag_268\n        /* \"#utility.yul\":8736:8742   */\n      dup2\n        /* \"#utility.yul\":8731:8734   */\n      dup6\n        /* \"#utility.yul\":8654:8743   */\n      tag_143\n      jump\t// in\n    tag_268:\n        /* \"#utility.yul\":8647:8743   */\n      swap4\n      pop\n        /* \"#utility.yul\":8752:8817   */\n      tag_269\n        /* \"#utility.yul\":8810:8816   */\n      dup2\n        /* \"#utility.yul\":8805:8808   */\n      dup6\n        /* \"#utility.yul\":8798:8802   */\n      0x20\n        /* \"#utility.yul\":8791:8796   */\n      dup7\n        /* \"#utility.yul\":8787:8803   */\n      add\n        /* \"#utility.yul\":8752:8817   */\n      tag_137\n      jump\t// in\n    tag_269:\n        /* \"#utility.yul\":8842:8848   */\n      dup1\n        /* \"#utility.yul\":8837:8840   */\n      dup5\n        /* \"#utility.yul\":8833:8849   */\n      add\n        /* \"#utility.yul\":8826:8849   */\n      swap2\n      pop\n        /* \"#utility.yul\":8575:8855   */\n      pop\n        /* \"#utility.yul\":8465:8855   */\n      swap3\n      swap2\n      pop\n      pop\n      jump\t// out\n        /* \"#utility.yul\":8861:9136   */\n    tag_33:\n        /* \"#utility.yul\":8993:8996   */\n      0x00\n        /* \"#utility.yul\":9015:9110   */\n      tag_271\n        /* \"#utility.yul\":9106:9109   */\n      dup3\n        /* \"#utility.yul\":9097:9103   */\n      dup5\n        /* \"#utility.yul\":9015:9110   */\n      tag_144\n      jump\t// in\n    tag_271:\n        /* \"#utility.yul\":9008:9110   */\n      swap2\n      pop\n        /* \"#utility.yul\":9127:9130   */\n      dup2\n        /* \"#utility.yul\":9120:9130   */\n      swap1\n      pop\n        /* \"#utility.yul\":8861:9136   */\n      swap3\n      swap2\n      pop\n      pop\n      jump\t// out\n        /* \"#utility.yul\":9142:9311   */\n    tag_145:\n        /* \"#utility.yul\":9226:9237   */\n      0x00\n        /* \"#utility.yul\":9260:9266   */\n      dup3\n        /* \"#utility.yul\":9255:9258   */\n      dup3\n        /* \"#utility.yul\":9248:9267   */\n      mstore\n        /* \"#utility.yul\":9300:9304   */\n      0x20\n        /* \"#utility.yul\":9295:9298   */\n      dup3\n        /* \"#utility.yul\":9291:9305   */\n      add\n        /* \"#utility.yul\":9276:9305   */\n      swap1\n      pop\n        /* \"#utility.yul\":9142:9311   */\n      swap3\n      swap2\n      pop\n      pop\n      jump\t// out\n        /* \"#utility.yul\":9317:9485   */\n    tag_146:\n        /* \"#utility.yul\":9457:9477   */\n      0x4e465420616c7265616479206578697374730000000000000000000000000000\n        /* \"#utility.yul\":9453:9454   */\n      0x00\n        /* \"#utility.yul\":9445:9451   */\n      dup3\n        /* \"#utility.yul\":9441:9455   */\n      add\n        /* \"#utility.yul\":9434:9478   */\n      mstore\n        /* \"#utility.yul\":9317:9485   */\n      pop\n      jump\t// out\n        /* \"#utility.yul\":9491:9857   */\n    tag_147:\n        /* \"#utility.yul\":9633:9636   */\n      0x00\n        /* \"#utility.yul\":9654:9721   */\n      tag_275\n        /* \"#utility.yul\":9718:9720   */\n      0x12\n        /* \"#utility.yul\":9713:9716   */\n      dup4\n        /* \"#utility.yul\":9654:9721   */\n      tag_145\n      jump\t// in\n    tag_275:\n        /* \"#utility.yul\":9647:9721   */\n      swap2\n      pop\n        /* \"#utility.yul\":9730:9823   */\n      tag_276\n        /* \"#utility.yul\":9819:9822   */\n      dup3\n        /* \"#utility.yul\":9730:9823   */\n      tag_146\n      jump\t// in\n    tag_276:\n        /* \"#utility.yul\":9848:9850   */\n      0x20\n        /* \"#utility.yul\":9843:9846   */\n      dup3\n        /* \"#utility.yul\":9839:9851   */\n      add\n        /* \"#utility.yul\":9832:9851   */\n      swap1\n      pop\n        /* \"#utility.yul\":9491:9857   */\n      swap2\n      swap1\n      pop\n      jump\t// out\n        /* \"#utility.yul\":9863:10282   */\n    tag_36:\n        /* \"#utility.yul\":10029:10033   */\n      0x00\n        /* \"#utility.yul\":10067:10069   */\n      0x20\n        /* \"#utility.yul\":10056:10065   */\n      dup3\n        /* \"#utility.yul\":10052:10070   */\n      add\n        /* \"#utility.yul\":10044:10070   */\n      swap1\n      pop\n        /* \"#utility.yul\":10116:10125   */\n      dup2\n        /* \"#utility.yul\":10110:10114   */\n      dup2\n        /* \"#utility.yul\":10106:10126   */\n      sub\n        /* \"#utility.yul\":10102:10103   */\n      0x00\n        /* \"#utility.yul\":10091:10100   */\n      dup4\n        /* \"#utility.yul\":10087:10104   */\n      add\n        /* \"#utility.yul\":10080:10127   */\n      mstore\n        /* \"#utility.yul\":10144:10275   */\n      tag_278\n        /* \"#utility.yul\":10270:10274   */\n      dup2\n        /* \"#utility.yul\":10144:10275   */\n      tag_147\n      jump\t// in\n    tag_278:\n        /* \"#utility.yul\":10136:10275   */\n      swap1\n      pop\n        /* \"#utility.yul\":9863:10282   */\n      swap2\n      swap1\n      pop\n      jump\t// out\n        /* \"#utility.yul\":10288:10468   */\n    tag_148:\n        /* \"#utility.yul\":10336:10413   */\n      0x4e487b7100000000000000000000000000000000000000000000000000000000\n        /* \"#utility.yul\":10333:10334   */\n      0x00\n        /* \"#utility.yul\":10326:10414   */\n      mstore\n        /* \"#utility.yul\":10433:10437   */\n      0x22\n        /* \"#utility.yul\":10430:10431   */\n      0x04\n        /* \"#utility.yul\":10423:10438   */\n      mstore\n        /* \"#utility.yul\":10457:10461   */\n      0x24\n        /* \"#utility.yul\":10454:10455   */\n      0x00\n        /* \"#utility.yul\":10447:10462   */\n      revert\n        /* \"#utility.yul\":10474:10794   */\n    tag_49:\n        /* \"#utility.yul\":10518:10524   */\n      0x00\n        /* \"#utility.yul\":10555:10556   */\n      0x02\n        /* \"#utility.yul\":10549:10553   */\n      dup3\n        /* \"#utility.yul\":10545:10557   */\n      div\n        /* \"#utility.yul\":10535:10557   */\n      swap1\n      pop\n        /* \"#utility.yul\":10602:10603   */\n      0x01\n        /* \"#utility.yul\":10596:10600   */\n      dup3\n        /* \"#utility.yul\":10592:10604   */\n      and\n        /* \"#utility.yul\":10623:10641   */\n      dup1\n        /* \"#utility.yul\":10613:10694   */\n      tag_281\n      jumpi\n        /* \"#utility.yul\":10679:10683   */\n      0x7f\n        /* \"#utility.yul\":10671:10677   */\n      dup3\n        /* \"#utility.yul\":10667:10684   */\n      and\n        /* \"#utility.yul\":10657:10684   */\n      swap2\n      pop\n        /* \"#utility.yul\":10613:10694   */\n    tag_281:\n        /* \"#utility.yul\":10741:10743   */\n      0x20\n        /* \"#utility.yul\":10733:10739   */\n      dup3\n        /* \"#utility.yul\":10730:10744   */\n      lt\n        /* \"#utility.yul\":10710:10728   */\n      dup2\n        /* \"#utility.yul\":10707:10745   */\n      sub\n        /* \"#utility.yul\":10704:10788   */\n      tag_282\n      jumpi\n        /* \"#utility.yul\":10760:10778   */\n      tag_283\n      tag_148\n      jump\t// in\n    tag_283:\n        /* \"#utility.yul\":10704:10788   */\n    tag_282:\n        /* \"#utility.yul\":10525:10794   */\n      pop\n        /* \"#utility.yul\":10474:10794   */\n      swap2\n      swap1\n      pop\n      jump\t// out\n        /* \"#utility.yul\":10800:10941   */\n    tag_149:\n        /* \"#utility.yul\":10849:10853   */\n      0x00\n        /* \"#utility.yul\":10872:10875   */\n      dup2\n        /* \"#utility.yul\":10864:10875   */\n      swap1\n      pop\n        /* \"#utility.yul\":10895:10898   */\n      dup2\n        /* \"#utility.yul\":10892:10893   */\n      0x00\n        /* \"#utility.yul\":10885:10899   */\n      mstore\n        /* \"#utility.yul\":10929:10933   */\n      0x20\n        /* \"#utility.yul\":10926:10927   */\n      0x00\n        /* \"#utility.yul\":10916:10934   */\n      keccak256\n        /* \"#utility.yul\":10908:10934   */\n      swap1\n      pop\n        /* \"#utility.yul\":10800:10941   */\n      swap2\n      swap1\n      pop\n      jump\t// out\n        /* \"#utility.yul\":10947:11040   */\n    tag_150:\n        /* \"#utility.yul\":10984:10990   */\n      0x00\n        /* \"#utility.yul\":11031:11033   */\n      0x20\n        /* \"#utility.yul\":11026:11028   */\n      0x1f\n        /* \"#utility.yul\":11019:11024   */\n      dup4\n        /* \"#utility.yul\":11015:11029   */\n      add\n        /* \"#utility.yul\":11011:11034   */\n      div\n        /* \"#utility.yul\":11001:11034   */\n      swap1\n      pop\n        /* \"#utility.yul\":10947:11040   */\n      swap2\n      swap1\n      pop\n      jump\t// out\n        /* \"#utility.yul\":11046:11153   */\n    tag_151:\n        /* \"#utility.yul\":11090:11098   */\n      0x00\n        /* \"#utility.yul\":11140:11145   */\n      dup3\n        /* \"#utility.yul\":11134:11138   */\n      dup3\n        /* \"#utility.yul\":11130:11146   */\n      shl\n        /* \"#utility.yul\":11109:11146   */\n      swap1\n      pop\n        /* \"#utility.yul\":11046:11153   */\n      swap3\n      swap2\n      pop\n      pop\n      jump\t// out\n        /* \"#utility.yul\":11159:11552   */\n    tag_152:\n        /* \"#utility.yul\":11228:11234   */\n      0x00\n        /* \"#utility.yul\":11278:11279   */\n      0x08\n        /* \"#utility.yul\":11266:11276   */\n      dup4\n        /* \"#utility.yul\":11262:11280   */\n      mul\n        /* \"#utility.yul\":11301:11398   */\n      tag_288\n        /* \"#utility.yul\":11331:11397   */\n      0xffffffffffffffffffffffffffffffffffffffffffffffffffffffffffffffff\n        /* \"#utility.yul\":11320:11329   */\n      dup3\n        /* \"#utility.yul\":11301:11398   */\n      tag_151\n      jump\t// in\n    tag_288:\n        /* \"#utility.yul\":11419:11458   */\n      tag_289\n        /* \"#utility.yul\":11449:11457   */\n      dup7\n        /* \"#utility.yul\":11438:11447   */\n      dup4\n        /* \"#utility.yul\":11419:11458   */\n      tag_151\n      jump\t// in\n    tag_289:\n        /* \"#utility.yul\":11407:11458   */\n      swap6\n      pop\n        /* \"#utility.yul\":11491:11495   */\n      dup1\n        /* \"#utility.yul\":11487:11496   */\n      not\n        /* \"#utility.yul\":11480:11485   */\n      dup5\n        /* \"#utility.yul\":11476:11497   */\n      and\n        /* \"#utility.yul\":11467:11497   */\n      swap4\n      pop\n        /* \"#utility.yul\":11540:11544   */\n      dup1\n        /* \"#utility.yul\":11530:11538   */\n      dup7\n        /* \"#utility.yul\":11526:11545   */\n      and\n        /* \"#utility.yul\":11519:11524   */\n      dup5\n        /* \"#utility.yul\":11516:11546   */\n      or\n        /* \"#utility.yul\":11506:11546   */\n      swap3\n      pop\n        /* \"#utility.yul\":11235:11552   */\n      pop\n      pop\n        /* \"#utility.yul\":11159:11552   */\n      swap4\n      swap3\n      pop\n      pop\n      pop\n      jump\t// out\n        /* \"#utility.yul\":11558:11618   */\n    tag_153:\n        /* \"#utility.yul\":11586:11589   */\n      0x00\n        /* \"#utility.yul\":11607:11612   */\n      dup2\n        /* \"#utility.yul\":11600:11612   */\n      swap1\n      pop\n        /* \"#utility.yul\":11558:11618   */\n      swap2\n      swap1\n      pop\n      jump\t// out\n        /* \"#utility.yul\":11624:11766   */\n    tag_154:\n        /* \"#utility.yul\":11674:11683   */\n      0x00\n        /* \"#utility.yul\":11707:11760   */\n      tag_292\n        /* \"#utility.yul\":11725:11759   */\n      tag_293\n        /* \"#utility.yul\":11734:11758   */\n      tag_294\n        /* \"#utility.yul\":11752:11757   */\n      dup5\n        /* \"#utility.yul\":11734:11758   */\n      tag_125\n      jump\t// in\n    tag_294:\n        /* \"#utility.yul\":11725:11759   */\n      tag_153\n      jump\t// in\n    tag_293:\n        /* \"#utility.yul\":11707:11760   */\n      tag_125\n      jump\t// in\n    tag_292:\n        /* \"#utility.yul\":11694:11760   */\n      swap1\n      pop\n        /* \"#utility.yul\":11624:11766   */\n      swap2\n      swap1\n      pop\n      jump\t// out\n        /* \"#utility.yul\":11772:11847   */\n    tag_155:\n        /* \"#utility.yul\":11815:11818   */\n      0x00\n        /* \"#utility.yul\":11836:11841   */\n      dup2\n        /* \"#utility.yul\":11829:11841   */\n      swap1\n      pop\n        /* \"#utility.yul\":11772:11847   */\n      swap2\n      swap1\n      pop\n      jump\t// out\n        /* \"#utility.yul\":11853:12122   */\n    tag_156:\n        /* \"#utility.yul\":11963:12002   */\n      tag_297\n        /* \"#utility.yul\":11994:12001   */\n      dup4\n        /* \"#utility.yul\":11963:12002   */\n      tag_154\n      jump\t// in\n    tag_297:\n        /* \"#utility.yul\":12024:12115   */\n      tag_298\n        /* \"#utility.yul\":12073:12114   */\n      tag_299\n        /* \"#utility.yul\":12097:12113   */\n      dup3\n        /* \"#utility.yul\":12073:12114   */\n      tag_155\n      jump\t// in\n    tag_299:\n        /* \"#utility.yul\":12065:12071   */\n      dup5\n        /* \"#utility.yul\":12058:12062   */\n      dup5\n        /* \"#utility.yul\":12052:12063   */\n      sload\n        /* \"#utility.yul\":12024:12115   */\n      tag_152\n      jump\t// in\n    tag_298:\n        /* \"#utility.yul\":12018:12022   */\n      dup3\n        /* \"#utility.yul\":12011:12116   */\n      sstore\n        /* \"#utility.yul\":11929:12122   */\n      pop\n        /* \"#utility.yul\":11853:12122   */\n      pop\n      pop\n      pop\n      jump\t// out\n        /* \"#utility.yul\":12128:12201   */\n    tag_157:\n        /* \"#utility.yul\":12173:12176   */\n      0x00\n        /* \"#utility.yul\":12194:12195   */\n      0x00\n        /* \"#utility.yul\":12187:12195   */\n      swap1\n      pop\n        /* \"#utility.yul\":12128:12201   */\n      swap1\n      jump\t// out\n        /* \"#utility.yul\":12207:12396   */\n    tag_158:\n        /* \"#utility.yul\":12284:12316   */\n      tag_302\n      tag_157\n      jump\t// in\n    tag_302:\n        /* \"#utility.yul\":12325:12390   */\n      tag_303\n        /* \"#utility.yul\":12383:12389   */\n      dup2\n        /* \"#utility.yul\":12375:12381   */\n      dup5\n        /* \"#utility.yul\":12369:12373   */\n      dup5\n        /* \"#utility.yul\":12325:12390   */\n      tag_156\n      jump\t// in\n    tag_303:\n        /* \"#utility.yul\":12260:12396   */\n      pop\n        /* \"#utility.yul\":12207:12396   */\n      pop\n      pop\n      jump\t// out\n        /* \"#utility.yul\":12402:12588   */\n    tag_159:\n        /* \"#utility.yul\":12462:12582   */\n    tag_305:\n        /* \"#utility.yul\":12479:12482   */\n      dup2\n        /* \"#utility.yul\":12472:12477   */\n      dup2\n        /* \"#utility.yul\":12469:12483   */\n      lt\n        /* \"#utility.yul\":12462:12582   */\n      iszero\n      tag_307\n      jumpi\n        /* \"#utility.yul\":12533:12572   */\n      tag_308\n        /* \"#utility.yul\":12570:12571   */\n      0x00\n        /* \"#utility.yul\":12563:12568   */\n      dup3\n        /* \"#utility.yul\":12533:12572   */\n      tag_158\n      jump\t// in\n    tag_308:\n        /* \"#utility.yul\":12506:12507   */\n      0x01\n        /* \"#utility.yul\":12499:12504   */\n      dup2\n        /* \"#utility.yul\":12495:12508   */\n      add\n        /* \"#utility.yul\":12486:12508   */\n      swap1\n      pop\n        /* \"#utility.yul\":12462:12582   */\n      jump(tag_305)\n    tag_307:\n        /* \"#utility.yul\":12402:12588   */\n      pop\n      pop\n      jump\t// out\n        /* \"#utility.yul\":12594:13137   */\n    tag_160:\n        /* \"#utility.yul\":12695:12697   */\n      0x1f\n        /* \"#utility.yul\":12690:12693   */\n      dup3\n        /* \"#utility.yul\":12687:12698   */\n      gt\n        /* \"#utility.yul\":12684:13130   */\n      iszero\n      tag_310\n      jumpi\n        /* \"#utility.yul\":12729:12767   */\n      tag_311\n        /* \"#utility.yul\":12761:12766   */\n      dup2\n        /* \"#utility.yul\":12729:12767   */\n      tag_149\n      jump\t// in\n    tag_311:\n        /* \"#utility.yul\":12813:12842   */\n      tag_312\n        /* \"#utility.yul\":12831:12841   */\n      dup5\n        /* \"#utility.yul\":12813:12842   */\n      tag_150\n      jump\t// in\n    tag_312:\n        /* \"#utility.yul\":12803:12811   */\n      dup2\n        /* \"#utility.yul\":12799:12843   */\n      add\n        /* \"#utility.yul\":12996:12998   */\n      0x20\n        /* \"#utility.yul\":12984:12994   */\n      dup6\n        /* \"#utility.yul\":12981:12999   */\n      lt\n        /* \"#utility.yul\":12978:13027   */\n      iszero\n      tag_313\n      jumpi\n        /* \"#utility.yul\":13017:13025   */\n      dup2\n        /* \"#utility.yul\":13002:13025   */\n      swap1\n      pop\n        /* \"#utility.yul\":12978:13027   */\n    tag_313:\n        /* \"#utility.yul\":13040:13120   */\n      tag_314\n        /* \"#utility.yul\":13096:13118   */\n      tag_315\n        /* \"#utility.yul\":13114:13117   */\n      dup6\n        /* \"#utility.yul\":13096:13118   */\n      tag_150\n      jump\t// in\n    tag_315:\n        /* \"#utility.yul\":13086:13094   */\n      dup4\n        /* \"#utility.yul\":13082:13119   */\n      add\n        /* \"#utility.yul\":13069:13080   */\n      dup3\n        /* \"#utility.yul\":13040:13120   */\n      tag_159\n      jump\t// in\n    tag_314:\n        /* \"#utility.yul\":12699:13130   */\n      pop\n      pop\n        /* \"#utility.yul\":12684:13130   */\n    tag_310:\n        /* \"#utility.yul\":12594:13137   */\n      pop\n      pop\n      pop\n      jump\t// out\n        /* \"#utility.yul\":13143:13260   */\n    tag_161:\n        /* \"#utility.yul\":13197:13205   */\n      0x00\n        /* \"#utility.yul\":13247:13252   */\n      dup3\n        /* \"#utility.yul\":13241:13245   */\n      dup3\n        /* \"#utility.yul\":13237:13253   */\n      shr\n        /* \"#utility.yul\":13216:13253   */\n      swap1\n      pop\n        /* \"#utility.yul\":13143:13260   */\n      swap3\n      swap2\n      pop\n      pop\n      jump\t// out\n        /* \"#utility.yul\":13266:13435   */\n    tag_162:\n        /* \"#utility.yul\":13310:13316   */\n      0x00\n        /* \"#utility.yul\":13343:13394   */\n      tag_318\n        /* \"#utility.yul\":13391:13392   */\n      0x00\n        /* \"#utility.yul\":13387:13393   */\n      not\n        /* \"#utility.yul\":13379:13384   */\n      dup5\n        /* \"#utility.yul\":13376:13377   */\n      0x08\n        /* \"#utility.yul\":13372:13385   */\n      mul\n        /* \"#utility.yul\":13343:13394   */\n      tag_161\n      jump\t// in\n    tag_318:\n        /* \"#utility.yul\":13339:13395   */\n      not\n        /* \"#utility.yul\":13424:13428   */\n      dup1\n        /* \"#utility.yul\":13418:13422   */\n      dup4\n        /* \"#utility.yul\":13414:13429   */\n      and\n        /* \"#utility.yul\":13404:13429   */\n      swap2\n      pop\n        /* \"#utility.yul\":13317:13435   */\n      pop\n        /* \"#utility.yul\":13266:13435   */\n      swap3\n      swap2\n      pop\n      pop\n      jump\t// out\n        /* \"#utility.yul\":13440:13735   */\n    tag_163:\n        /* \"#utility.yul\":13516:13520   */\n      0x00\n        /* \"#utility.yul\":13662:13691   */\n      tag_320\n        /* \"#utility.yul\":13687:13690   */\n      dup4\n        /* \"#utility.yul\":13681:13685   */\n      dup4\n        /* \"#utility.yul\":13662:13691   */\n      tag_162\n      jump\t// in\n    tag_320:\n        /* \"#utility.yul\":13654:13691   */\n      swap2\n      pop\n        /* \"#utility.yul\":13724:13727   */\n      dup3\n        /* \"#utility.yul\":13721:13722   */\n      0x02\n        /* \"#utility.yul\":13717:13728   */\n      mul\n        /* \"#utility.yul\":13711:13715   */\n      dup3\n        /* \"#utility.yul\":13708:13729   */\n      or\n        /* \"#utility.yul\":13700:13729   */\n      swap1\n      pop\n        /* \"#utility.yul\":13440:13735   */\n      swap3\n      swap2\n      pop\n      pop\n      jump\t// out\n        /* \"#utility.yul\":13740:15135   */\n    tag_39:\n        /* \"#utility.yul\":13857:13894   */\n      tag_322\n        /* \"#utility.yul\":13890:13893   */\n      dup3\n        /* \"#utility.yul\":13857:13894   */\n      tag_135\n      jump\t// in\n    tag_322:\n        /* \"#utility.yul\":13959:13977   */\n      0xffffffffffffffff\n        /* \"#utility.yul\":13951:13957   */\n      dup2\n        /* \"#utility.yul\":13948:13978   */\n      gt\n        /* \"#utility.yul\":13945:14001   */\n      iszero\n      tag_323\n      jumpi\n        /* \"#utility.yul\":13981:13999   */\n      tag_324\n      tag_118\n      jump\t// in\n    tag_324:\n        /* \"#utility.yul\":13945:14001   */\n    tag_323:\n        /* \"#utility.yul\":14025:14063   */\n      tag_325\n        /* \"#utility.yul\":14057:14061   */\n      dup3\n        /* \"#utility.yul\":14051:14062   */\n      sload\n        /* \"#utility.yul\":14025:14063   */\n      tag_49\n      jump\t// in\n    tag_325:\n        /* \"#utility.yul\":14110:14177   */\n      tag_326\n        /* \"#utility.yul\":14170:14176   */\n      dup3\n        /* \"#utility.yul\":14162:14168   */\n      dup3\n        /* \"#utility.yul\":14156:14160   */\n      dup6\n        /* \"#utility.yul\":14110:14177   */\n      tag_160\n      jump\t// in\n    tag_326:\n        /* \"#utility.yul\":14204:14205   */\n      0x00\n        /* \"#utility.yul\":14228:14232   */\n      0x20\n        /* \"#utility.yul\":14215:14232   */\n      swap1\n      pop\n        /* \"#utility.yul\":14260:14262   */\n      0x1f\n        /* \"#utility.yul\":14252:14258   */\n      dup4\n        /* \"#utility.yul\":14249:14263   */\n      gt\n        /* \"#utility.yul\":14277:14278   */\n      0x01\n        /* \"#utility.yul\":14272:14890   */\n      dup2\n      eq\n      tag_328\n      jumpi\n        /* \"#utility.yul\":14934:14935   */\n      0x00\n        /* \"#utility.yul\":14951:14957   */\n      dup5\n        /* \"#utility.yul\":14948:15025   */\n      iszero\n      tag_329\n      jumpi\n        /* \"#utility.yul\":15000:15009   */\n      dup3\n        /* \"#utility.yul\":14995:14998   */\n      dup8\n        /* \"#utility.yul\":14991:15010   */\n      add\n        /* \"#utility.yul\":14985:15011   */\n      mload\n        /* \"#utility.yul\":14976:15011   */\n      swap1\n      pop\n        /* \"#utility.yul\":14948:15025   */\n    tag_329:\n        /* \"#utility.yul\":15051:15118   */\n      tag_330\n        /* \"#utility.yul\":15111:15117   */\n      dup6\n        /* \"#utility.yul\":15104:15109   */\n      dup3\n        /* \"#utility.yul\":15051:15118   */\n      tag_163\n      jump\t// in\n    tag_330:\n        /* \"#utility.yul\":15045:15049   */\n      dup7\n        /* \"#utility.yul\":15038:15119   */\n      sstore\n        /* \"#utility.yul\":14907:15129   */\n      pop\n        /* \"#utility.yul\":14242:15129   */\n      jump(tag_327)\n        /* \"#utility.yul\":14272:14890   */\n    tag_328:\n        /* \"#utility.yul\":14324:14328   */\n      0x1f\n        /* \"#utility.yul\":14320:14329   */\n      not\n        /* \"#utility.yul\":14312:14318   */\n      dup5\n        /* \"#utility.yul\":14308:14330   */\n      and\n        /* \"#utility.yul\":14358:14395   */\n      tag_331\n        /* \"#utility.yul\":14390:14394   */\n      dup7\n        /* \"#utility.yul\":14358:14395   */\n      tag_149\n      jump\t// in\n    tag_331:\n        /* \"#utility.yul\":14417:14418   */\n      0x00\n        /* \"#utility.yul\":14431:14639   */\n    tag_332:\n        /* \"#utility.yul\":14445:14452   */\n      dup3\n        /* \"#utility.yul\":14442:14443   */\n      dup2\n        /* \"#utility.yul\":14439:14453   */\n      lt\n        /* \"#utility.yul\":14431:14639   */\n      iszero\n      tag_334\n      jumpi\n        /* \"#utility.yul\":14524:14533   */\n      dup5\n        /* \"#utility.yul\":14519:14522   */\n      dup10\n        /* \"#utility.yul\":14515:14534   */\n      add\n        /* \"#utility.yul\":14509:14535   */\n      mload\n        /* \"#utility.yul\":14501:14507   */\n      dup3\n        /* \"#utility.yul\":14494:14536   */\n      sstore\n        /* \"#utility.yul\":14575:14576   */\n      0x01\n        /* \"#utility.yul\":14567:14573   */\n      dup3\n        /* \"#utility.yul\":14563:14577   */\n      add\n        /* \"#utility.yul\":14553:14577   */\n      swap2\n      pop\n        /* \"#utility.yul\":14622:14624   */\n      0x20\n        /* \"#utility.yul\":14611:14620   */\n      dup6\n        /* \"#utility.yul\":14607:14625   */\n      add\n        /* \"#utility.yul\":14594:14625   */\n      swap5\n      pop\n        /* \"#utility.yul\":14468:14472   */\n      0x20\n        /* \"#utility.yul\":14465:14466   */\n      dup2\n        /* \"#utility.yul\":14461:14473   */\n      add\n        /* \"#utility.yul\":14456:14473   */\n      swap1\n      pop\n        /* \"#utility.yul\":14431:14639   */\n      jump(tag_332)\n    tag_334:\n        /* \"#utility.yul\":14667:14673   */\n      dup7\n        /* \"#utility.yul\":14658:14665   */\n      dup4\n        /* \"#utility.yul\":14655:14674   */\n      lt\n        /* \"#utility.yul\":14652:14831   */\n      iszero\n      tag_335\n      jumpi\n        /* \"#utility.yul\":14725:14734   */\n      dup5\n        /* \"#utility.yul\":14720:14723   */\n      dup10\n        /* \"#utility.yul\":14716:14735   */\n      add\n        /* \"#utility.yul\":14710:14736   */\n      mload\n        /* \"#utility.yul\":14768:14816   */\n      tag_336\n        /* \"#utility.yul\":14810:14814   */\n      0x1f\n        /* \"#utility.yul\":14802:14808   */\n      dup10\n        /* \"#utility.yul\":14798:14815   */\n      and\n        /* \"#utility.yul\":14787:14796   */\n      dup3\n        /* \"#utility.yul\":14768:14816   */\n      tag_162\n      jump\t// in\n    tag_336:\n        /* \"#utility.yul\":14760:14766   */\n      dup4\n        /* \"#utility.yul\":14753:14817   */\n      sstore\n        /* \"#utility.yul\":14675:14831   */\n      pop\n        /* \"#utility.yul\":14652:14831   */\n    tag_335:\n        /* \"#utility.yul\":14877:14878   */\n      0x01\n        /* \"#utility.yul\":14873:14874   */\n      0x02\n        /* \"#utility.yul\":14865:14871   */\n      dup9\n        /* \"#utility.yul\":14861:14875   */\n      mul\n        /* \"#utility.yul\":14857:14879   */\n      add\n        /* \"#utility.yul\":14851:14855   */\n      dup9\n        /* \"#utility.yul\":14844:14880   */\n      sstore\n        /* \"#utility.yul\":14279:14890   */\n      pop\n      pop\n      pop\n        /* \"#utility.yul\":14242:15129   */\n    tag_327:\n      pop\n        /* \"#utility.yul\":13832:15135   */\n      pop\n      pop\n      pop\n        /* \"#utility.yul\":13740:15135   */\n      pop\n      pop\n      jump\t// out\n        /* \"#utility.yul\":15141:15518   */\n    tag_164:\n        /* \"#utility.yul\":15229:15232   */\n      0x00\n        /* \"#utility.yul\":15257:15296   */\n      tag_338\n        /* \"#utility.yul\":15290:15295   */\n      dup3\n        /* \"#utility.yul\":15257:15296   */\n      tag_135\n      jump\t// in\n    tag_338:\n        /* \"#utility.yul\":15312:15383   */\n      tag_339\n        /* \"#utility.yul\":15376:15382   */\n      dup2\n        /* \"#utility.yul\":15371:15374   */\n      dup6\n        /* \"#utility.yul\":15312:15383   */\n      tag_145\n      jump\t// in\n    tag_339:\n        /* \"#utility.yul\":15305:15383   */\n      swap4\n      pop\n        /* \"#utility.yul\":15392:15457   */\n      tag_340\n        /* \"#utility.yul\":15450:15456   */\n      dup2\n        /* \"#utility.yul\":15445:15448   */\n      dup6\n        /* \"#utility.yul\":15438:15442   */\n      0x20\n        /* \"#utility.yul\":15431:15436   */\n      dup7\n        /* \"#utility.yul\":15427:15443   */\n      add\n        /* \"#utility.yul\":15392:15457   */\n      tag_137\n      jump\t// in\n    tag_340:\n        /* \"#utility.yul\":15482:15511   */\n      tag_341\n        /* \"#utility.yul\":15504:15510   */\n      dup2\n        /* \"#utility.yul\":15482:15511   */\n      tag_117\n      jump\t// in\n    tag_341:\n        /* \"#utility.yul\":15477:15480   */\n      dup5\n        /* \"#utility.yul\":15473:15512   */\n      add\n        /* \"#utility.yul\":15466:15512   */\n      swap2\n      pop\n        /* \"#utility.yul\":15233:15518   */\n      pop\n        /* \"#utility.yul\":15141:15518   */\n      swap3\n      swap2\n      pop\n      pop\n      jump\t// out\n        /* \"#utility.yul\":15524:15947   */\n    tag_43:\n        /* \"#utility.yul\":15665:15669   */\n      0x00\n        /* \"#utility.yul\":15703:15705   */\n      0x40\n        /* \"#utility.yul\":15692:15701   */\n      dup3\n        /* \"#utility.yul\":15688:15706   */\n      add\n        /* \"#utility.yul\":15680:15706   */\n      swap1\n      pop\n        /* \"#utility.yul\":15752:15761   */\n      dup2\n        /* \"#utility.yul\":15746:15750   */\n      dup2\n        /* \"#utility.yul\":15742:15762   */\n      sub\n        /* \"#utility.yul\":15738:15739   */\n      0x00\n        /* \"#utility.yul\":15727:15736   */\n      dup4\n        /* \"#utility.yul\":15723:15740   */\n      add\n        /* \"#utility.yul\":15716:15763   */\n      mstore\n        /* \"#utility.yul\":15780:15858   */\n      tag_343\n        /* \"#utility.yul\":15853:15857   */\n      dup2\n        /* \"#utility.yul\":15844:15850   */\n      dup6\n        /* \"#utility.yul\":15780:15858   */\n      tag_164\n      jump\t// in\n    tag_343:\n        /* \"#utility.yul\":15772:15858   */\n      swap1\n      pop\n        /* \"#utility.yul\":15868:15940   */\n      tag_344\n        /* \"#utility.yul\":15936:15938   */\n      0x20\n        /* \"#utility.yul\":15925:15934   */\n      dup4\n        /* \"#utility.yul\":15921:15939   */\n      add\n        /* \"#utility.yul\":15912:15918   */\n      dup5\n        /* \"#utility.yul\":15868:15940   */\n      tag_142\n      jump\t// in\n    tag_344:\n        /* \"#utility.yul\":15524:15947   */\n      swap4\n      swap3\n      pop\n      pop\n      pop\n      jump\t// out\n        /* \"#utility.yul\":15953:16121   */\n    tag_165:\n        /* \"#utility.yul\":16093:16113   */\n      0x4e465420646f6573206e6f742065786973740000000000000000000000000000\n        /* \"#utility.yul\":16089:16090   */\n      0x00\n        /* \"#utility.yul\":16081:16087   */\n      dup3\n        /* \"#utility.yul\":16077:16091   */\n      add\n        /* \"#utility.yul\":16070:16114   */\n      mstore\n        /* \"#utility.yul\":15953:16121   */\n      pop\n      jump\t// out\n        /* \"#utility.yul\":16127:16493   */\n    tag_166:\n        /* \"#utility.yul\":16269:16272   */\n      0x00\n        /* \"#utility.yul\":16290:16357   */\n      tag_347\n        /* \"#utility.yul\":16354:16356   */\n      0x12\n        /* \"#utility.yul\":16349:16352   */\n      dup4\n        /* \"#utility.yul\":16290:16357   */\n      tag_145\n      jump\t// in\n    tag_347:\n        /* \"#utility.yul\":16283:16357   */\n      swap2\n      pop\n        /* \"#utility.yul\":16366:16459   */\n      tag_348\n        /* \"#utility.yul\":16455:16458   */\n      dup3\n        /* \"#utility.yul\":16366:16459   */\n      tag_165\n      jump\t// in\n    tag_348:\n        /* \"#utility.yul\":16484:16486   */\n      0x20\n        /* \"#utility.yul\":16479:16482   */\n      dup3\n        /* \"#utility.yul\":16475:16487   */\n      add\n        /* \"#utility.yul\":16468:16487   */\n      swap1\n      pop\n        /* \"#utility.yul\":16127:16493   */\n      swap2\n      swap1\n      pop\n      jump\t// out\n        /* \"#utility.yul\":16499:16918   */\n    tag_58:\n        /* \"#utility.yul\":16665:16669   */\n      0x00\n        /* \"#utility.yul\":16703:16705   */\n      0x20\n        /* \"#utility.yul\":16692:16701   */\n      dup3\n        /* \"#utility.yul\":16688:16706   */\n      add\n        /* \"#utility.yul\":16680:16706   */\n      swap1\n      pop\n        /* \"#utility.yul\":16752:16761   */\n      dup2\n        /* \"#utility.yul\":16746:16750   */\n      dup2\n        /* \"#utility.yul\":16742:16762   */\n      sub\n        /* \"#utility.yul\":16738:16739   */\n      0x00\n        /* \"#utility.yul\":16727:16736   */\n      dup4\n        /* \"#utility.yul\":16723:16740   */\n      add\n        /* \"#utility.yul\":16716:16763   */\n      mstore\n        /* \"#utility.yul\":16780:16911   */\n      tag_350\n        /* \"#utility.yul\":16906:16910   */\n      dup2\n        /* \"#utility.yul\":16780:16911   */\n      tag_166\n      jump\t// in\n    tag_350:\n        /* \"#utility.yul\":16772:16911   */\n      swap1\n      pop\n        /* \"#utility.yul\":16499:16918   */\n      swap2\n      swap1\n      pop\n      jump\t// out\n        /* \"#utility.yul\":16924:17098   */\n    tag_167:\n        /* \"#utility.yul\":17064:17090   */\n      0x596f7520616c7265616479206f776e2074686973204e46540000000000000000\n        /* \"#utility.yul\":17060:17061   */\n      0x00\n        /* \"#utility.yul\":17052:17058   */\n      dup3\n        /* \"#utility.yul\":17048:17062   */\n      add\n        /* \"#utility.yul\":17041:17091   */\n      mstore\n        /* \"#utility.yul\":16924:17098   */\n      pop\n      jump\t// out\n        /* \"#utility.yul\":17104:17470   */\n    tag_168:\n        /* \"#utility.yul\":17246:17249   */\n      0x00\n        /* \"#utility.yul\":17267:17334   */\n      tag_353\n        /* \"#utility.yul\":17331:17333   */\n      0x18\n        /* \"#utility.yul\":17326:17329   */\n      dup4\n        /* \"#utility.yul\":17267:17334   */\n      tag_145\n      jump\t// in\n    tag_353:\n        /* \"#utility.yul\":17260:17334   */\n      swap2\n      pop\n        /* \"#utility.yul\":17343:17436   */\n      tag_354\n        /* \"#utility.yul\":17432:17435   */\n      dup3\n        /* \"#utility.yul\":17343:17436   */\n      tag_167\n      jump\t// in\n    tag_354:\n        /* \"#utility.yul\":17461:17463   */\n      0x20\n        /* \"#utility.yul\":17456:17459   */\n      dup3\n        /* \"#utility.yul\":17452:17464   */\n      add\n        /* \"#utility.yul\":17445:17464   */\n      swap1\n      pop\n        /* \"#utility.yul\":17104:17470   */\n      swap2\n      swap1\n      pop\n      jump\t// out\n        /* \"#utility.yul\":17476:17895   */\n    tag_61:\n        /* \"#utility.yul\":17642:17646   */\n      0x00\n        /* \"#utility.yul\":17680:17682   */\n      0x20\n        /* \"#utility.yul\":17669:17678   */\n      dup3\n        /* \"#utility.yul\":17665:17683   */\n      add\n        /* \"#utility.yul\":17657:17683   */\n      swap1\n      pop\n        /* \"#utility.yul\":17729:17738   */\n      dup2\n        /* \"#utility.yul\":17723:17727   */\n      dup2\n        /* \"#utility.yul\":17719:17739   */\n      sub\n        /* \"#utility.yul\":17715:17716   */\n      0x00\n        /* \"#utility.yul\":17704:17713   */\n      dup4\n        /* \"#utility.yul\":17700:17717   */\n      add\n        /* \"#utility.yul\":17693:17740   */\n      mstore\n        /* \"#utility.yul\":17757:17888   */\n      tag_356\n        /* \"#utility.yul\":17883:17887   */\n      dup2\n        /* \"#utility.yul\":17757:17888   */\n      tag_168\n      jump\t// in\n    tag_356:\n        /* \"#utility.yul\":17749:17888   */\n      swap1\n      pop\n        /* \"#utility.yul\":17476:17895   */\n      swap2\n      swap1\n      pop\n      jump\t// out\n        /* \"#utility.yul\":17901:18081   */\n    tag_169:\n        /* \"#utility.yul\":17949:18026   */\n      0x4e487b7100000000000000000000000000000000000000000000000000000000\n        /* \"#utility.yul\":17946:17947   */\n      0x00\n        /* \"#utility.yul\":17939:18027   */\n      mstore\n        /* \"#utility.yul\":18046:18050   */\n      0x11\n        /* \"#utility.yul\":18043:18044   */\n      0x04\n        /* \"#utility.yul\":18036:18051   */\n      mstore\n        /* \"#utility.yul\":18070:18074   */\n      0x24\n        /* \"#utility.yul\":18067:18068   */\n      0x00\n        /* \"#utility.yul\":18060:18075   */\n      revert\n        /* \"#utility.yul\":18087:18497   */\n    tag_69:\n        /* \"#utility.yul\":18127:18134   */\n      0x00\n        /* \"#utility.yul\":18150:18170   */\n      tag_359\n        /* \"#utility.yul\":18168:18169   */\n      dup3\n        /* \"#utility.yul\":18150:18170   */\n      tag_125\n      jump\t// in\n    tag_359:\n        /* \"#utility.yul\":18145:18170   */\n      swap2\n      pop\n        /* \"#utility.yul\":18184:18204   */\n      tag_360\n        /* \"#utility.yul\":18202:18203   */\n      dup4\n        /* \"#utility.yul\":18184:18204   */\n      tag_125\n      jump\t// in\n    tag_360:\n        /* \"#utility.yul\":18179:18204   */\n      swap3\n      pop\n        /* \"#utility.yul\":18239:18240   */\n      dup3\n        /* \"#utility.yul\":18236:18237   */\n      dup3\n        /* \"#utility.yul\":18232:18241   */\n      mul\n        /* \"#utility.yul\":18261:18291   */\n      tag_361\n        /* \"#utility.yul\":18279:18290   */\n      dup2\n        /* \"#utility.yul\":18261:18291   */\n      tag_125\n      jump\t// in\n    tag_361:\n        /* \"#utility.yul\":18250:18291   */\n      swap2\n      pop\n        /* \"#utility.yul\":18440:18441   */\n      dup3\n        /* \"#utility.yul\":18431:18438   */\n      dup3\n        /* \"#utility.yul\":18427:18442   */\n      div\n        /* \"#utility.yul\":18424:18425   */\n      dup5\n        /* \"#utility.yul\":18421:18443   */\n      eq\n        /* \"#utility.yul\":18401:18402   */\n      dup4\n        /* \"#utility.yul\":18394:18403   */\n      iszero\n        /* \"#utility.yul\":18374:18457   */\n      or\n        /* \"#utility.yul\":18351:18490   */\n      tag_362\n      jumpi\n        /* \"#utility.yul\":18470:18488   */\n      tag_363\n      tag_169\n      jump\t// in\n    tag_363:\n        /* \"#utility.yul\":18351:18490   */\n    tag_362:\n        /* \"#utility.yul\":18135:18497   */\n      pop\n        /* \"#utility.yul\":18087:18497   */\n      swap3\n      swap2\n      pop\n      pop\n      jump\t// out\n        /* \"#utility.yul\":18503:18683   */\n    tag_84:\n        /* \"#utility.yul\":18551:18628   */\n      0x4e487b7100000000000000000000000000000000000000000000000000000000\n        /* \"#utility.yul\":18548:18549   */\n      0x00\n        /* \"#utility.yul\":18541:18629   */\n      mstore\n        /* \"#utility.yul\":18648:18652   */\n      0x32\n        /* \"#utility.yul\":18645:18646   */\n      0x04\n        /* \"#utility.yul\":18638:18653   */\n      mstore\n        /* \"#utility.yul\":18672:18676   */\n      0x24\n        /* \"#utility.yul\":18669:18670   */\n      0x00\n        /* \"#utility.yul\":18662:18677   */\n      revert\n        /* \"#utility.yul\":18689:18836   */\n    tag_170:\n        /* \"#utility.yul\":18790:18801   */\n      0x00\n        /* \"#utility.yul\":18827:18830   */\n      dup2\n        /* \"#utility.yul\":18812:18830   */\n      swap1\n      pop\n        /* \"#utility.yul\":18689:18836   */\n      swap3\n      swap2\n      pop\n      pop\n      jump\t// out\n        /* \"#utility.yul\":18842:18986   */\n    tag_171:\n        /* \"#utility.yul\":18894:18898   */\n      0x00\n        /* \"#utility.yul\":18917:18920   */\n      dup2\n        /* \"#utility.yul\":18909:18920   */\n      swap1\n      pop\n        /* \"#utility.yul\":18940:18943   */\n      dup2\n        /* \"#utility.yul\":18937:18938   */\n      0x00\n        /* \"#utility.yul\":18930:18944   */\n      mstore\n        /* \"#utility.yul\":18974:18978   */\n      0x20\n        /* \"#utility.yul\":18971:18972   */\n      0x00\n        /* \"#utility.yul\":18961:18979   */\n      keccak256\n        /* \"#utility.yul\":18953:18979   */\n      swap1\n      pop\n        /* \"#utility.yul\":18842:18986   */\n      swap2\n      swap1\n      pop\n      jump\t// out\n        /* \"#utility.yul\":19014:19892   */\n    tag_172:\n        /* \"#utility.yul\":19119:19122   */\n      0x00\n        /* \"#utility.yul\":19156:19161   */\n      dup2\n        /* \"#utility.yul\":19150:19162   */\n      sload\n        /* \"#utility.yul\":19185:19221   */\n      tag_368\n        /* \"#utility.yul\":19211:19220   */\n      dup2\n        /* \"#utility.yul\":19185:19221   */\n      tag_49\n      jump\t// in\n    tag_368:\n        /* \"#utility.yul\":19237:19325   */\n      tag_369\n        /* \"#utility.yul\":19318:19324   */\n      dup2\n        /* \"#utility.yul\":19313:19316   */\n      dup7\n        /* \"#utility.yul\":19237:19325   */\n      tag_170\n      jump\t// in\n    tag_369:\n        /* \"#utility.yul\":19230:19325   */\n      swap5\n      pop\n        /* \"#utility.yul\":19356:19357   */\n      0x01\n        /* \"#utility.yul\":19345:19354   */\n      dup3\n        /* \"#utility.yul\":19341:19358   */\n      and\n        /* \"#utility.yul\":19372:19373   */\n      0x00\n        /* \"#utility.yul\":19367:19533   */\n      dup2\n      eq\n      tag_371\n      jumpi\n        /* \"#utility.yul\":19547:19548   */\n      0x01\n        /* \"#utility.yul\":19542:19886   */\n      dup2\n      eq\n      tag_372\n      jumpi\n        /* \"#utility.yul\":19334:19886   */\n      jump(tag_370)\n        /* \"#utility.yul\":19367:19533   */\n    tag_371:\n        /* \"#utility.yul\":19451:19455   */\n      0xff\n        /* \"#utility.yul\":19447:19456   */\n      not\n        /* \"#utility.yul\":19436:19445   */\n      dup4\n        /* \"#utility.yul\":19432:19457   */\n      and\n        /* \"#utility.yul\":19427:19430   */\n      dup7\n        /* \"#utility.yul\":19420:19458   */\n      mstore\n        /* \"#utility.yul\":19513:19519   */\n      dup2\n        /* \"#utility.yul\":19506:19520   */\n      iszero\n        /* \"#utility.yul\":19499:19521   */\n      iszero\n        /* \"#utility.yul\":19491:19497   */\n      dup3\n        /* \"#utility.yul\":19487:19522   */\n      mul\n        /* \"#utility.yul\":19482:19485   */\n      dup7\n        /* \"#utility.yul\":19478:19523   */\n      add\n        /* \"#utility.yul\":19471:19523   */\n      swap4\n      pop\n        /* \"#utility.yul\":19367:19533   */\n      jump(tag_370)\n        /* \"#utility.yul\":19542:19886   */\n    tag_372:\n        /* \"#utility.yul\":19609:19650   */\n      tag_373\n        /* \"#utility.yul\":19644:19649   */\n      dup6\n        /* \"#utility.yul\":19609:19650   */\n      tag_171\n      jump\t// in\n    tag_373:\n        /* \"#utility.yul\":19672:19673   */\n      0x00\n        /* \"#utility.yul\":19686:19840   */\n    tag_374:\n        /* \"#utility.yul\":19700:19706   */\n      dup4\n        /* \"#utility.yul\":19697:19698   */\n      dup2\n        /* \"#utility.yul\":19694:19707   */\n      lt\n        /* \"#utility.yul\":19686:19840   */\n      iszero\n      tag_376\n      jumpi\n        /* \"#utility.yul\":19774:19781   */\n      dup2\n        /* \"#utility.yul\":19768:19782   */\n      sload\n        /* \"#utility.yul\":19764:19765   */\n      dup2\n        /* \"#utility.yul\":19759:19762   */\n      dup10\n        /* \"#utility.yul\":19755:19766   */\n      add\n        /* \"#utility.yul\":19748:19783   */\n      mstore\n        /* \"#utility.yul\":19824:19825   */\n      0x01\n        /* \"#utility.yul\":19815:19822   */\n      dup3\n        /* \"#utility.yul\":19811:19826   */\n      add\n        /* \"#utility.yul\":19800:19826   */\n      swap2\n      pop\n        /* \"#utility.yul\":19722:19726   */\n      0x20\n        /* \"#utility.yul\":19719:19720   */\n      dup2\n        /* \"#utility.yul\":19715:19727   */\n      add\n        /* \"#utility.yul\":19710:19727   */\n      swap1\n      pop\n        /* \"#utility.yul\":19686:19840   */\n      jump(tag_374)\n    tag_376:\n        /* \"#utility.yul\":19869:19875   */\n      dup4\n        /* \"#utility.yul\":19864:19867   */\n      dup9\n        /* \"#utility.yul\":19860:19876   */\n      add\n        /* \"#utility.yul\":19853:19876   */\n      swap6\n      pop\n        /* \"#utility.yul\":19549:19886   */\n      pop\n      pop\n        /* \"#utility.yul\":19334:19886   */\n    tag_370:\n      pop\n        /* \"#utility.yul\":19123:19892   */\n      pop\n      pop\n        /* \"#utility.yul\":19014:19892   */\n      swap3\n      swap2\n      pop\n      pop\n      jump\t// out\n        /* \"#utility.yul\":19898:20171   */\n    tag_87:\n        /* \"#utility.yul\":20029:20032   */\n      0x00\n        /* \"#utility.yul\":20051:20145   */\n      tag_378\n        /* \"#utility.yul\":20141:20144   */\n      dup3\n        /* \"#utility.yul\":20132:20138   */\n      dup5\n        /* \"#utility.yul\":20051:20145   */\n      tag_172\n      jump\t// in\n    tag_378:\n        /* \"#utility.yul\":20044:20145   */\n      swap2\n      pop\n        /* \"#utility.yul\":20162:20165   */\n      dup2\n        /* \"#utility.yul\":20155:20165   */\n      swap1\n      pop\n        /* \"#utility.yul\":19898:20171   */\n      swap3\n      swap2\n      pop\n      pop\n      jump\t// out\n        /* \"#utility.yul\":20177:20371   */\n    tag_90:\n        /* \"#utility.yul\":20217:20221   */\n      0x00\n        /* \"#utility.yul\":20237:20257   */\n      tag_380\n        /* \"#utility.yul\":20255:20256   */\n      dup3\n        /* \"#utility.yul\":20237:20257   */\n      tag_125\n      jump\t// in\n    tag_380:\n        /* \"#utility.yul\":20232:20257   */\n      swap2\n      pop\n        /* \"#utility.yul\":20271:20291   */\n      tag_381\n        /* \"#utility.yul\":20289:20290   */\n      dup4\n        /* \"#utility.yul\":20271:20291   */\n      tag_125\n      jump\t// in\n    tag_381:\n        /* \"#utility.yul\":20266:20291   */\n      swap3\n      pop\n        /* \"#utility.yul\":20315:20316   */\n      dup3\n        /* \"#utility.yul\":20312:20313   */\n      dup3\n        /* \"#utility.yul\":20308:20317   */\n      sub\n        /* \"#utility.yul\":20300:20317   */\n      swap1\n      pop\n        /* \"#utility.yul\":20339:20340   */\n      dup2\n        /* \"#utility.yul\":20333:20337   */\n      dup2\n        /* \"#utility.yul\":20330:20341   */\n      gt\n        /* \"#utility.yul\":20327:20364   */\n      iszero\n      tag_382\n      jumpi\n        /* \"#utility.yul\":20344:20362   */\n      tag_383\n      tag_169\n      jump\t// in\n    tag_383:\n        /* \"#utility.yul\":20327:20364   */\n    tag_382:\n        /* \"#utility.yul\":20177:20371   */\n      swap3\n      swap2\n      pop\n      pop\n      jump\t// out\n        /* \"#utility.yul\":20377:20530   */\n    tag_173:\n        /* \"#utility.yul\":20430:20436   */\n      0x00\n        /* \"#utility.yul\":20464:20469   */\n      dup2\n        /* \"#utility.yul\":20458:20470   */\n      sload\n        /* \"#utility.yul\":20448:20470   */\n      swap1\n      pop\n        /* \"#utility.yul\":20490:20523   */\n      tag_385\n        /* \"#utility.yul\":20516:20522   */\n      dup2\n        /* \"#utility.yul\":20490:20523   */\n      tag_49\n      jump\t// in\n    tag_385:\n        /* \"#utility.yul\":20480:20523   */\n      swap1\n      pop\n        /* \"#utility.yul\":20377:20530   */\n      swap2\n      swap1\n      pop\n      jump\t// out\n        /* \"#utility.yul\":20536:20681   */\n    tag_174:\n        /* \"#utility.yul\":20589:20593   */\n      0x00\n        /* \"#utility.yul\":20612:20615   */\n      dup2\n        /* \"#utility.yul\":20604:20615   */\n      swap1\n      pop\n        /* \"#utility.yul\":20635:20638   */\n      dup2\n        /* \"#utility.yul\":20632:20633   */\n      0x00\n        /* \"#utility.yul\":20625:20639   */\n      mstore\n        /* \"#utility.yul\":20669:20673   */\n      0x20\n        /* \"#utility.yul\":20666:20667   */\n      0x00\n        /* \"#utility.yul\":20656:20674   */\n      keccak256\n        /* \"#utility.yul\":20648:20674   */\n      swap1\n      pop\n        /* \"#utility.yul\":20536:20681   */\n      swap2\n      swap1\n      pop\n      jump\t// out\n        /* \"#utility.yul\":20687:22150   */\n    tag_98:\n        /* \"#utility.yul\":20802:20805   */\n      dup2\n        /* \"#utility.yul\":20796:20800   */\n      dup2\n        /* \"#utility.yul\":20793:20806   */\n      sub\n        /* \"#utility.yul\":20790:20816   */\n      tag_388\n      jumpi\n        /* \"#utility.yul\":20809:20814   */\n      pop\n      pop\n      jump(tag_387)\n        /* \"#utility.yul\":20790:20816   */\n    tag_388:\n        /* \"#utility.yul\":20840:20878   */\n      tag_389\n        /* \"#utility.yul\":20874:20877   */\n      dup3\n        /* \"#utility.yul\":20840:20878   */\n      tag_173\n      jump\t// in\n    tag_389:\n        /* \"#utility.yul\":20943:20961   */\n      0xffffffffffffffff\n        /* \"#utility.yul\":20935:20941   */\n      dup2\n        /* \"#utility.yul\":20932:20962   */\n      gt\n        /* \"#utility.yul\":20929:20985   */\n      iszero\n      tag_390\n      jumpi\n        /* \"#utility.yul\":20965:20983   */\n      tag_391\n      tag_118\n      jump\t// in\n    tag_391:\n        /* \"#utility.yul\":20929:20985   */\n    tag_390:\n        /* \"#utility.yul\":21009:21047   */\n      tag_392\n        /* \"#utility.yul\":21041:21045   */\n      dup3\n        /* \"#utility.yul\":21035:21046   */\n      sload\n        /* \"#utility.yul\":21009:21047   */\n      tag_49\n      jump\t// in\n    tag_392:\n        /* \"#utility.yul\":21094:21161   */\n      tag_393\n        /* \"#utility.yul\":21154:21160   */\n      dup3\n        /* \"#utility.yul\":21146:21152   */\n      dup3\n        /* \"#utility.yul\":21140:21144   */\n      dup6\n        /* \"#utility.yul\":21094:21161   */\n      tag_160\n      jump\t// in\n    tag_393:\n        /* \"#utility.yul\":21188:21189   */\n      0x00\n        /* \"#utility.yul\":21217:21219   */\n      0x1f\n        /* \"#utility.yul\":21209:21215   */\n      dup4\n        /* \"#utility.yul\":21206:21220   */\n      gt\n        /* \"#utility.yul\":21234:21235   */\n      0x01\n        /* \"#utility.yul\":21229:21905   */\n      dup2\n      eq\n      tag_395\n      jumpi\n        /* \"#utility.yul\":21949:21950   */\n      0x00\n        /* \"#utility.yul\":21966:21972   */\n      dup5\n        /* \"#utility.yul\":21963:22040   */\n      iszero\n      tag_396\n      jumpi\n        /* \"#utility.yul\":22015:22024   */\n      dup3\n        /* \"#utility.yul\":22010:22013   */\n      dup8\n        /* \"#utility.yul\":22006:22025   */\n      add\n        /* \"#utility.yul\":22000:22026   */\n      sload\n        /* \"#utility.yul\":21991:22026   */\n      swap1\n      pop\n        /* \"#utility.yul\":21963:22040   */\n    tag_396:\n        /* \"#utility.yul\":22066:22133   */\n      tag_397\n        /* \"#utility.yul\":22126:22132   */\n      dup6\n        /* \"#utility.yul\":22119:22124   */\n      dup3\n        /* \"#utility.yul\":22066:22133   */\n      tag_163\n      jump\t// in\n    tag_397:\n        /* \"#utility.yul\":22060:22064   */\n      dup7\n        /* \"#utility.yul\":22053:22134   */\n      sstore\n        /* \"#utility.yul\":21922:22144   */\n      pop\n        /* \"#utility.yul\":21199:22144   */\n      jump(tag_394)\n        /* \"#utility.yul\":21229:21905   */\n    tag_395:\n        /* \"#utility.yul\":21281:21285   */\n      0x1f\n        /* \"#utility.yul\":21277:21286   */\n      not\n        /* \"#utility.yul\":21269:21275   */\n      dup5\n        /* \"#utility.yul\":21265:21287   */\n      and\n        /* \"#utility.yul\":21307:21347   */\n      tag_398\n        /* \"#utility.yul\":21343:21346   */\n      dup8\n        /* \"#utility.yul\":21307:21347   */\n      tag_174\n      jump\t// in\n    tag_398:\n        /* \"#utility.yul\":21300:21347   */\n      swap7\n      pop\n        /* \"#utility.yul\":21374:21411   */\n      tag_399\n        /* \"#utility.yul\":21406:21410   */\n      dup7\n        /* \"#utility.yul\":21374:21411   */\n      tag_149\n      jump\t// in\n    tag_399:\n        /* \"#utility.yul\":21433:21434   */\n      0x00\n        /* \"#utility.yul\":21447:21654   */\n    tag_400:\n        /* \"#utility.yul\":21461:21468   */\n      dup3\n        /* \"#utility.yul\":21458:21459   */\n      dup2\n        /* \"#utility.yul\":21455:21469   */\n      lt\n        /* \"#utility.yul\":21447:21654   */\n      iszero\n      tag_402\n      jumpi\n        /* \"#utility.yul\":21540:21549   */\n      dup5\n        /* \"#utility.yul\":21535:21538   */\n      dup10\n        /* \"#utility.yul\":21531:21550   */\n      add\n        /* \"#utility.yul\":21525:21551   */\n      sload\n        /* \"#utility.yul\":21517:21523   */\n      dup3\n        /* \"#utility.yul\":21510:21552   */\n      sstore\n        /* \"#utility.yul\":21591:21592   */\n      0x01\n        /* \"#utility.yul\":21583:21589   */\n      dup3\n        /* \"#utility.yul\":21579:21593   */\n      add\n        /* \"#utility.yul\":21569:21593   */\n      swap2\n      pop\n        /* \"#utility.yul\":21638:21639   */\n      0x01\n        /* \"#utility.yul\":21627:21636   */\n      dup6\n        /* \"#utility.yul\":21623:21640   */\n      add\n        /* \"#utility.yul\":21610:21640   */\n      swap5\n      pop\n        /* \"#utility.yul\":21484:21488   */\n      0x20\n        /* \"#utility.yul\":21481:21482   */\n      dup2\n        /* \"#utility.yul\":21477:21489   */\n      add\n        /* \"#utility.yul\":21472:21489   */\n      swap1\n      pop\n        /* \"#utility.yul\":21447:21654   */\n      jump(tag_400)\n    tag_402:\n        /* \"#utility.yul\":21682:21688   */\n      dup7\n        /* \"#utility.yul\":21673:21680   */\n      dup4\n        /* \"#utility.yul\":21670:21689   */\n      lt\n        /* \"#utility.yul\":21667:21846   */\n      iszero\n      tag_403\n      jumpi\n        /* \"#utility.yul\":21740:21749   */\n      dup5\n        /* \"#utility.yul\":21735:21738   */\n      dup10\n        /* \"#utility.yul\":21731:21750   */\n      add\n        /* \"#utility.yul\":21725:21751   */\n      sload\n        /* \"#utility.yul\":21783:21831   */\n      tag_404\n        /* \"#utility.yul\":21825:21829   */\n      0x1f\n        /* \"#utility.yul\":21817:21823   */\n      dup10\n        /* \"#utility.yul\":21813:21830   */\n      and\n        /* \"#utility.yul\":21802:21811   */\n      dup3\n        /* \"#utility.yul\":21783:21831   */\n      tag_162\n      jump\t// in\n    tag_404:\n        /* \"#utility.yul\":21775:21781   */\n      dup4\n        /* \"#utility.yul\":21768:21832   */\n      sstore\n        /* \"#utility.yul\":21690:21846   */\n      pop\n        /* \"#utility.yul\":21667:21846   */\n    tag_403:\n        /* \"#utility.yul\":21892:21893   */\n      0x01\n        /* \"#utility.yul\":21888:21889   */\n      0x02\n        /* \"#utility.yul\":21880:21886   */\n      dup9\n        /* \"#utility.yul\":21876:21890   */\n      mul\n        /* \"#utility.yul\":21872:21894   */\n      add\n        /* \"#utility.yul\":21866:21870   */\n      dup9\n        /* \"#utility.yul\":21859:21895   */\n      sstore\n        /* \"#utility.yul\":21236:21905   */\n      pop\n      pop\n      pop\n        /* \"#utility.yul\":21199:22144   */\n    tag_394:\n      pop\n        /* \"#utility.yul\":20780:22150   */\n      pop\n      pop\n      pop\n        /* \"#utility.yul\":20687:22150   */\n      pop\n      pop\n    tag_387:\n      jump\t// out\n        /* \"#utility.yul\":22156:22336   */\n    tag_101:\n        /* \"#utility.yul\":22204:22281   */\n      0x4e487b7100000000000000000000000000000000000000000000000000000000\n        /* \"#utility.yul\":22201:22202   */\n      0x00\n        /* \"#utility.yul\":22194:22282   */\n      mstore\n        /* \"#utility.yul\":22301:22305   */\n      0x31\n        /* \"#utility.yul\":22298:22299   */\n      0x04\n        /* \"#utility.yul\":22291:22306   */\n      mstore\n        /* \"#utility.yul\":22325:22329   */\n      0x24\n        /* \"#utility.yul\":22322:22323   */\n      0x00\n        /* \"#utility.yul\":22315:22330   */\n      revert\n\n    auxdata: 0xa264697066735822122088fb14b205055330272812052ec2d6a3bb422eb46affb909815102f198aefab064736f6c634300081e0033\n}\n",
				"bytecode": {
					"linkReferences": {},
					"object": "6080604052348015600e575f5ffd5b506114ea8061001c5f395ff3fe608060405260043610610042575f3560e01c8063056b01ce1461004d57806316923a2f1461007557806387972862146100b1578063c4a70945146100cd57610049565b3661004957005b5f5ffd5b348015610058575f5ffd5b50610073600480360381019061006e9190610aa8565b610109565b005b348015610080575f5ffd5b5061009b60048036038101906100969190610b5c565b6102f3565b6040516100a89190610ca2565b60405180910390f35b6100cb60048036038101906100c69190610cc2565b610403565b005b3480156100d8575f5ffd5b506100f360048036038101906100ee9190610cc2565b6106d7565b6040516101009190610d18565b60405180910390f35b5f73ffffffffffffffffffffffffffffffffffffffff166002836040516101309190610d6b565b90815260200160405180910390205f9054906101000a900473ffffffffffffffffffffffffffffffffffffffff1673ffffffffffffffffffffffffffffffffffffffff16146101b4576040517f08c379a00000000000000000000000000000000000000000000000000000000081526004016101ab90610ddb565b60405180910390fd5b5f5f3373ffffffffffffffffffffffffffffffffffffffff1673ffffffffffffffffffffffffffffffffffffffff1681526020019081526020015f2082908060018154018082558091505060019003905f5260205f20015f90919091909150908161021f9190610ff6565b50806001836040516102319190610d6b565b908152602001604051809103902081905550336002836040516102549190610d6b565b90815260200160405180910390205f6101000a81548173ffffffffffffffffffffffffffffffffffffffff021916908373ffffffffffffffffffffffffffffffffffffffff1602179055503373ffffffffffffffffffffffffffffffffffffffff167fec4de1eef14af3ae5d77facf1ed7a9d3d50f6285573ee0ec155fc11217fc344283836040516102e79291906110fd565b60405180910390a25050565b60605f5f8373ffffffffffffffffffffffffffffffffffffffff1673ffffffffffffffffffffffffffffffffffffffff1681526020019081526020015f20805480602002602001604051908101604052809291908181526020015f905b828210156103f8578382905f5260205f2001805461036d90610e26565b80601f016020809104026020016040519081016040528092919081815260200182805461039990610e26565b80156103e45780601f106103bb576101008083540402835291602001916103e4565b820191905f5260205f20905b8154815290600101906020018083116103c757829003601f168201915b505050505081526020019060010190610350565b505050509050919050565b5f6002826040516104149190610d6b565b90815260200160405180910390205f9054906101000a900473ffffffffffffffffffffffffffffffffffffffff1690505f73ffffffffffffffffffffffffffffffffffffffff168173ffffffffffffffffffffffffffffffffffffffff16036104b2576040517f08c379a00000000000000000000000000000000000000000000000000000000081526004016104a990611175565b60405180910390fd5b3373ffffffffffffffffffffffffffffffffffffffff168173ffffffffffffffffffffffffffffffffffffffff1603610520576040517f08c379a0000000000000000000000000000000000000000000000000000000008152600401610517906111dd565b60405180910390fd5b5f6001836040516105319190610d6b565b908152602001604051809103902054905061054c82846107a9565b3360028460405161055d9190610d6b565b90815260200160405180910390205f6101000a81548173ffffffffffffffffffffffffffffffffffffffff021916908373ffffffffffffffffffffffffffffffffffffffff1602179055505f5f3373ffffffffffffffffffffffffffffffffffffffff1673ffffffffffffffffffffffffffffffffffffffff1681526020019081526020015f2083908060018154018082558091505060019003905f5260205f20015f9091909190915090816106139190610ff6565b508173ffffffffffffffffffffffffffffffffffffffff166108fc670de0b6b3a7640000836106429190611228565b90811502906040515f60405180830381858888f1935050505015801561066a573d5f5f3e3d5ffd5b508173ffffffffffffffffffffffffffffffffffffffff163373ffffffffffffffffffffffffffffffffffffffff167f027bfcc85aa550e83a60ed86105ce29b32d6c93bce67c8c1e20277c8e5550fe685846040516106ca9291906110fd565b60405180910390a3505050565b5f5f73ffffffffffffffffffffffffffffffffffffffff166002836040516106ff9190610d6b565b90815260200160405180910390205f9054906101000a900473ffffffffffffffffffffffffffffffffffffffff1673ffffffffffffffffffffffffffffffffffffffff1603610783576040517f08c379a000000000000000000000000000000000000000000000000000000000815260040161077a90611175565b60405180910390fd5b6001826040516107939190610d6b565b9081526020016040518091039020549050919050565b5f5f5f8473ffffffffffffffffffffffffffffffffffffffff1673ffffffffffffffffffffffffffffffffffffffff1681526020019081526020015f2090505f5f90505b81805490508110156108c957828051906020012082828154811061081457610813611269565b5b905f5260205f20016040516108299190611332565b6040518091039020036108bc5781600183805490506108489190611348565b8154811061085957610858611269565b5b905f5260205f200182828154811061087457610873611269565b5b905f5260205f2001908161088891906113a2565b508180548061089a57610899611487565b5b600190038181905f5260205f20015f6108b391906108d0565b905550506108cc565b80806001019150506107ed565b50505b5050565b5080546108dc90610e26565b5f825580601f106108ed575061090a565b601f0160209004905f5260205f2090810190610909919061090d565b5b50565b5b80821115610924575f815f90555060010161090e565b5090565b5f604051905090565b5f5ffd5b5f5ffd5b5f5ffd5b5f5ffd5b5f601f19601f8301169050919050565b7f4e487b71000000000000000000000000000000000000000000000000000000005f52604160045260245ffd5b61098782610941565b810181811067ffffffffffffffff821117156109a6576109a5610951565b5b80604052505050565b5f6109b8610928565b90506109c4828261097e565b919050565b5f67ffffffffffffffff8211156109e3576109e2610951565b5b6109ec82610941565b9050602081019050919050565b828183375f83830152505050565b5f610a19610a14846109c9565b6109af565b905082815260208101848484011115610a3557610a3461093d565b5b610a408482856109f9565b509392505050565b5f82601f830112610a5c57610a5b610939565b5b8135610a6c848260208601610a07565b91505092915050565b5f819050919050565b610a8781610a75565b8114610a91575f5ffd5b50565b5f81359050610aa281610a7e565b92915050565b5f5f60408385031215610abe57610abd610931565b5b5f83013567ffffffffffffffff811115610adb57610ada610935565b5b610ae785828601610a48565b9250506020610af885828601610a94565b9150509250929050565b5f73ffffffffffffffffffffffffffffffffffffffff82169050919050565b5f610b2b82610b02565b9050919050565b610b3b81610b21565b8114610b45575f5ffd5b50565b5f81359050610b5681610b32565b92915050565b5f60208284031215610b7157610b70610931565b5b5f610b7e84828501610b48565b91505092915050565b5f81519050919050565b5f82825260208201905092915050565b5f819050602082019050919050565b5f81519050919050565b5f82825260208201905092915050565b8281835e5f83830152505050565b5f610be282610bb0565b610bec8185610bba565b9350610bfc818560208601610bca565b610c0581610941565b840191505092915050565b5f610c1b8383610bd8565b905092915050565b5f602082019050919050565b5f610c3982610b87565b610c438185610b91565b935083602082028501610c5585610ba1565b805f5b85811015610c905784840389528151610c718582610c10565b9450610c7c83610c23565b925060208a01995050600181019050610c58565b50829750879550505050505092915050565b5f6020820190508181035f830152610cba8184610c2f565b905092915050565b5f60208284031215610cd757610cd6610931565b5b5f82013567ffffffffffffffff811115610cf457610cf3610935565b5b610d0084828501610a48565b91505092915050565b610d1281610a75565b82525050565b5f602082019050610d2b5f830184610d09565b92915050565b5f81905092915050565b5f610d4582610bb0565b610d4f8185610d31565b9350610d5f818560208601610bca565b80840191505092915050565b5f610d768284610d3b565b915081905092915050565b5f82825260208201905092915050565b7f4e465420616c72656164792065786973747300000000000000000000000000005f82015250565b5f610dc5601283610d81565b9150610dd082610d91565b602082019050919050565b5f6020820190508181035f830152610df281610db9565b9050919050565b7f4e487b71000000000000000000000000000000000000000000000000000000005f52602260045260245ffd5b5f6002820490506001821680610e3d57607f821691505b602082108103610e5057610e4f610df9565b5b50919050565b5f819050815f5260205f209050919050565b5f6020601f8301049050919050565b5f82821b905092915050565b5f60088302610eb27fffffffffffffffffffffffffffffffffffffffffffffffffffffffffffffffff82610e77565b610ebc8683610e77565b95508019841693508086168417925050509392505050565b5f819050919050565b5f610ef7610ef2610eed84610a75565b610ed4565b610a75565b9050919050565b5f819050919050565b610f1083610edd565b610f24610f1c82610efe565b848454610e83565b825550505050565b5f5f905090565b610f3b610f2c565b610f46818484610f07565b505050565b5b81811015610f6957610f5e5f82610f33565b600181019050610f4c565b5050565b601f821115610fae57610f7f81610e56565b610f8884610e68565b81016020851015610f97578190505b610fab610fa385610e68565b830182610f4b565b50505b505050565b5f82821c905092915050565b5f610fce5f1984600802610fb3565b1980831691505092915050565b5f610fe68383610fbf565b9150826002028217905092915050565b610fff82610bb0565b67ffffffffffffffff81111561101857611017610951565b5b6110228254610e26565b61102d828285610f6d565b5f60209050601f83116001811461105e575f841561104c578287015190505b6110568582610fdb565b8655506110bd565b601f19841661106c86610e56565b5f5b828110156110935784890151825560018201915060208501945060208101905061106e565b868310156110b057848901516110ac601f891682610fbf565b8355505b6001600288020188555050505b505050505050565b5f6110cf82610bb0565b6110d98185610d81565b93506110e9818560208601610bca565b6110f281610941565b840191505092915050565b5f6040820190508181035f83015261111581856110c5565b90506111246020830184610d09565b9392505050565b7f4e465420646f6573206e6f7420657869737400000000000000000000000000005f82015250565b5f61115f601283610d81565b915061116a8261112b565b602082019050919050565b5f6020820190508181035f83015261118c81611153565b9050919050565b7f596f7520616c7265616479206f776e2074686973204e465400000000000000005f82015250565b5f6111c7601883610d81565b91506111d282611193565b602082019050919050565b5f6020820190508181035f8301526111f4816111bb565b9050919050565b7f4e487b71000000000000000000000000000000000000000000000000000000005f52601160045260245ffd5b5f61123282610a75565b915061123d83610a75565b925082820261124b81610a75565b91508282048414831517611262576112616111fb565b5b5092915050565b7f4e487b71000000000000000000000000000000000000000000000000000000005f52603260045260245ffd5b5f81905092915050565b5f819050815f5260205f209050919050565b5f81546112be81610e26565b6112c88186611296565b9450600182165f81146112e257600181146112f757611329565b60ff1983168652811515820286019350611329565b611300856112a0565b5f5b8381101561132157815481890152600182019150602081019050611302565b838801955050505b50505092915050565b5f61133d82846112b2565b915081905092915050565b5f61135282610a75565b915061135d83610a75565b9250828203905081811115611375576113746111fb565b5b92915050565b5f8154905061138981610e26565b9050919050565b5f819050815f5260205f209050919050565b8181036113b0575050611485565b6113b98261137b565b67ffffffffffffffff8111156113d2576113d1610951565b5b6113dc8254610e26565b6113e7828285610f6d565b5f601f831160018114611414575f8415611402578287015490505b61140c8582610fdb565b86555061147e565b601f19841661142287611390565b965061142d86610e56565b5f5b828110156114545784890154825560018201915060018501945060208101905061142f565b86831015611471578489015461146d601f891682610fbf565b8355505b6001600288020188555050505b5050505050505b565b7f4e487b71000000000000000000000000000000000000000000000000000000005f52603160045260245ffdfea264697066735822122088fb14b205055330272812052ec2d6a3bb422eb46affb909815102f198aefab064736f6c634300081e0033",
					"opcodes": "PUSH1 0x80 PUSH1 0x40 MSTORE CALLVALUE DUP1 ISZERO PUSH1 0xE JUMPI PUSH0 PUSH0 REVERT JUMPDEST POP PUSH2 0x14EA DUP1 PUSH2 0x1C PUSH0 CODECOPY PUSH0 RETURN INVALID PUSH1 0x80 PUSH1 0x40 MSTORE PUSH1 0x4 CALLDATASIZE LT PUSH2 0x42 JUMPI PUSH0 CALLDATALOAD PUSH1 0xE0 SHR DUP1 PUSH4 0x56B01CE EQ PUSH2 0x4D JUMPI DUP1 PUSH4 0x16923A2F EQ PUSH2 0x75 JUMPI DUP1 PUSH4 0x87972862 EQ PUSH2 0xB1 JUMPI DUP1 PUSH4 0xC4A70945 EQ PUSH2 0xCD JUMPI PUSH2 0x49 JUMP JUMPDEST CALLDATASIZE PUSH2 0x49 JUMPI STOP JUMPDEST PUSH0 PUSH0 REVERT JUMPDEST CALLVALUE DUP1 ISZERO PUSH2 0x58 JUMPI PUSH0 PUSH0 REVERT JUMPDEST POP PUSH2 0x73 PUSH1 0x4 DUP1 CALLDATASIZE SUB DUP2 ADD SWAP1 PUSH2 0x6E SWAP2 SWAP1 PUSH2 0xAA8 JUMP JUMPDEST PUSH2 0x109 JUMP JUMPDEST STOP JUMPDEST CALLVALUE DUP1 ISZERO PUSH2 0x80 JUMPI PUSH0 PUSH0 REVERT JUMPDEST POP PUSH2 0x9B PUSH1 0x4 DUP1 CALLDATASIZE SUB DUP2 ADD SWAP1 PUSH2 0x96 SWAP2 SWAP1 PUSH2 0xB5C JUMP JUMPDEST PUSH2 0x2F3 JUMP JUMPDEST PUSH1 0x40 MLOAD PUSH2 0xA8 SWAP2 SWAP1 PUSH2 0xCA2 JUMP JUMPDEST PUSH1 0x40 MLOAD DUP1 SWAP2 SUB SWAP1 RETURN JUMPDEST PUSH2 0xCB PUSH1 0x4 DUP1 CALLDATASIZE SUB DUP2 ADD SWAP1 PUSH2 0xC6 SWAP2 SWAP1 PUSH2 0xCC2 JUMP JUMPDEST PUSH2 0x403 JUMP JUMPDEST STOP JUMPDEST CALLVALUE DUP1 ISZERO PUSH2 0xD8 JUMPI PUSH0 PUSH0 REVERT JUMPDEST POP PUSH2 0xF3 PUSH1 0x4 DUP1 CALLDATASIZE SUB DUP2 ADD SWAP1 PUSH2 0xEE SWAP2 SWAP1 PUSH2 0xCC2 JUMP JUMPDEST PUSH2 0x6D7 JUMP JUMPDEST PUSH1 0x40 MLOAD PUSH2 0x100 SWAP2 SWAP1 PUSH2 0xD18 JUMP JUMPDEST PUSH1 0x40 MLOAD DUP1 SWAP2 SUB SWAP1 RETURN JUMPDEST PUSH0 PUSH20 0xFFFFFFFFFFFFFFFFFFFFFFFFFFFFFFFFFFFFFFFF AND PUSH1 0x2 DUP4 PUSH1 0x40 MLOAD PUSH2 0x130 SWAP2 SWAP1 PUSH2 0xD6B JUMP JUMPDEST SWAP1 DUP2 MSTORE PUSH1 0x20 ADD PUSH1 0x40 MLOAD DUP1 SWAP2 SUB SWAP1 KECCAK256 PUSH0 SWAP1 SLOAD SWAP1 PUSH2 0x100 EXP SWAP1 DIV PUSH20 0xFFFFFFFFFFFFFFFFFFFFFFFFFFFFFFFFFFFFFFFF AND PUSH20 0xFFFFFFFFFFFFFFFFFFFFFFFFFFFFFFFFFFFFFFFF AND EQ PUSH2 0x1B4 JUMPI PUSH1 0x40 MLOAD PUSH32 0x8C379A000000000000000000000000000000000000000000000000000000000 DUP2 MSTORE PUSH1 0x4 ADD PUSH2 0x1AB SWAP1 PUSH2 0xDDB JUMP JUMPDEST PUSH1 0x40 MLOAD DUP1 SWAP2 SUB SWAP1 REVERT JUMPDEST PUSH0 PUSH0 CALLER PUSH20 0xFFFFFFFFFFFFFFFFFFFFFFFFFFFFFFFFFFFFFFFF AND PUSH20 0xFFFFFFFFFFFFFFFFFFFFFFFFFFFFFFFFFFFFFFFF AND DUP2 MSTORE PUSH1 0x20 ADD SWAP1 DUP2 MSTORE PUSH1 0x20 ADD PUSH0 KECCAK256 DUP3 SWAP1 DUP1 PUSH1 0x1 DUP2 SLOAD ADD DUP1 DUP3 SSTORE DUP1 SWAP2 POP POP PUSH1 0x1 SWAP1 SUB SWAP1 PUSH0 MSTORE PUSH1 0x20 PUSH0 KECCAK256 ADD PUSH0 SWAP1 SWAP2 SWAP1 SWAP2 SWAP1 SWAP2 POP SWAP1 DUP2 PUSH2 0x21F SWAP2 SWAP1 PUSH2 0xFF6 JUMP JUMPDEST POP DUP1 PUSH1 0x1 DUP4 PUSH1 0x40 MLOAD PUSH2 0x231 SWAP2 SWAP1 PUSH2 0xD6B JUMP JUMPDEST SWAP1 DUP2 MSTORE PUSH1 0x20 ADD PUSH1 0x40 MLOAD DUP1 SWAP2 SUB SWAP1 KECCAK256 DUP2 SWAP1 SSTORE POP CALLER PUSH1 0x2 DUP4 PUSH1 0x40 MLOAD PUSH2 0x254 SWAP2 SWAP1 PUSH2 0xD6B JUMP JUMPDEST SWAP1 DUP2 MSTORE PUSH1 0x20 ADD PUSH1 0x40 MLOAD DUP1 SWAP2 SUB SWAP1 KECCAK256 PUSH0 PUSH2 0x100 EXP DUP2 SLOAD DUP2 PUSH20 0xFFFFFFFFFFFFFFFFFFFFFFFFFFFFFFFFFFFFFFFF MUL NOT AND SWAP1 DUP4 PUSH20 0xFFFFFFFFFFFFFFFFFFFFFFFFFFFFFFFFFFFFFFFF AND MUL OR SWAP1 SSTORE POP CALLER PUSH20 0xFFFFFFFFFFFFFFFFFFFFFFFFFFFFFFFFFFFFFFFF AND PUSH32 0xEC4DE1EEF14AF3AE5D77FACF1ED7A9D3D50F6285573EE0EC155FC11217FC3442 DUP4 DUP4 PUSH1 0x40 MLOAD PUSH2 0x2E7 SWAP3 SWAP2 SWAP1 PUSH2 0x10FD JUMP JUMPDEST PUSH1 0x40 MLOAD DUP1 SWAP2 SUB SWAP1 LOG2 POP POP JUMP JUMPDEST PUSH1 0x60 PUSH0 PUSH0 DUP4 PUSH20 0xFFFFFFFFFFFFFFFFFFFFFFFFFFFFFFFFFFFFFFFF AND PUSH20 0xFFFFFFFFFFFFFFFFFFFFFFFFFFFFFFFFFFFFFFFF AND DUP2 MSTORE PUSH1 0x20 ADD SWAP1 DUP2 MSTORE PUSH1 0x20 ADD PUSH0 KECCAK256 DUP1 SLOAD DUP1 PUSH1 0x20 MUL PUSH1 0x20 ADD PUSH1 0x40 MLOAD SWAP1 DUP2 ADD PUSH1 0x40 MSTORE DUP1 SWAP3 SWAP2 SWAP1 DUP2 DUP2 MSTORE PUSH1 0x20 ADD PUSH0 SWAP1 JUMPDEST DUP3 DUP3 LT ISZERO PUSH2 0x3F8 JUMPI DUP4 DUP3 SWAP1 PUSH0 MSTORE PUSH1 0x20 PUSH0 KECCAK256 ADD DUP1 SLOAD PUSH2 0x36D SWAP1 PUSH2 0xE26 JUMP JUMPDEST DUP1 PUSH1 0x1F ADD PUSH1 0x20 DUP1 SWAP2 DIV MUL PUSH1 0x20 ADD PUSH1 0x40 MLOAD SWAP1 DUP2 ADD PUSH1 0x40 MSTORE DUP1 SWAP3 SWAP2 SWAP1 DUP2 DUP2 MSTORE PUSH1 0x20 ADD DUP3 DUP1 SLOAD PUSH2 0x399 SWAP1 PUSH2 0xE26 JUMP JUMPDEST DUP1 ISZERO PUSH2 0x3E4 JUMPI DUP1 PUSH1 0x1F LT PUSH2 0x3BB JUMPI PUSH2 0x100 DUP1 DUP4 SLOAD DIV MUL DUP4 MSTORE SWAP2 PUSH1 0x20 ADD SWAP2 PUSH2 0x3E4 JUMP JUMPDEST DUP3 ADD SWAP2 SWAP1 PUSH0 MSTORE PUSH1 0x20 PUSH0 KECCAK256 SWAP1 JUMPDEST DUP2 SLOAD DUP2 MSTORE SWAP1 PUSH1 0x1 ADD SWAP1 PUSH1 0x20 ADD DUP1 DUP4 GT PUSH2 0x3C7 JUMPI DUP3 SWAP1 SUB PUSH1 0x1F AND DUP3 ADD SWAP2 JUMPDEST POP POP POP POP POP DUP2 MSTORE PUSH1 0x20 ADD SWAP1 PUSH1 0x1 ADD SWAP1 PUSH2 0x350 JUMP JUMPDEST POP POP POP POP SWAP1 POP SWAP2 SWAP1 POP JUMP JUMPDEST PUSH0 PUSH1 0x2 DUP3 PUSH1 0x40 MLOAD PUSH2 0x414 SWAP2 SWAP1 PUSH2 0xD6B JUMP JUMPDEST SWAP1 DUP2 MSTORE PUSH1 0x20 ADD PUSH1 0x40 MLOAD DUP1 SWAP2 SUB SWAP1 KECCAK256 PUSH0 SWAP1 SLOAD SWAP1 PUSH2 0x100 EXP SWAP1 DIV PUSH20 0xFFFFFFFFFFFFFFFFFFFFFFFFFFFFFFFFFFFFFFFF AND SWAP1 POP PUSH0 PUSH20 0xFFFFFFFFFFFFFFFFFFFFFFFFFFFFFFFFFFFFFFFF AND DUP2 PUSH20 0xFFFFFFFFFFFFFFFFFFFFFFFFFFFFFFFFFFFFFFFF AND SUB PUSH2 0x4B2 JUMPI PUSH1 0x40 MLOAD PUSH32 0x8C379A000000000000000000000000000000000000000000000000000000000 DUP2 MSTORE PUSH1 0x4 ADD PUSH2 0x4A9 SWAP1 PUSH2 0x1175 JUMP JUMPDEST PUSH1 0x40 MLOAD DUP1 SWAP2 SUB SWAP1 REVERT JUMPDEST CALLER PUSH20 0xFFFFFFFFFFFFFFFFFFFFFFFFFFFFFFFFFFFFFFFF AND DUP2 PUSH20 0xFFFFFFFFFFFFFFFFFFFFFFFFFFFFFFFFFFFFFFFF AND SUB PUSH2 0x520 JUMPI PUSH1 0x40 MLOAD PUSH32 0x8C379A000000000000000000000000000000000000000000000000000000000 DUP2 MSTORE PUSH1 0x4 ADD PUSH2 0x517 SWAP1 PUSH2 0x11DD JUMP JUMPDEST PUSH1 0x40 MLOAD DUP1 SWAP2 SUB SWAP1 REVERT JUMPDEST PUSH0 PUSH1 0x1 DUP4 PUSH1 0x40 MLOAD PUSH2 0x531 SWAP2 SWAP1 PUSH2 0xD6B JUMP JUMPDEST SWAP1 DUP2 MSTORE PUSH1 0x20 ADD PUSH1 0x40 MLOAD DUP1 SWAP2 SUB SWAP1 KECCAK256 SLOAD SWAP1 POP PUSH2 0x54C DUP3 DUP5 PUSH2 0x7A9 JUMP JUMPDEST CALLER PUSH1 0x2 DUP5 PUSH1 0x40 MLOAD PUSH2 0x55D SWAP2 SWAP1 PUSH2 0xD6B JUMP JUMPDEST SWAP1 DUP2 MSTORE PUSH1 0x20 ADD PUSH1 0x40 MLOAD DUP1 SWAP2 SUB SWAP1 KECCAK256 PUSH0 PUSH2 0x100 EXP DUP2 SLOAD DUP2 PUSH20 0xFFFFFFFFFFFFFFFFFFFFFFFFFFFFFFFFFFFFFFFF MUL NOT AND SWAP1 DUP4 PUSH20 0xFFFFFFFFFFFFFFFFFFFFFFFFFFFFFFFFFFFFFFFF AND MUL OR SWAP1 SSTORE POP PUSH0 PUSH0 CALLER PUSH20 0xFFFFFFFFFFFFFFFFFFFFFFFFFFFFFFFFFFFFFFFF AND PUSH20 0xFFFFFFFFFFFFFFFFFFFFFFFFFFFFFFFFFFFFFFFF AND DUP2 MSTORE PUSH1 0x20 ADD SWAP1 DUP2 MSTORE PUSH1 0x20 ADD PUSH0 KECCAK256 DUP4 SWAP1 DUP1 PUSH1 0x1 DUP2 SLOAD ADD DUP1 DUP3 SSTORE DUP1 SWAP2 POP POP PUSH1 0x1 SWAP1 SUB SWAP1 PUSH0 MSTORE PUSH1 0x20 PUSH0 KECCAK256 ADD PUSH0 SWAP1 SWAP2 SWAP1 SWAP2 SWAP1 SWAP2 POP SWAP1 DUP2 PUSH2 0x613 SWAP2 SWAP1 PUSH2 0xFF6 JUMP JUMPDEST POP DUP2 PUSH20 0xFFFFFFFFFFFFFFFFFFFFFFFFFFFFFFFFFFFFFFFF AND PUSH2 0x8FC PUSH8 0xDE0B6B3A7640000 DUP4 PUSH2 0x642 SWAP2 SWAP1 PUSH2 0x1228 JUMP JUMPDEST SWAP1 DUP2 ISZERO MUL SWAP1 PUSH1 0x40 MLOAD PUSH0 PUSH1 0x40 MLOAD DUP1 DUP4 SUB DUP2 DUP6 DUP9 DUP9 CALL SWAP4 POP POP POP POP ISZERO DUP1 ISZERO PUSH2 0x66A JUMPI RETURNDATASIZE PUSH0 PUSH0 RETURNDATACOPY RETURNDATASIZE PUSH0 REVERT JUMPDEST POP DUP2 PUSH20 0xFFFFFFFFFFFFFFFFFFFFFFFFFFFFFFFFFFFFFFFF AND CALLER PUSH20 0xFFFFFFFFFFFFFFFFFFFFFFFFFFFFFFFFFFFFFFFF AND PUSH32 0x27BFCC85AA550E83A60ED86105CE29B32D6C93BCE67C8C1E20277C8E5550FE6 DUP6 DUP5 PUSH1 0x40 MLOAD PUSH2 0x6CA SWAP3 SWAP2 SWAP1 PUSH2 0x10FD JUMP JUMPDEST PUSH1 0x40 MLOAD DUP1 SWAP2 SUB SWAP1 LOG3 POP POP POP JUMP JUMPDEST PUSH0 PUSH0 PUSH20 0xFFFFFFFFFFFFFFFFFFFFFFFFFFFFFFFFFFFFFFFF AND PUSH1 0x2 DUP4 PUSH1 0x40 MLOAD PUSH2 0x6FF SWAP2 SWAP1 PUSH2 0xD6B JUMP JUMPDEST SWAP1 DUP2 MSTORE PUSH1 0x20 ADD PUSH1 0x40 MLOAD DUP1 SWAP2 SUB SWAP1 KECCAK256 PUSH0 SWAP1 SLOAD SWAP1 PUSH2 0x100 EXP SWAP1 DIV PUSH20 0xFFFFFFFFFFFFFFFFFFFFFFFFFFFFFFFFFFFFFFFF AND PUSH20 0xFFFFFFFFFFFFFFFFFFFFFFFFFFFFFFFFFFFFFFFF AND SUB PUSH2 0x783 JUMPI PUSH1 0x40 MLOAD PUSH32 0x8C379A000000000000000000000000000000000000000000000000000000000 DUP2 MSTORE PUSH1 0x4 ADD PUSH2 0x77A SWAP1 PUSH2 0x1175 JUMP JUMPDEST PUSH1 0x40 MLOAD DUP1 SWAP2 SUB SWAP1 REVERT JUMPDEST PUSH1 0x1 DUP3 PUSH1 0x40 MLOAD PUSH2 0x793 SWAP2 SWAP1 PUSH2 0xD6B JUMP JUMPDEST SWAP1 DUP2 MSTORE PUSH1 0x20 ADD PUSH1 0x40 MLOAD DUP1 SWAP2 SUB SWAP1 KECCAK256 SLOAD SWAP1 POP SWAP2 SWAP1 POP JUMP JUMPDEST PUSH0 PUSH0 PUSH0 DUP5 PUSH20 0xFFFFFFFFFFFFFFFFFFFFFFFFFFFFFFFFFFFFFFFF AND PUSH20 0xFFFFFFFFFFFFFFFFFFFFFFFFFFFFFFFFFFFFFFFF AND DUP2 MSTORE PUSH1 0x20 ADD SWAP1 DUP2 MSTORE PUSH1 0x20 ADD PUSH0 KECCAK256 SWAP1 POP PUSH0 PUSH0 SWAP1 POP JUMPDEST DUP2 DUP1 SLOAD SWAP1 POP DUP2 LT ISZERO PUSH2 0x8C9 JUMPI DUP3 DUP1 MLOAD SWAP1 PUSH1 0x20 ADD KECCAK256 DUP3 DUP3 DUP2 SLOAD DUP2 LT PUSH2 0x814 JUMPI PUSH2 0x813 PUSH2 0x1269 JUMP JUMPDEST JUMPDEST SWAP1 PUSH0 MSTORE PUSH1 0x20 PUSH0 KECCAK256 ADD PUSH1 0x40 MLOAD PUSH2 0x829 SWAP2 SWAP1 PUSH2 0x1332 JUMP JUMPDEST PUSH1 0x40 MLOAD DUP1 SWAP2 SUB SWAP1 KECCAK256 SUB PUSH2 0x8BC JUMPI DUP2 PUSH1 0x1 DUP4 DUP1 SLOAD SWAP1 POP PUSH2 0x848 SWAP2 SWAP1 PUSH2 0x1348 JUMP JUMPDEST DUP2 SLOAD DUP2 LT PUSH2 0x859 JUMPI PUSH2 0x858 PUSH2 0x1269 JUMP JUMPDEST JUMPDEST SWAP1 PUSH0 MSTORE PUSH1 0x20 PUSH0 KECCAK256 ADD DUP3 DUP3 DUP2 SLOAD DUP2 LT PUSH2 0x874 JUMPI PUSH2 0x873 PUSH2 0x1269 JUMP JUMPDEST JUMPDEST SWAP1 PUSH0 MSTORE PUSH1 0x20 PUSH0 KECCAK256 ADD SWAP1 DUP2 PUSH2 0x888 SWAP2 SWAP1 PUSH2 0x13A2 JUMP JUMPDEST POP DUP2 DUP1 SLOAD DUP1 PUSH2 0x89A JUMPI PUSH2 0x899 PUSH2 0x1487 JUMP JUMPDEST JUMPDEST PUSH1 0x1 SWAP1 SUB DUP2 DUP2 SWAP1 PUSH0 MSTORE PUSH1 0x20 PUSH0 KECCAK256 ADD PUSH0 PUSH2 0x8B3 SWAP2 SWAP1 PUSH2 0x8D0 JUMP JUMPDEST SWAP1 SSTORE POP POP PUSH2 0x8CC JUMP JUMPDEST DUP1 DUP1 PUSH1 0x1 ADD SWAP2 POP POP PUSH2 0x7ED JUMP JUMPDEST POP POP JUMPDEST POP POP JUMP JUMPDEST POP DUP1 SLOAD PUSH2 0x8DC SWAP1 PUSH2 0xE26 JUMP JUMPDEST PUSH0 DUP3 SSTORE DUP1 PUSH1 0x1F LT PUSH2 0x8ED JUMPI POP PUSH2 0x90A JUMP JUMPDEST PUSH1 0x1F ADD PUSH1 0x20 SWAP1 DIV SWAP1 PUSH0 MSTORE PUSH1 0x20 PUSH0 KECCAK256 SWAP1 DUP2 ADD SWAP1 PUSH2 0x909 SWAP2 SWAP1 PUSH2 0x90D JUMP JUMPDEST JUMPDEST POP JUMP JUMPDEST JUMPDEST DUP1 DUP3 GT ISZERO PUSH2 0x924 JUMPI PUSH0 DUP2 PUSH0 SWAP1 SSTORE POP PUSH1 0x1 ADD PUSH2 0x90E JUMP JUMPDEST POP SWAP1 JUMP JUMPDEST PUSH0 PUSH1 0x40 MLOAD SWAP1 POP SWAP1 JUMP JUMPDEST PUSH0 PUSH0 REVERT JUMPDEST PUSH0 PUSH0 REVERT JUMPDEST PUSH0 PUSH0 REVERT JUMPDEST PUSH0 PUSH0 REVERT JUMPDEST PUSH0 PUSH1 0x1F NOT PUSH1 0x1F DUP4 ADD AND SWAP1 POP SWAP2 SWAP1 POP JUMP JUMPDEST PUSH32 0x4E487B7100000000000000000000000000000000000000000000000000000000 PUSH0 MSTORE PUSH1 0x41 PUSH1 0x4 MSTORE PUSH1 0x24 PUSH0 REVERT JUMPDEST PUSH2 0x987 DUP3 PUSH2 0x941 JUMP JUMPDEST DUP2 ADD DUP2 DUP2 LT PUSH8 0xFFFFFFFFFFFFFFFF DUP3 GT OR ISZERO PUSH2 0x9A6 JUMPI PUSH2 0x9A5 PUSH2 0x951 JUMP JUMPDEST JUMPDEST DUP1 PUSH1 0x40 MSTORE POP POP POP JUMP JUMPDEST PUSH0 PUSH2 0x9B8 PUSH2 0x928 JUMP JUMPDEST SWAP1 POP PUSH2 0x9C4 DUP3 DUP3 PUSH2 0x97E JUMP JUMPDEST SWAP2 SWAP1 POP JUMP JUMPDEST PUSH0 PUSH8 0xFFFFFFFFFFFFFFFF DUP3 GT ISZERO PUSH2 0x9E3 JUMPI PUSH2 0x9E2 PUSH2 0x951 JUMP JUMPDEST JUMPDEST PUSH2 0x9EC DUP3 PUSH2 0x941 JUMP JUMPDEST SWAP1 POP PUSH1 0x20 DUP2 ADD SWAP1 POP SWAP2 SWAP1 POP JUMP JUMPDEST DUP3 DUP2 DUP4 CALLDATACOPY PUSH0 DUP4 DUP4 ADD MSTORE POP POP POP JUMP JUMPDEST PUSH0 PUSH2 0xA19 PUSH2 0xA14 DUP5 PUSH2 0x9C9 JUMP JUMPDEST PUSH2 0x9AF JUMP JUMPDEST SWAP1 POP DUP3 DUP2 MSTORE PUSH1 0x20 DUP2 ADD DUP5 DUP5 DUP5 ADD GT ISZERO PUSH2 0xA35 JUMPI PUSH2 0xA34 PUSH2 0x93D JUMP JUMPDEST JUMPDEST PUSH2 0xA40 DUP5 DUP3 DUP6 PUSH2 0x9F9 JUMP JUMPDEST POP SWAP4 SWAP3 POP POP POP JUMP JUMPDEST PUSH0 DUP3 PUSH1 0x1F DUP4 ADD SLT PUSH2 0xA5C JUMPI PUSH2 0xA5B PUSH2 0x939 JUMP JUMPDEST JUMPDEST DUP2 CALLDATALOAD PUSH2 0xA6C DUP5 DUP3 PUSH1 0x20 DUP7 ADD PUSH2 0xA07 JUMP JUMPDEST SWAP2 POP POP SWAP3 SWAP2 POP POP JUMP JUMPDEST PUSH0 DUP2 SWAP1 POP SWAP2 SWAP1 POP JUMP JUMPDEST PUSH2 0xA87 DUP2 PUSH2 0xA75 JUMP JUMPDEST DUP2 EQ PUSH2 0xA91 JUMPI PUSH0 PUSH0 REVERT JUMPDEST POP JUMP JUMPDEST PUSH0 DUP2 CALLDATALOAD SWAP1 POP PUSH2 0xAA2 DUP2 PUSH2 0xA7E JUMP JUMPDEST SWAP3 SWAP2 POP POP JUMP JUMPDEST PUSH0 PUSH0 PUSH1 0x40 DUP4 DUP6 SUB SLT ISZERO PUSH2 0xABE JUMPI PUSH2 0xABD PUSH2 0x931 JUMP JUMPDEST JUMPDEST PUSH0 DUP4 ADD CALLDATALOAD PUSH8 0xFFFFFFFFFFFFFFFF DUP2 GT ISZERO PUSH2 0xADB JUMPI PUSH2 0xADA PUSH2 0x935 JUMP JUMPDEST JUMPDEST PUSH2 0xAE7 DUP6 DUP3 DUP7 ADD PUSH2 0xA48 JUMP JUMPDEST SWAP3 POP POP PUSH1 0x20 PUSH2 0xAF8 DUP6 DUP3 DUP7 ADD PUSH2 0xA94 JUMP JUMPDEST SWAP2 POP POP SWAP3 POP SWAP3 SWAP1 POP JUMP JUMPDEST PUSH0 PUSH20 0xFFFFFFFFFFFFFFFFFFFFFFFFFFFFFFFFFFFFFFFF DUP3 AND SWAP1 POP SWAP2 SWAP1 POP JUMP JUMPDEST PUSH0 PUSH2 0xB2B DUP3 PUSH2 0xB02 JUMP JUMPDEST SWAP1 POP SWAP2 SWAP1 POP JUMP JUMPDEST PUSH2 0xB3B DUP2 PUSH2 0xB21 JUMP JUMPDEST DUP2 EQ PUSH2 0xB45 JUMPI PUSH0 PUSH0 REVERT JUMPDEST POP JUMP JUMPDEST PUSH0 DUP2 CALLDATALOAD SWAP1 POP PUSH2 0xB56 DUP2 PUSH2 0xB32 JUMP JUMPDEST SWAP3 SWAP2 POP POP JUMP JUMPDEST PUSH0 PUSH1 0x20 DUP3 DUP5 SUB SLT ISZERO PUSH2 0xB71 JUMPI PUSH2 0xB70 PUSH2 0x931 JUMP JUMPDEST JUMPDEST PUSH0 PUSH2 0xB7E DUP5 DUP3 DUP6 ADD PUSH2 0xB48 JUMP JUMPDEST SWAP2 POP POP SWAP3 SWAP2 POP POP JUMP JUMPDEST PUSH0 DUP2 MLOAD SWAP1 POP SWAP2 SWAP1 POP JUMP JUMPDEST PUSH0 DUP3 DUP3 MSTORE PUSH1 0x20 DUP3 ADD SWAP1 POP SWAP3 SWAP2 POP POP JUMP JUMPDEST PUSH0 DUP2 SWAP1 POP PUSH1 0x20 DUP3 ADD SWAP1 POP SWAP2 SWAP1 POP JUMP JUMPDEST PUSH0 DUP2 MLOAD SWAP1 POP SWAP2 SWAP1 POP JUMP JUMPDEST PUSH0 DUP3 DUP3 MSTORE PUSH1 0x20 DUP3 ADD SWAP1 POP SWAP3 SWAP2 POP POP JUMP JUMPDEST DUP3 DUP2 DUP4 MCOPY PUSH0 DUP4 DUP4 ADD MSTORE POP POP POP JUMP JUMPDEST PUSH0 PUSH2 0xBE2 DUP3 PUSH2 0xBB0 JUMP JUMPDEST PUSH2 0xBEC DUP2 DUP6 PUSH2 0xBBA JUMP JUMPDEST SWAP4 POP PUSH2 0xBFC DUP2 DUP6 PUSH1 0x20 DUP7 ADD PUSH2 0xBCA JUMP JUMPDEST PUSH2 0xC05 DUP2 PUSH2 0x941 JUMP JUMPDEST DUP5 ADD SWAP2 POP POP SWAP3 SWAP2 POP POP JUMP JUMPDEST PUSH0 PUSH2 0xC1B DUP4 DUP4 PUSH2 0xBD8 JUMP JUMPDEST SWAP1 POP SWAP3 SWAP2 POP POP JUMP JUMPDEST PUSH0 PUSH1 0x20 DUP3 ADD SWAP1 POP SWAP2 SWAP1 POP JUMP JUMPDEST PUSH0 PUSH2 0xC39 DUP3 PUSH2 0xB87 JUMP JUMPDEST PUSH2 0xC43 DUP2 DUP6 PUSH2 0xB91 JUMP JUMPDEST SWAP4 POP DUP4 PUSH1 0x20 DUP3 MUL DUP6 ADD PUSH2 0xC55 DUP6 PUSH2 0xBA1 JUMP JUMPDEST DUP1 PUSH0 JUMPDEST DUP6 DUP2 LT ISZERO PUSH2 0xC90 JUMPI DUP5 DUP5 SUB DUP10 MSTORE DUP2 MLOAD PUSH2 0xC71 DUP6 DUP3 PUSH2 0xC10 JUMP JUMPDEST SWAP5 POP PUSH2 0xC7C DUP4 PUSH2 0xC23 JUMP JUMPDEST SWAP3 POP PUSH1 0x20 DUP11 ADD SWAP10 POP POP PUSH1 0x1 DUP2 ADD SWAP1 POP PUSH2 0xC58 JUMP JUMPDEST POP DUP3 SWAP8 POP DUP8 SWAP6 POP POP POP POP POP POP SWAP3 SWAP2 POP POP JUMP JUMPDEST PUSH0 PUSH1 0x20 DUP3 ADD SWAP1 POP DUP2 DUP2 SUB PUSH0 DUP4 ADD MSTORE PUSH2 0xCBA DUP2 DUP5 PUSH2 0xC2F JUMP JUMPDEST SWAP1 POP SWAP3 SWAP2 POP POP JUMP JUMPDEST PUSH0 PUSH1 0x20 DUP3 DUP5 SUB SLT ISZERO PUSH2 0xCD7 JUMPI PUSH2 0xCD6 PUSH2 0x931 JUMP JUMPDEST JUMPDEST PUSH0 DUP3 ADD CALLDATALOAD PUSH8 0xFFFFFFFFFFFFFFFF DUP2 GT ISZERO PUSH2 0xCF4 JUMPI PUSH2 0xCF3 PUSH2 0x935 JUMP JUMPDEST JUMPDEST PUSH2 0xD00 DUP5 DUP3 DUP6 ADD PUSH2 0xA48 JUMP JUMPDEST SWAP2 POP POP SWAP3 SWAP2 POP POP JUMP JUMPDEST PUSH2 0xD12 DUP2 PUSH2 0xA75 JUMP JUMPDEST DUP3 MSTORE POP POP JUMP JUMPDEST PUSH0 PUSH1 0x20 DUP3 ADD SWAP1 POP PUSH2 0xD2B PUSH0 DUP4 ADD DUP5 PUSH2 0xD09 JUMP JUMPDEST SWAP3 SWAP2 POP POP JUMP JUMPDEST PUSH0 DUP2 SWAP1 POP SWAP3 SWAP2 POP POP JUMP JUMPDEST PUSH0 PUSH2 0xD45 DUP3 PUSH2 0xBB0 JUMP JUMPDEST PUSH2 0xD4F DUP2 DUP6 PUSH2 0xD31 JUMP JUMPDEST SWAP4 POP PUSH2 0xD5F DUP2 DUP6 PUSH1 0x20 DUP7 ADD PUSH2 0xBCA JUMP JUMPDEST DUP1 DUP5 ADD SWAP2 POP POP SWAP3 SWAP2 POP POP JUMP JUMPDEST PUSH0 PUSH2 0xD76 DUP3 DUP5 PUSH2 0xD3B JUMP JUMPDEST SWAP2 POP DUP2 SWAP1 POP SWAP3 SWAP2 POP POP JUMP JUMPDEST PUSH0 DUP3 DUP3 MSTORE PUSH1 0x20 DUP3 ADD SWAP1 POP SWAP3 SWAP2 POP POP JUMP JUMPDEST PUSH32 0x4E465420616C7265616479206578697374730000000000000000000000000000 PUSH0 DUP3 ADD MSTORE POP JUMP JUMPDEST PUSH0 PUSH2 0xDC5 PUSH1 0x12 DUP4 PUSH2 0xD81 JUMP JUMPDEST SWAP2 POP PUSH2 0xDD0 DUP3 PUSH2 0xD91 JUMP JUMPDEST PUSH1 0x20 DUP3 ADD SWAP1 POP SWAP2 SWAP1 POP JUMP JUMPDEST PUSH0 PUSH1 0x20 DUP3 ADD SWAP1 POP DUP2 DUP2 SUB PUSH0 DUP4 ADD MSTORE PUSH2 0xDF2 DUP2 PUSH2 0xDB9 JUMP JUMPDEST SWAP1 POP SWAP2 SWAP1 POP JUMP JUMPDEST PUSH32 0x4E487B7100000000000000000000000000000000000000000000000000000000 PUSH0 MSTORE PUSH1 0x22 PUSH1 0x4 MSTORE PUSH1 0x24 PUSH0 REVERT JUMPDEST PUSH0 PUSH1 0x2 DUP3 DIV SWAP1 POP PUSH1 0x1 DUP3 AND DUP1 PUSH2 0xE3D JUMPI PUSH1 0x7F DUP3 AND SWAP2 POP JUMPDEST PUSH1 0x20 DUP3 LT DUP2 SUB PUSH2 0xE50 JUMPI PUSH2 0xE4F PUSH2 0xDF9 JUMP JUMPDEST JUMPDEST POP SWAP2 SWAP1 POP JUMP JUMPDEST PUSH0 DUP2 SWAP1 POP DUP2 PUSH0 MSTORE PUSH1 0x20 PUSH0 KECCAK256 SWAP1 POP SWAP2 SWAP1 POP JUMP JUMPDEST PUSH0 PUSH1 0x20 PUSH1 0x1F DUP4 ADD DIV SWAP1 POP SWAP2 SWAP1 POP JUMP JUMPDEST PUSH0 DUP3 DUP3 SHL SWAP1 POP SWAP3 SWAP2 POP POP JUMP JUMPDEST PUSH0 PUSH1 0x8 DUP4 MUL PUSH2 0xEB2 PUSH32 0xFFFFFFFFFFFFFFFFFFFFFFFFFFFFFFFFFFFFFFFFFFFFFFFFFFFFFFFFFFFFFFFF DUP3 PUSH2 0xE77 JUMP JUMPDEST PUSH2 0xEBC DUP7 DUP4 PUSH2 0xE77 JUMP JUMPDEST SWAP6 POP DUP1 NOT DUP5 AND SWAP4 POP DUP1 DUP7 AND DUP5 OR SWAP3 POP POP POP SWAP4 SWAP3 POP POP POP JUMP JUMPDEST PUSH0 DUP2 SWAP1 POP SWAP2 SWAP1 POP JUMP JUMPDEST PUSH0 PUSH2 0xEF7 PUSH2 0xEF2 PUSH2 0xEED DUP5 PUSH2 0xA75 JUMP JUMPDEST PUSH2 0xED4 JUMP JUMPDEST PUSH2 0xA75 JUMP JUMPDEST SWAP1 POP SWAP2 SWAP1 POP JUMP JUMPDEST PUSH0 DUP2 SWAP1 POP SWAP2 SWAP1 POP JUMP JUMPDEST PUSH2 0xF10 DUP4 PUSH2 0xEDD JUMP JUMPDEST PUSH2 0xF24 PUSH2 0xF1C DUP3 PUSH2 0xEFE JUMP JUMPDEST DUP5 DUP5 SLOAD PUSH2 0xE83 JUMP JUMPDEST DUP3 SSTORE POP POP POP POP JUMP JUMPDEST PUSH0 PUSH0 SWAP1 POP SWAP1 JUMP JUMPDEST PUSH2 0xF3B PUSH2 0xF2C JUMP JUMPDEST PUSH2 0xF46 DUP2 DUP5 DUP5 PUSH2 0xF07 JUMP JUMPDEST POP POP POP JUMP JUMPDEST JUMPDEST DUP2 DUP2 LT ISZERO PUSH2 0xF69 JUMPI PUSH2 0xF5E PUSH0 DUP3 PUSH2 0xF33 JUMP JUMPDEST PUSH1 0x1 DUP2 ADD SWAP1 POP PUSH2 0xF4C JUMP JUMPDEST POP POP JUMP JUMPDEST PUSH1 0x1F DUP3 GT ISZERO PUSH2 0xFAE JUMPI PUSH2 0xF7F DUP2 PUSH2 0xE56 JUMP JUMPDEST PUSH2 0xF88 DUP5 PUSH2 0xE68 JUMP JUMPDEST DUP2 ADD PUSH1 0x20 DUP6 LT ISZERO PUSH2 0xF97 JUMPI DUP2 SWAP1 POP JUMPDEST PUSH2 0xFAB PUSH2 0xFA3 DUP6 PUSH2 0xE68 JUMP JUMPDEST DUP4 ADD DUP3 PUSH2 0xF4B JUMP JUMPDEST POP POP JUMPDEST POP POP POP JUMP JUMPDEST PUSH0 DUP3 DUP3 SHR SWAP1 POP SWAP3 SWAP2 POP POP JUMP JUMPDEST PUSH0 PUSH2 0xFCE PUSH0 NOT DUP5 PUSH1 0x8 MUL PUSH2 0xFB3 JUMP JUMPDEST NOT DUP1 DUP4 AND SWAP2 POP POP SWAP3 SWAP2 POP POP JUMP JUMPDEST PUSH0 PUSH2 0xFE6 DUP4 DUP4 PUSH2 0xFBF JUMP JUMPDEST SWAP2 POP DUP3 PUSH1 0x2 MUL DUP3 OR SWAP1 POP SWAP3 SWAP2 POP POP JUMP JUMPDEST PUSH2 0xFFF DUP3 PUSH2 0xBB0 JUMP JUMPDEST PUSH8 0xFFFFFFFFFFFFFFFF DUP2 GT ISZERO PUSH2 0x1018 JUMPI PUSH2 0x1017 PUSH2 0x951 JUMP JUMPDEST JUMPDEST PUSH2 0x1022 DUP3 SLOAD PUSH2 0xE26 JUMP JUMPDEST PUSH2 0x102D DUP3 DUP3 DUP6 PUSH2 0xF6D JUMP JUMPDEST PUSH0 PUSH1 0x20 SWAP1 POP PUSH1 0x1F DUP4 GT PUSH1 0x1 DUP2 EQ PUSH2 0x105E JUMPI PUSH0 DUP5 ISZERO PUSH2 0x104C JUMPI DUP3 DUP8 ADD MLOAD SWAP1 POP JUMPDEST PUSH2 0x1056 DUP6 DUP3 PUSH2 0xFDB JUMP JUMPDEST DUP7 SSTORE POP PUSH2 0x10BD JUMP JUMPDEST PUSH1 0x1F NOT DUP5 AND PUSH2 0x106C DUP7 PUSH2 0xE56 JUMP JUMPDEST PUSH0 JUMPDEST DUP3 DUP2 LT ISZERO PUSH2 0x1093 JUMPI DUP5 DUP10 ADD MLOAD DUP3 SSTORE PUSH1 0x1 DUP3 ADD SWAP2 POP PUSH1 0x20 DUP6 ADD SWAP5 POP PUSH1 0x20 DUP2 ADD SWAP1 POP PUSH2 0x106E JUMP JUMPDEST DUP7 DUP4 LT ISZERO PUSH2 0x10B0 JUMPI DUP5 DUP10 ADD MLOAD PUSH2 0x10AC PUSH1 0x1F DUP10 AND DUP3 PUSH2 0xFBF JUMP JUMPDEST DUP4 SSTORE POP JUMPDEST PUSH1 0x1 PUSH1 0x2 DUP9 MUL ADD DUP9 SSTORE POP POP POP JUMPDEST POP POP POP POP POP POP JUMP JUMPDEST PUSH0 PUSH2 0x10CF DUP3 PUSH2 0xBB0 JUMP JUMPDEST PUSH2 0x10D9 DUP2 DUP6 PUSH2 0xD81 JUMP JUMPDEST SWAP4 POP PUSH2 0x10E9 DUP2 DUP6 PUSH1 0x20 DUP7 ADD PUSH2 0xBCA JUMP JUMPDEST PUSH2 0x10F2 DUP2 PUSH2 0x941 JUMP JUMPDEST DUP5 ADD SWAP2 POP POP SWAP3 SWAP2 POP POP JUMP JUMPDEST PUSH0 PUSH1 0x40 DUP3 ADD SWAP1 POP DUP2 DUP2 SUB PUSH0 DUP4 ADD MSTORE PUSH2 0x1115 DUP2 DUP6 PUSH2 0x10C5 JUMP JUMPDEST SWAP1 POP PUSH2 0x1124 PUSH1 0x20 DUP4 ADD DUP5 PUSH2 0xD09 JUMP JUMPDEST SWAP4 SWAP3 POP POP POP JUMP JUMPDEST PUSH32 0x4E465420646F6573206E6F742065786973740000000000000000000000000000 PUSH0 DUP3 ADD MSTORE POP JUMP JUMPDEST PUSH0 PUSH2 0x115F PUSH1 0x12 DUP4 PUSH2 0xD81 JUMP JUMPDEST SWAP2 POP PUSH2 0x116A DUP3 PUSH2 0x112B JUMP JUMPDEST PUSH1 0x20 DUP3 ADD SWAP1 POP SWAP2 SWAP1 POP JUMP JUMPDEST PUSH0 PUSH1 0x20 DUP3 ADD SWAP1 POP DUP2 DUP2 SUB PUSH0 DUP4 ADD MSTORE PUSH2 0x118C DUP2 PUSH2 0x1153 JUMP JUMPDEST SWAP1 POP SWAP2 SWAP1 POP JUMP JUMPDEST PUSH32 0x596F7520616C7265616479206F776E2074686973204E46540000000000000000 PUSH0 DUP3 ADD MSTORE POP JUMP JUMPDEST PUSH0 PUSH2 0x11C7 PUSH1 0x18 DUP4 PUSH2 0xD81 JUMP JUMPDEST SWAP2 POP PUSH2 0x11D2 DUP3 PUSH2 0x1193 JUMP JUMPDEST PUSH1 0x20 DUP3 ADD SWAP1 POP SWAP2 SWAP1 POP JUMP JUMPDEST PUSH0 PUSH1 0x20 DUP3 ADD SWAP1 POP DUP2 DUP2 SUB PUSH0 DUP4 ADD MSTORE PUSH2 0x11F4 DUP2 PUSH2 0x11BB JUMP JUMPDEST SWAP1 POP SWAP2 SWAP1 POP JUMP JUMPDEST PUSH32 0x4E487B7100000000000000000000000000000000000000000000000000000000 PUSH0 MSTORE PUSH1 0x11 PUSH1 0x4 MSTORE PUSH1 0x24 PUSH0 REVERT JUMPDEST PUSH0 PUSH2 0x1232 DUP3 PUSH2 0xA75 JUMP JUMPDEST SWAP2 POP PUSH2 0x123D DUP4 PUSH2 0xA75 JUMP JUMPDEST SWAP3 POP DUP3 DUP3 MUL PUSH2 0x124B DUP2 PUSH2 0xA75 JUMP JUMPDEST SWAP2 POP DUP3 DUP3 DIV DUP5 EQ DUP4 ISZERO OR PUSH2 0x1262 JUMPI PUSH2 0x1261 PUSH2 0x11FB JUMP JUMPDEST JUMPDEST POP SWAP3 SWAP2 POP POP JUMP JUMPDEST PUSH32 0x4E487B7100000000000000000000000000000000000000000000000000000000 PUSH0 MSTORE PUSH1 0x32 PUSH1 0x4 MSTORE PUSH1 0x24 PUSH0 REVERT JUMPDEST PUSH0 DUP2 SWAP1 POP SWAP3 SWAP2 POP POP JUMP JUMPDEST PUSH0 DUP2 SWAP1 POP DUP2 PUSH0 MSTORE PUSH1 0x20 PUSH0 KECCAK256 SWAP1 POP SWAP2 SWAP1 POP JUMP JUMPDEST PUSH0 DUP2 SLOAD PUSH2 0x12BE DUP2 PUSH2 0xE26 JUMP JUMPDEST PUSH2 0x12C8 DUP2 DUP7 PUSH2 0x1296 JUMP JUMPDEST SWAP5 POP PUSH1 0x1 DUP3 AND PUSH0 DUP2 EQ PUSH2 0x12E2 JUMPI PUSH1 0x1 DUP2 EQ PUSH2 0x12F7 JUMPI PUSH2 0x1329 JUMP JUMPDEST PUSH1 0xFF NOT DUP4 AND DUP7 MSTORE DUP2 ISZERO ISZERO DUP3 MUL DUP7 ADD SWAP4 POP PUSH2 0x1329 JUMP JUMPDEST PUSH2 0x1300 DUP6 PUSH2 0x12A0 JUMP JUMPDEST PUSH0 JUMPDEST DUP4 DUP2 LT ISZERO PUSH2 0x1321 JUMPI DUP2 SLOAD DUP2 DUP10 ADD MSTORE PUSH1 0x1 DUP3 ADD SWAP2 POP PUSH1 0x20 DUP2 ADD SWAP1 POP PUSH2 0x1302 JUMP JUMPDEST DUP4 DUP9 ADD SWAP6 POP POP POP JUMPDEST POP POP POP SWAP3 SWAP2 POP POP JUMP JUMPDEST PUSH0 PUSH2 0x133D DUP3 DUP5 PUSH2 0x12B2 JUMP JUMPDEST SWAP2 POP DUP2 SWAP1 POP SWAP3 SWAP2 POP POP JUMP JUMPDEST PUSH0 PUSH2 0x1352 DUP3 PUSH2 0xA75 JUMP JUMPDEST SWAP2 POP PUSH2 0x135D DUP4 PUSH2 0xA75 JUMP JUMPDEST SWAP3 POP DUP3 DUP3 SUB SWAP1 POP DUP2 DUP2 GT ISZERO PUSH2 0x1375 JUMPI PUSH2 0x1374 PUSH2 0x11FB JUMP JUMPDEST JUMPDEST SWAP3 SWAP2 POP POP JUMP JUMPDEST PUSH0 DUP2 SLOAD SWAP1 POP PUSH2 0x1389 DUP2 PUSH2 0xE26 JUMP JUMPDEST SWAP1 POP SWAP2 SWAP1 POP JUMP JUMPDEST PUSH0 DUP2 SWAP1 POP DUP2 PUSH0 MSTORE PUSH1 0x20 PUSH0 KECCAK256 SWAP1 POP SWAP2 SWAP1 POP JUMP JUMPDEST DUP2 DUP2 SUB PUSH2 0x13B0 JUMPI POP POP PUSH2 0x1485 JUMP JUMPDEST PUSH2 0x13B9 DUP3 PUSH2 0x137B JUMP JUMPDEST PUSH8 0xFFFFFFFFFFFFFFFF DUP2 GT ISZERO PUSH2 0x13D2 JUMPI PUSH2 0x13D1 PUSH2 0x951 JUMP JUMPDEST JUMPDEST PUSH2 0x13DC DUP3 SLOAD PUSH2 0xE26 JUMP JUMPDEST PUSH2 0x13E7 DUP3 DUP3 DUP6 PUSH2 0xF6D JUMP JUMPDEST PUSH0 PUSH1 0x1F DUP4 GT PUSH1 0x1 DUP2 EQ PUSH2 0x1414 JUMPI PUSH0 DUP5 ISZERO PUSH2 0x1402 JUMPI DUP3 DUP8 ADD SLOAD SWAP1 POP JUMPDEST PUSH2 0x140C DUP6 DUP3 PUSH2 0xFDB JUMP JUMPDEST DUP7 SSTORE POP PUSH2 0x147E JUMP JUMPDEST PUSH1 0x1F NOT DUP5 AND PUSH2 0x1422 DUP8 PUSH2 0x1390 JUMP JUMPDEST SWAP7 POP PUSH2 0x142D DUP7 PUSH2 0xE56 JUMP JUMPDEST PUSH0 JUMPDEST DUP3 DUP2 LT ISZERO PUSH2 0x1454 JUMPI DUP5 DUP10 ADD SLOAD DUP3 SSTORE PUSH1 0x1 DUP3 ADD SWAP2 POP PUSH1 0x1 DUP6 ADD SWAP5 POP PUSH1 0x20 DUP2 ADD SWAP1 POP PUSH2 0x142F JUMP JUMPDEST DUP7 DUP4 LT ISZERO PUSH2 0x1471 JUMPI DUP5 DUP10 ADD SLOAD PUSH2 0x146D PUSH1 0x1F DUP10 AND DUP3 PUSH2 0xFBF JUMP JUMPDEST DUP4 SSTORE POP JUMPDEST PUSH1 0x1 PUSH1 0x2 DUP9 MUL ADD DUP9 SSTORE POP POP POP JUMPDEST POP POP POP POP POP POP JUMPDEST JUMP JUMPDEST PUSH32 0x4E487B7100000000000000000000000000000000000000000000000000000000 PUSH0 MSTORE PUSH1 0x31 PUSH1 0x4 MSTORE PUSH1 0x24 PUSH0 REVERT INVALID LOG2 PUSH5 0x6970667358 0x22 SLT KECCAK256 DUP9 EXTSTATICCALL EQ 0xB2 SDIV SDIV MSTORE8 ADDRESS 0x27 0x28 SLT SDIV 0x2E 0xC2 0xD6 LOG3 0xBB TIMESTAMP 0x2E 0xB4 PUSH11 0xFFB909815102F198AEFAB0 PUSH5 0x736F6C6343 STOP ADDMOD 0x1E STOP CALLER "
				},
				"gasEstimates": {
					"creation": {
						"codeDepositCost": "1070800",
						"executionCost": "1112",
						"totalCost": "1071912"
					},
					"external": {
						"mint(string,uint256)": "infinite",
						"purchaseNFT(string)": "infinite",
						"showNFTs(address)": "infinite",
						"showPrice(string)": "infinite"
					},
					"internal": {
						"_removeNFT(address,string memory)": "infinite"
					}
				},
				"methodIdentifiers": {
					"mint(string,uint256)": "056b01ce",
					"purchaseNFT(string)": "87972862",
					"showNFTs(address)": "16923a2f",
					"showPrice(string)": "c4a70945"
				}
			},
			"storageLayout": {
				"storage": [
					{
						"astId": 6,
						"contract": "MyNFT.sol:NFTMarketplace",
						"label": "nfts",
						"offset": 0,
						"slot": "0",
						"type": "t_mapping(t_address,t_array(t_string_storage)dyn_storage)"
					},
					{
						"astId": 10,
						"contract": "MyNFT.sol:NFTMarketplace",
						"label": "prices",
						"offset": 0,
						"slot": "1",
						"type": "t_mapping(t_string_memory_ptr,t_uint256)"
					},
					{
						"astId": 14,
						"contract": "MyNFT.sol:NFTMarketplace",
						"label": "owners",
						"offset": 0,
						"slot": "2",
						"type": "t_mapping(t_string_memory_ptr,t_address)"
					}
				],
				"types": {
					"t_address": {
						"encoding": "inplace",
						"label": "address",
						"numberOfBytes": "20"
					},
					"t_array(t_string_storage)dyn_storage": {
						"base": "t_string_storage",
						"encoding": "dynamic_array",
						"label": "string[]",
						"numberOfBytes": "32"
					},
					"t_mapping(t_address,t_array(t_string_storage)dyn_storage)": {
						"encoding": "mapping",
						"key": "t_address",
						"label": "mapping(address => string[])",
						"numberOfBytes": "32",
						"value": "t_array(t_string_storage)dyn_storage"
					},
					"t_mapping(t_string_memory_ptr,t_address)": {
						"encoding": "mapping",
						"key": "t_string_memory_ptr",
						"label": "mapping(string => address)",
						"numberOfBytes": "32",
						"value": "t_address"
					},
					"t_mapping(t_string_memory_ptr,t_uint256)": {
						"encoding": "mapping",
						"key": "t_string_memory_ptr",
						"label": "mapping(string => uint256)",
						"numberOfBytes": "32",
						"value": "t_uint256"
					},
					"t_string_memory_ptr": {
						"encoding": "bytes",
						"label": "string",
						"numberOfBytes": "32"
					},
					"t_string_storage": {
						"encoding": "bytes",
						"label": "string",
						"numberOfBytes": "32"
					},
					"t_uint256": {
						"encoding": "inplace",
						"label": "uint256",
						"numberOfBytes": "32"
					}
				}
			},
			"userdoc": {
				"kind": "user",
				"methods": {},
				"version": 1
			}
		}
	}
}