{
	"data": {
		"bytecode": {
			"linkReferences": {},
			"object": "6080604052348015600e575f5ffd5b5061100f8061001c5f395ff3fe60806040526004361061003e575f3560e01c8063056b01ce1461004257806316923a2f1461006a57806387972862146100a6578063c4a70945146100c2575b5f5ffd5b34801561004d575f5ffd5b506100686004803603810190610063919061077b565b6100fe565b005b348015610075575f5ffd5b50610090600480360381019061008b919061082f565b6101ed565b60405161009d9190610975565b60405180910390f35b6100c060048036038101906100bb9190610995565b6102fd565b005b3480156100cd575f5ffd5b506100e860048036038101906100e39190610995565b610455565b6040516100f591906109eb565b60405180910390f35b5f5f3373ffffffffffffffffffffffffffffffffffffffff1673ffffffffffffffffffffffffffffffffffffffff1681526020019081526020015f2082908060018154018082558091505060019003905f5260205f20015f9091909190915090816101699190610c01565b508060018360405161017b9190610d0a565b9081526020016040518091039020819055503360028360405161019e9190610d0a565b90815260200160405180910390205f6101000a81548173ffffffffffffffffffffffffffffffffffffffff021916908373ffffffffffffffffffffffffffffffffffffffff1602179055505050565b60605f5f8373ffffffffffffffffffffffffffffffffffffffff1673ffffffffffffffffffffffffffffffffffffffff1681526020019081526020015f20805480602002602001604051908101604052809291908181526020015f905b828210156102f2578382905f5260205f2001805461026790610a31565b80601f016020809104026020016040519081016040528092919081815260200182805461029390610a31565b80156102de5780601f106102b5576101008083540402835291602001916102de565b820191905f5260205f20905b8154815290600101906020018083116102c157829003601f168201915b50505050508152602001906001019061024a565b505050509050919050565b60028160405161030d9190610d0a565b90815260200160405180910390205f9054906101000a900473ffffffffffffffffffffffffffffffffffffffff1673ffffffffffffffffffffffffffffffffffffffff166108fc670de0b6b3a764000060018460405161036d9190610d0a565b9081526020016040518091039020546103869190610d4d565b90811502906040515f60405180830381858888f193505050501580156103ae573d5f5f3e3d5ffd5b506103f66002826040516103c29190610d0a565b90815260200160405180910390205f9054906101000a900473ffffffffffffffffffffffffffffffffffffffff168261047c565b336002826040516104079190610d0a565b90815260200160405180910390205f6101000a81548173ffffffffffffffffffffffffffffffffffffffff021916908373ffffffffffffffffffffffffffffffffffffffff16021790555050565b5f6001826040516104669190610d0a565b9081526020016040518091039020549050919050565b5f5f5f8473ffffffffffffffffffffffffffffffffffffffff1673ffffffffffffffffffffffffffffffffffffffff1681526020019081526020015f2090505f5f90505b818054905081101561059c5782805190602001208282815481106104e7576104e6610d8e565b5b905f5260205f20016040516104fc9190610e57565b60405180910390200361058f57816001838054905061051b9190610e6d565b8154811061052c5761052b610d8e565b5b905f5260205f200182828154811061054757610546610d8e565b5b905f5260205f2001908161055b9190610ec7565b508180548061056d5761056c610fac565b5b600190038181905f5260205f20015f61058691906105a3565b9055505061059f565b80806001019150506104c0565b50505b5050565b5080546105af90610a31565b5f825580601f106105c057506105dd565b601f0160209004905f5260205f20908101906105dc91906105e0565b5b50565b5b808211156105f7575f815f9055506001016105e1565b5090565b5f604051905090565b5f5ffd5b5f5ffd5b5f5ffd5b5f5ffd5b5f601f19601f8301169050919050565b7f4e487b71000000000000000000000000000000000000000000000000000000005f52604160045260245ffd5b61065a82610614565b810181811067ffffffffffffffff8211171561067957610678610624565b5b80604052505050565b5f61068b6105fb565b90506106978282610651565b919050565b5f67ffffffffffffffff8211156106b6576106b5610624565b5b6106bf82610614565b9050602081019050919050565b828183375f83830152505050565b5f6106ec6106e78461069c565b610682565b90508281526020810184848401111561070857610707610610565b5b6107138482856106cc565b509392505050565b5f82601f83011261072f5761072e61060c565b5b813561073f8482602086016106da565b91505092915050565b5f819050919050565b61075a81610748565b8114610764575f5ffd5b50565b5f8135905061077581610751565b92915050565b5f5f6040838503121561079157610790610604565b5b5f83013567ffffffffffffffff8111156107ae576107ad610608565b5b6107ba8582860161071b565b92505060206107cb85828601610767565b9150509250929050565b5f73ffffffffffffffffffffffffffffffffffffffff82169050919050565b5f6107fe826107d5565b9050919050565b61080e816107f4565b8114610818575f5ffd5b50565b5f8135905061082981610805565b92915050565b5f6020828403121561084457610843610604565b5b5f6108518482850161081b565b91505092915050565b5f81519050919050565b5f82825260208201905092915050565b5f819050602082019050919050565b5f81519050919050565b5f82825260208201905092915050565b8281835e5f83830152505050565b5f6108b582610883565b6108bf818561088d565b93506108cf81856020860161089d565b6108d881610614565b840191505092915050565b5f6108ee83836108ab565b905092915050565b5f602082019050919050565b5f61090c8261085a565b6109168185610864565b93508360208202850161092885610874565b805f5b85811015610963578484038952815161094485826108e3565b945061094f836108f6565b925060208a0199505060018101905061092b565b50829750879550505050505092915050565b5f6020820190508181035f83015261098d8184610902565b905092915050565b5f602082840312156109aa576109a9610604565b5b5f82013567ffffffffffffffff8111156109c7576109c6610608565b5b6109d38482850161071b565b91505092915050565b6109e581610748565b82525050565b5f6020820190506109fe5f8301846109dc565b92915050565b7f4e487b71000000000000000000000000000000000000000000000000000000005f52602260045260245ffd5b5f6002820490506001821680610a4857607f821691505b602082108103610a5b57610a5a610a04565b5b50919050565b5f819050815f5260205f209050919050565b5f6020601f8301049050919050565b5f82821b905092915050565b5f60088302610abd7fffffffffffffffffffffffffffffffffffffffffffffffffffffffffffffffff82610a82565b610ac78683610a82565b95508019841693508086168417925050509392505050565b5f819050919050565b5f610b02610afd610af884610748565b610adf565b610748565b9050919050565b5f819050919050565b610b1b83610ae8565b610b2f610b2782610b09565b848454610a8e565b825550505050565b5f5f905090565b610b46610b37565b610b51818484610b12565b505050565b5b81811015610b7457610b695f82610b3e565b600181019050610b57565b5050565b601f821115610bb957610b8a81610a61565b610b9384610a73565b81016020851015610ba2578190505b610bb6610bae85610a73565b830182610b56565b50505b505050565b5f82821c905092915050565b5f610bd95f1984600802610bbe565b1980831691505092915050565b5f610bf18383610bca565b9150826002028217905092915050565b610c0a82610883565b67ffffffffffffffff811115610c2357610c22610624565b5b610c2d8254610a31565b610c38828285610b78565b5f60209050601f831160018114610c69575f8415610c57578287015190505b610c618582610be6565b865550610cc8565b601f198416610c7786610a61565b5f5b82811015610c9e57848901518255600182019150602085019450602081019050610c79565b86831015610cbb5784890151610cb7601f891682610bca565b8355505b6001600288020188555050505b505050505050565b5f81905092915050565b5f610ce482610883565b610cee8185610cd0565b9350610cfe81856020860161089d565b80840191505092915050565b5f610d158284610cda565b915081905092915050565b7f4e487b71000000000000000000000000000000000000000000000000000000005f52601160045260245ffd5b5f610d5782610748565b9150610d6283610748565b9250828202610d7081610748565b91508282048414831517610d8757610d86610d20565b5b5092915050565b7f4e487b71000000000000000000000000000000000000000000000000000000005f52603260045260245ffd5b5f81905092915050565b5f819050815f5260205f209050919050565b5f8154610de381610a31565b610ded8186610dbb565b9450600182165f8114610e075760018114610e1c57610e4e565b60ff1983168652811515820286019350610e4e565b610e2585610dc5565b5f5b83811015610e4657815481890152600182019150602081019050610e27565b838801955050505b50505092915050565b5f610e628284610dd7565b915081905092915050565b5f610e7782610748565b9150610e8283610748565b9250828203905081811115610e9a57610e99610d20565b5b92915050565b5f81549050610eae81610a31565b9050919050565b5f819050815f5260205f209050919050565b818103610ed5575050610faa565b610ede82610ea0565b67ffffffffffffffff811115610ef757610ef6610624565b5b610f018254610a31565b610f0c828285610b78565b5f601f831160018114610f39575f8415610f27578287015490505b610f318582610be6565b865550610fa3565b601f198416610f4787610eb5565b9650610f5286610a61565b5f5b82811015610f7957848901548255600182019150600185019450602081019050610f54565b86831015610f965784890154610f92601f891682610bca565b8355505b6001600288020188555050505b5050505050505b565b7f4e487b71000000000000000000000000000000000000000000000000000000005f52603160045260245ffdfea2646970667358221220a164b04f2bf0e14913bfd921593049f7b77190e7043d5bee036f650f90941b4264736f6c634300081e0033",
			"opcodes": "PUSH1 0x80 PUSH1 0x40 MSTORE CALLVALUE DUP1 ISZERO PUSH1 0xE JUMPI PUSH0 PUSH0 REVERT JUMPDEST POP PUSH2 0x100F DUP1 PUSH2 0x1C PUSH0 CODECOPY PUSH0 RETURN INVALID PUSH1 0x80 PUSH1 0x40 MSTORE PUSH1 0x4 CALLDATASIZE LT PUSH2 0x3E JUMPI PUSH0 CALLDATALOAD PUSH1 0xE0 SHR DUP1 PUSH4 0x56B01CE EQ PUSH2 0x42 JUMPI DUP1 PUSH4 0x16923A2F EQ PUSH2 0x6A JUMPI DUP1 PUSH4 0x87972862 EQ PUSH2 0xA6 JUMPI DUP1 PUSH4 0xC4A70945 EQ PUSH2 0xC2 JUMPI JUMPDEST PUSH0 PUSH0 REVERT JUMPDEST CALLVALUE DUP1 ISZERO PUSH2 0x4D JUMPI PUSH0 PUSH0 REVERT JUMPDEST POP PUSH2 0x68 PUSH1 0x4 DUP1 CALLDATASIZE SUB DUP2 ADD SWAP1 PUSH2 0x63 SWAP2 SWAP1 PUSH2 0x77B JUMP JUMPDEST PUSH2 0xFE JUMP JUMPDEST STOP JUMPDEST CALLVALUE DUP1 ISZERO PUSH2 0x75 JUMPI PUSH0 PUSH0 REVERT JUMPDEST POP PUSH2 0x90 PUSH1 0x4 DUP1 CALLDATASIZE SUB DUP2 ADD SWAP1 PUSH2 0x8B SWAP2 SWAP1 PUSH2 0x82F JUMP JUMPDEST PUSH2 0x1ED JUMP JUMPDEST PUSH1 0x40 MLOAD PUSH2 0x9D SWAP2 SWAP1 PUSH2 0x975 JUMP JUMPDEST PUSH1 0x40 MLOAD DUP1 SWAP2 SUB SWAP1 RETURN JUMPDEST PUSH2 0xC0 PUSH1 0x4 DUP1 CALLDATASIZE SUB DUP2 ADD SWAP1 PUSH2 0xBB SWAP2 SWAP1 PUSH2 0x995 JUMP JUMPDEST PUSH2 0x2FD JUMP JUMPDEST STOP JUMPDEST CALLVALUE DUP1 ISZERO PUSH2 0xCD JUMPI PUSH0 PUSH0 REVERT JUMPDEST POP PUSH2 0xE8 PUSH1 0x4 DUP1 CALLDATASIZE SUB DUP2 ADD SWAP1 PUSH2 0xE3 SWAP2 SWAP1 PUSH2 0x995 JUMP JUMPDEST PUSH2 0x455 JUMP JUMPDEST PUSH1 0x40 MLOAD PUSH2 0xF5 SWAP2 SWAP1 PUSH2 0x9EB JUMP JUMPDEST PUSH1 0x40 MLOAD DUP1 SWAP2 SUB SWAP1 RETURN JUMPDEST PUSH0 PUSH0 CALLER PUSH20 0xFFFFFFFFFFFFFFFFFFFFFFFFFFFFFFFFFFFFFFFF AND PUSH20 0xFFFFFFFFFFFFFFFFFFFFFFFFFFFFFFFFFFFFFFFF AND DUP2 MSTORE PUSH1 0x20 ADD SWAP1 DUP2 MSTORE PUSH1 0x20 ADD PUSH0 KECCAK256 DUP3 SWAP1 DUP1 PUSH1 0x1 DUP2 SLOAD ADD DUP1 DUP3 SSTORE DUP1 SWAP2 POP POP PUSH1 0x1 SWAP1 SUB SWAP1 PUSH0 MSTORE PUSH1 0x20 PUSH0 KECCAK256 ADD PUSH0 SWAP1 SWAP2 SWAP1 SWAP2 SWAP1 SWAP2 POP SWAP1 DUP2 PUSH2 0x169 SWAP2 SWAP1 PUSH2 0xC01 JUMP JUMPDEST POP DUP1 PUSH1 0x1 DUP4 PUSH1 0x40 MLOAD PUSH2 0x17B SWAP2 SWAP1 PUSH2 0xD0A JUMP JUMPDEST SWAP1 DUP2 MSTORE PUSH1 0x20 ADD PUSH1 0x40 MLOAD DUP1 SWAP2 SUB SWAP1 KECCAK256 DUP2 SWAP1 SSTORE POP CALLER PUSH1 0x2 DUP4 PUSH1 0x40 MLOAD PUSH2 0x19E SWAP2 SWAP1 PUSH2 0xD0A JUMP JUMPDEST SWAP1 DUP2 MSTORE PUSH1 0x20 ADD PUSH1 0x40 MLOAD DUP1 SWAP2 SUB SWAP1 KECCAK256 PUSH0 PUSH2 0x100 EXP DUP2 SLOAD DUP2 PUSH20 0xFFFFFFFFFFFFFFFFFFFFFFFFFFFFFFFFFFFFFFFF MUL NOT AND SWAP1 DUP4 PUSH20 0xFFFFFFFFFFFFFFFFFFFFFFFFFFFFFFFFFFFFFFFF AND MUL OR SWAP1 SSTORE POP POP POP JUMP JUMPDEST PUSH1 0x60 PUSH0 PUSH0 DUP4 PUSH20 0xFFFFFFFFFFFFFFFFFFFFFFFFFFFFFFFFFFFFFFFF AND PUSH20 0xFFFFFFFFFFFFFFFFFFFFFFFFFFFFFFFFFFFFFFFF AND DUP2 MSTORE PUSH1 0x20 ADD SWAP1 DUP2 MSTORE PUSH1 0x20 ADD PUSH0 KECCAK256 DUP1 SLOAD DUP1 PUSH1 0x20 MUL PUSH1 0x20 ADD PUSH1 0x40 MLOAD SWAP1 DUP2 ADD PUSH1 0x40 MSTORE DUP1 SWAP3 SWAP2 SWAP1 DUP2 DUP2 MSTORE PUSH1 0x20 ADD PUSH0 SWAP1 JUMPDEST DUP3 DUP3 LT ISZERO PUSH2 0x2F2 JUMPI DUP4 DUP3 SWAP1 PUSH0 MSTORE PUSH1 0x20 PUSH0 KECCAK256 ADD DUP1 SLOAD PUSH2 0x267 SWAP1 PUSH2 0xA31 JUMP JUMPDEST DUP1 PUSH1 0x1F ADD PUSH1 0x20 DUP1 SWAP2 DIV MUL PUSH1 0x20 ADD PUSH1 0x40 MLOAD SWAP1 DUP2 ADD PUSH1 0x40 MSTORE DUP1 SWAP3 SWAP2 SWAP1 DUP2 DUP2 MSTORE PUSH1 0x20 ADD DUP3 DUP1 SLOAD PUSH2 0x293 SWAP1 PUSH2 0xA31 JUMP JUMPDEST DUP1 ISZERO PUSH2 0x2DE JUMPI DUP1 PUSH1 0x1F LT PUSH2 0x2B5 JUMPI PUSH2 0x100 DUP1 DUP4 SLOAD DIV MUL DUP4 MSTORE SWAP2 PUSH1 0x20 ADD SWAP2 PUSH2 0x2DE JUMP JUMPDEST DUP3 ADD SWAP2 SWAP1 PUSH0 MSTORE PUSH1 0x20 PUSH0 KECCAK256 SWAP1 JUMPDEST DUP2 SLOAD DUP2 MSTORE SWAP1 PUSH1 0x1 ADD SWAP1 PUSH1 0x20 ADD DUP1 DUP4 GT PUSH2 0x2C1 JUMPI DUP3 SWAP1 SUB PUSH1 0x1F AND DUP3 ADD SWAP2 JUMPDEST POP POP POP POP POP DUP2 MSTORE PUSH1 0x20 ADD SWAP1 PUSH1 0x1 ADD SWAP1 PUSH2 0x24A JUMP JUMPDEST POP POP POP POP SWAP1 POP SWAP2 SWAP1 POP JUMP JUMPDEST PUSH1 0x2 DUP2 PUSH1 0x40 MLOAD PUSH2 0x30D SWAP2 SWAP1 PUSH2 0xD0A JUMP JUMPDEST SWAP1 DUP2 MSTORE PUSH1 0x20 ADD PUSH1 0x40 MLOAD DUP1 SWAP2 SUB SWAP1 KECCAK256 PUSH0 SWAP1 SLOAD SWAP1 PUSH2 0x100 EXP SWAP1 DIV PUSH20 0xFFFFFFFFFFFFFFFFFFFFFFFFFFFFFFFFFFFFFFFF AND PUSH20 0xFFFFFFFFFFFFFFFFFFFFFFFFFFFFFFFFFFFFFFFF AND PUSH2 0x8FC PUSH8 0xDE0B6B3A7640000 PUSH1 0x1 DUP5 PUSH1 0x40 MLOAD PUSH2 0x36D SWAP2 SWAP1 PUSH2 0xD0A JUMP JUMPDEST SWAP1 DUP2 MSTORE PUSH1 0x20 ADD PUSH1 0x40 MLOAD DUP1 SWAP2 SUB SWAP1 KECCAK256 SLOAD PUSH2 0x386 SWAP2 SWAP1 PUSH2 0xD4D JUMP JUMPDEST SWAP1 DUP2 ISZERO MUL SWAP1 PUSH1 0x40 MLOAD PUSH0 PUSH1 0x40 MLOAD DUP1 DUP4 SUB DUP2 DUP6 DUP9 DUP9 CALL SWAP4 POP POP POP POP ISZERO DUP1 ISZERO PUSH2 0x3AE JUMPI RETURNDATASIZE PUSH0 PUSH0 RETURNDATACOPY RETURNDATASIZE PUSH0 REVERT JUMPDEST POP PUSH2 0x3F6 PUSH1 0x2 DUP3 PUSH1 0x40 MLOAD PUSH2 0x3C2 SWAP2 SWAP1 PUSH2 0xD0A JUMP JUMPDEST SWAP1 DUP2 MSTORE PUSH1 0x20 ADD PUSH1 0x40 MLOAD DUP1 SWAP2 SUB SWAP1 KECCAK256 PUSH0 SWAP1 SLOAD SWAP1 PUSH2 0x100 EXP SWAP1 DIV PUSH20 0xFFFFFFFFFFFFFFFFFFFFFFFFFFFFFFFFFFFFFFFF AND DUP3 PUSH2 0x47C JUMP JUMPDEST CALLER PUSH1 0x2 DUP3 PUSH1 0x40 MLOAD PUSH2 0x407 SWAP2 SWAP1 PUSH2 0xD0A JUMP JUMPDEST SWAP1 DUP2 MSTORE PUSH1 0x20 ADD PUSH1 0x40 MLOAD DUP1 SWAP2 SUB SWAP1 KECCAK256 PUSH0 PUSH2 0x100 EXP DUP2 SLOAD DUP2 PUSH20 0xFFFFFFFFFFFFFFFFFFFFFFFFFFFFFFFFFFFFFFFF MUL NOT AND SWAP1 DUP4 PUSH20 0xFFFFFFFFFFFFFFFFFFFFFFFFFFFFFFFFFFFFFFFF AND MUL OR SWAP1 SSTORE POP POP JUMP JUMPDEST PUSH0 PUSH1 0x1 DUP3 PUSH1 0x40 MLOAD PUSH2 0x466 SWAP2 SWAP1 PUSH2 0xD0A JUMP JUMPDEST SWAP1 DUP2 MSTORE PUSH1 0x20 ADD PUSH1 0x40 MLOAD DUP1 SWAP2 SUB SWAP1 KECCAK256 SLOAD SWAP1 POP SWAP2 SWAP1 POP JUMP JUMPDEST PUSH0 PUSH0 PUSH0 DUP5 PUSH20 0xFFFFFFFFFFFFFFFFFFFFFFFFFFFFFFFFFFFFFFFF AND PUSH20 0xFFFFFFFFFFFFFFFFFFFFFFFFFFFFFFFFFFFFFFFF AND DUP2 MSTORE PUSH1 0x20 ADD SWAP1 DUP2 MSTORE PUSH1 0x20 ADD PUSH0 KECCAK256 SWAP1 POP PUSH0 PUSH0 SWAP1 POP JUMPDEST DUP2 DUP1 SLOAD SWAP1 POP DUP2 LT ISZERO PUSH2 0x59C JUMPI DUP3 DUP1 MLOAD SWAP1 PUSH1 0x20 ADD KECCAK256 DUP3 DUP3 DUP2 SLOAD DUP2 LT PUSH2 0x4E7 JUMPI PUSH2 0x4E6 PUSH2 0xD8E JUMP JUMPDEST JUMPDEST SWAP1 PUSH0 MSTORE PUSH1 0x20 PUSH0 KECCAK256 ADD PUSH1 0x40 MLOAD PUSH2 0x4FC SWAP2 SWAP1 PUSH2 0xE57 JUMP JUMPDEST PUSH1 0x40 MLOAD DUP1 SWAP2 SUB SWAP1 KECCAK256 SUB PUSH2 0x58F JUMPI DUP2 PUSH1 0x1 DUP4 DUP1 SLOAD SWAP1 POP PUSH2 0x51B SWAP2 SWAP1 PUSH2 0xE6D JUMP JUMPDEST DUP2 SLOAD DUP2 LT PUSH2 0x52C JUMPI PUSH2 0x52B PUSH2 0xD8E JUMP JUMPDEST JUMPDEST SWAP1 PUSH0 MSTORE PUSH1 0x20 PUSH0 KECCAK256 ADD DUP3 DUP3 DUP2 SLOAD DUP2 LT PUSH2 0x547 JUMPI PUSH2 0x546 PUSH2 0xD8E JUMP JUMPDEST JUMPDEST SWAP1 PUSH0 MSTORE PUSH1 0x20 PUSH0 KECCAK256 ADD SWAP1 DUP2 PUSH2 0x55B SWAP2 SWAP1 PUSH2 0xEC7 JUMP JUMPDEST POP DUP2 DUP1 SLOAD DUP1 PUSH2 0x56D JUMPI PUSH2 0x56C PUSH2 0xFAC JUMP JUMPDEST JUMPDEST PUSH1 0x1 SWAP1 SUB DUP2 DUP2 SWAP1 PUSH0 MSTORE PUSH1 0x20 PUSH0 KECCAK256 ADD PUSH0 PUSH2 0x586 SWAP2 SWAP1 PUSH2 0x5A3 JUMP JUMPDEST SWAP1 SSTORE POP POP PUSH2 0x59F JUMP JUMPDEST DUP1 DUP1 PUSH1 0x1 ADD SWAP2 POP POP PUSH2 0x4C0 JUMP JUMPDEST POP POP JUMPDEST POP POP JUMP JUMPDEST POP DUP1 SLOAD PUSH2 0x5AF SWAP1 PUSH2 0xA31 JUMP JUMPDEST PUSH0 DUP3 SSTORE DUP1 PUSH1 0x1F LT PUSH2 0x5C0 JUMPI POP PUSH2 0x5DD JUMP JUMPDEST PUSH1 0x1F ADD PUSH1 0x20 SWAP1 DIV SWAP1 PUSH0 MSTORE PUSH1 0x20 PUSH0 KECCAK256 SWAP1 DUP2 ADD SWAP1 PUSH2 0x5DC SWAP2 SWAP1 PUSH2 0x5E0 JUMP JUMPDEST JUMPDEST POP JUMP JUMPDEST JUMPDEST DUP1 DUP3 GT ISZERO PUSH2 0x5F7 JUMPI PUSH0 DUP2 PUSH0 SWAP1 SSTORE POP PUSH1 0x1 ADD PUSH2 0x5E1 JUMP JUMPDEST POP SWAP1 JUMP JUMPDEST PUSH0 PUSH1 0x40 MLOAD SWAP1 POP SWAP1 JUMP JUMPDEST PUSH0 PUSH0 REVERT JUMPDEST PUSH0 PUSH0 REVERT JUMPDEST PUSH0 PUSH0 REVERT JUMPDEST PUSH0 PUSH0 REVERT JUMPDEST PUSH0 PUSH1 0x1F NOT PUSH1 0x1F DUP4 ADD AND SWAP1 POP SWAP2 SWAP1 POP JUMP JUMPDEST PUSH32 0x4E487B7100000000000000000000000000000000000000000000000000000000 PUSH0 MSTORE PUSH1 0x41 PUSH1 0x4 MSTORE PUSH1 0x24 PUSH0 REVERT JUMPDEST PUSH2 0x65A DUP3 PUSH2 0x614 JUMP JUMPDEST DUP2 ADD DUP2 DUP2 LT PUSH8 0xFFFFFFFFFFFFFFFF DUP3 GT OR ISZERO PUSH2 0x679 JUMPI PUSH2 0x678 PUSH2 0x624 JUMP JUMPDEST JUMPDEST DUP1 PUSH1 0x40 MSTORE POP POP POP JUMP JUMPDEST PUSH0 PUSH2 0x68B PUSH2 0x5FB JUMP JUMPDEST SWAP1 POP PUSH2 0x697 DUP3 DUP3 PUSH2 0x651 JUMP JUMPDEST SWAP2 SWAP1 POP JUMP JUMPDEST PUSH0 PUSH8 0xFFFFFFFFFFFFFFFF DUP3 GT ISZERO PUSH2 0x6B6 JUMPI PUSH2 0x6B5 PUSH2 0x624 JUMP JUMPDEST JUMPDEST PUSH2 0x6BF DUP3 PUSH2 0x614 JUMP JUMPDEST SWAP1 POP PUSH1 0x20 DUP2 ADD SWAP1 POP SWAP2 SWAP1 POP JUMP JUMPDEST DUP3 DUP2 DUP4 CALLDATACOPY PUSH0 DUP4 DUP4 ADD MSTORE POP POP POP JUMP JUMPDEST PUSH0 PUSH2 0x6EC PUSH2 0x6E7 DUP5 PUSH2 0x69C JUMP JUMPDEST PUSH2 0x682 JUMP JUMPDEST SWAP1 POP DUP3 DUP2 MSTORE PUSH1 0x20 DUP2 ADD DUP5 DUP5 DUP5 ADD GT ISZERO PUSH2 0x708 JUMPI PUSH2 0x707 PUSH2 0x610 JUMP JUMPDEST JUMPDEST PUSH2 0x713 DUP5 DUP3 DUP6 PUSH2 0x6CC JUMP JUMPDEST POP SWAP4 SWAP3 POP POP POP JUMP JUMPDEST PUSH0 DUP3 PUSH1 0x1F DUP4 ADD SLT PUSH2 0x72F JUMPI PUSH2 0x72E PUSH2 0x60C JUMP JUMPDEST JUMPDEST DUP2 CALLDATALOAD PUSH2 0x73F DUP5 DUP3 PUSH1 0x20 DUP7 ADD PUSH2 0x6DA JUMP JUMPDEST SWAP2 POP POP SWAP3 SWAP2 POP POP JUMP JUMPDEST PUSH0 DUP2 SWAP1 POP SWAP2 SWAP1 POP JUMP JUMPDEST PUSH2 0x75A DUP2 PUSH2 0x748 JUMP JUMPDEST DUP2 EQ PUSH2 0x764 JUMPI PUSH0 PUSH0 REVERT JUMPDEST POP JUMP JUMPDEST PUSH0 DUP2 CALLDATALOAD SWAP1 POP PUSH2 0x775 DUP2 PUSH2 0x751 JUMP JUMPDEST SWAP3 SWAP2 POP POP JUMP JUMPDEST PUSH0 PUSH0 PUSH1 0x40 DUP4 DUP6 SUB SLT ISZERO PUSH2 0x791 JUMPI PUSH2 0x790 PUSH2 0x604 JUMP JUMPDEST JUMPDEST PUSH0 DUP4 ADD CALLDATALOAD PUSH8 0xFFFFFFFFFFFFFFFF DUP2 GT ISZERO PUSH2 0x7AE JUMPI PUSH2 0x7AD PUSH2 0x608 JUMP JUMPDEST JUMPDEST PUSH2 0x7BA DUP6 DUP3 DUP7 ADD PUSH2 0x71B JUMP JUMPDEST SWAP3 POP POP PUSH1 0x20 PUSH2 0x7CB DUP6 DUP3 DUP7 ADD PUSH2 0x767 JUMP JUMPDEST SWAP2 POP POP SWAP3 POP SWAP3 SWAP1 POP JUMP JUMPDEST PUSH0 PUSH20 0xFFFFFFFFFFFFFFFFFFFFFFFFFFFFFFFFFFFFFFFF DUP3 AND SWAP1 POP SWAP2 SWAP1 POP JUMP JUMPDEST PUSH0 PUSH2 0x7FE DUP3 PUSH2 0x7D5 JUMP JUMPDEST SWAP1 POP SWAP2 SWAP1 POP JUMP JUMPDEST PUSH2 0x80E DUP2 PUSH2 0x7F4 JUMP JUMPDEST DUP2 EQ PUSH2 0x818 JUMPI PUSH0 PUSH0 REVERT JUMPDEST POP JUMP JUMPDEST PUSH0 DUP2 CALLDATALOAD SWAP1 POP PUSH2 0x829 DUP2 PUSH2 0x805 JUMP JUMPDEST SWAP3 SWAP2 POP POP JUMP JUMPDEST PUSH0 PUSH1 0x20 DUP3 DUP5 SUB SLT ISZERO PUSH2 0x844 JUMPI PUSH2 0x843 PUSH2 0x604 JUMP JUMPDEST JUMPDEST PUSH0 PUSH2 0x851 DUP5 DUP3 DUP6 ADD PUSH2 0x81B JUMP JUMPDEST SWAP2 POP POP SWAP3 SWAP2 POP POP JUMP JUMPDEST PUSH0 DUP2 MLOAD SWAP1 POP SWAP2 SWAP1 POP JUMP JUMPDEST PUSH0 DUP3 DUP3 MSTORE PUSH1 0x20 DUP3 ADD SWAP1 POP SWAP3 SWAP2 POP POP JUMP JUMPDEST PUSH0 DUP2 SWAP1 POP PUSH1 0x20 DUP3 ADD SWAP1 POP SWAP2 SWAP1 POP JUMP JUMPDEST PUSH0 DUP2 MLOAD SWAP1 POP SWAP2 SWAP1 POP JUMP JUMPDEST PUSH0 DUP3 DUP3 MSTORE PUSH1 0x20 DUP3 ADD SWAP1 POP SWAP3 SWAP2 POP POP JUMP JUMPDEST DUP3 DUP2 DUP4 MCOPY PUSH0 DUP4 DUP4 ADD MSTORE POP POP POP JUMP JUMPDEST PUSH0 PUSH2 0x8B5 DUP3 PUSH2 0x883 JUMP JUMPDEST PUSH2 0x8BF DUP2 DUP6 PUSH2 0x88D JUMP JUMPDEST SWAP4 POP PUSH2 0x8CF DUP2 DUP6 PUSH1 0x20 DUP7 ADD PUSH2 0x89D JUMP JUMPDEST PUSH2 0x8D8 DUP2 PUSH2 0x614 JUMP JUMPDEST DUP5 ADD SWAP2 POP POP SWAP3 SWAP2 POP POP JUMP JUMPDEST PUSH0 PUSH2 0x8EE DUP4 DUP4 PUSH2 0x8AB JUMP JUMPDEST SWAP1 POP SWAP3 SWAP2 POP POP JUMP JUMPDEST PUSH0 PUSH1 0x20 DUP3 ADD SWAP1 POP SWAP2 SWAP1 POP JUMP JUMPDEST PUSH0 PUSH2 0x90C DUP3 PUSH2 0x85A JUMP JUMPDEST PUSH2 0x916 DUP2 DUP6 PUSH2 0x864 JUMP JUMPDEST SWAP4 POP DUP4 PUSH1 0x20 DUP3 MUL DUP6 ADD PUSH2 0x928 DUP6 PUSH2 0x874 JUMP JUMPDEST DUP1 PUSH0 JUMPDEST DUP6 DUP2 LT ISZERO PUSH2 0x963 JUMPI DUP5 DUP5 SUB DUP10 MSTORE DUP2 MLOAD PUSH2 0x944 DUP6 DUP3 PUSH2 0x8E3 JUMP JUMPDEST SWAP5 POP PUSH2 0x94F DUP4 PUSH2 0x8F6 JUMP JUMPDEST SWAP3 POP PUSH1 0x20 DUP11 ADD SWAP10 POP POP PUSH1 0x1 DUP2 ADD SWAP1 POP PUSH2 0x92B JUMP JUMPDEST POP DUP3 SWAP8 POP DUP8 SWAP6 POP POP POP POP POP POP SWAP3 SWAP2 POP POP JUMP JUMPDEST PUSH0 PUSH1 0x20 DUP3 ADD SWAP1 POP DUP2 DUP2 SUB PUSH0 DUP4 ADD MSTORE PUSH2 0x98D DUP2 DUP5 PUSH2 0x902 JUMP JUMPDEST SWAP1 POP SWAP3 SWAP2 POP POP JUMP JUMPDEST PUSH0 PUSH1 0x20 DUP3 DUP5 SUB SLT ISZERO PUSH2 0x9AA JUMPI PUSH2 0x9A9 PUSH2 0x604 JUMP JUMPDEST JUMPDEST PUSH0 DUP3 ADD CALLDATALOAD PUSH8 0xFFFFFFFFFFFFFFFF DUP2 GT ISZERO PUSH2 0x9C7 JUMPI PUSH2 0x9C6 PUSH2 0x608 JUMP JUMPDEST JUMPDEST PUSH2 0x9D3 DUP5 DUP3 DUP6 ADD PUSH2 0x71B JUMP JUMPDEST SWAP2 POP POP SWAP3 SWAP2 POP POP JUMP JUMPDEST PUSH2 0x9E5 DUP2 PUSH2 0x748 JUMP JUMPDEST DUP3 MSTORE POP POP JUMP JUMPDEST PUSH0 PUSH1 0x20 DUP3 ADD SWAP1 POP PUSH2 0x9FE PUSH0 DUP4 ADD DUP5 PUSH2 0x9DC JUMP JUMPDEST SWAP3 SWAP2 POP POP JUMP JUMPDEST PUSH32 0x4E487B7100000000000000000000000000000000000000000000000000000000 PUSH0 MSTORE PUSH1 0x22 PUSH1 0x4 MSTORE PUSH1 0x24 PUSH0 REVERT JUMPDEST PUSH0 PUSH1 0x2 DUP3 DIV SWAP1 POP PUSH1 0x1 DUP3 AND DUP1 PUSH2 0xA48 JUMPI PUSH1 0x7F DUP3 AND SWAP2 POP JUMPDEST PUSH1 0x20 DUP3 LT DUP2 SUB PUSH2 0xA5B JUMPI PUSH2 0xA5A PUSH2 0xA04 JUMP JUMPDEST JUMPDEST POP SWAP2 SWAP1 POP JUMP JUMPDEST PUSH0 DUP2 SWAP1 POP DUP2 PUSH0 MSTORE PUSH1 0x20 PUSH0 KECCAK256 SWAP1 POP SWAP2 SWAP1 POP JUMP JUMPDEST PUSH0 PUSH1 0x20 PUSH1 0x1F DUP4 ADD DIV SWAP1 POP SWAP2 SWAP1 POP JUMP JUMPDEST PUSH0 DUP3 DUP3 SHL SWAP1 POP SWAP3 SWAP2 POP POP JUMP JUMPDEST PUSH0 PUSH1 0x8 DUP4 MUL PUSH2 0xABD PUSH32 0xFFFFFFFFFFFFFFFFFFFFFFFFFFFFFFFFFFFFFFFFFFFFFFFFFFFFFFFFFFFFFFFF DUP3 PUSH2 0xA82 JUMP JUMPDEST PUSH2 0xAC7 DUP7 DUP4 PUSH2 0xA82 JUMP JUMPDEST SWAP6 POP DUP1 NOT DUP5 AND SWAP4 POP DUP1 DUP7 AND DUP5 OR SWAP3 POP POP POP SWAP4 SWAP3 POP POP POP JUMP JUMPDEST PUSH0 DUP2 SWAP1 POP SWAP2 SWAP1 POP JUMP JUMPDEST PUSH0 PUSH2 0xB02 PUSH2 0xAFD PUSH2 0xAF8 DUP5 PUSH2 0x748 JUMP JUMPDEST PUSH2 0xADF JUMP JUMPDEST PUSH2 0x748 JUMP JUMPDEST SWAP1 POP SWAP2 SWAP1 POP JUMP JUMPDEST PUSH0 DUP2 SWAP1 POP SWAP2 SWAP1 POP JUMP JUMPDEST PUSH2 0xB1B DUP4 PUSH2 0xAE8 JUMP JUMPDEST PUSH2 0xB2F PUSH2 0xB27 DUP3 PUSH2 0xB09 JUMP JUMPDEST DUP5 DUP5 SLOAD PUSH2 0xA8E JUMP JUMPDEST DUP3 SSTORE POP POP POP POP JUMP JUMPDEST PUSH0 PUSH0 SWAP1 POP SWAP1 JUMP JUMPDEST PUSH2 0xB46 PUSH2 0xB37 JUMP JUMPDEST PUSH2 0xB51 DUP2 DUP5 DUP5 PUSH2 0xB12 JUMP JUMPDEST POP POP POP JUMP JUMPDEST JUMPDEST DUP2 DUP2 LT ISZERO PUSH2 0xB74 JUMPI PUSH2 0xB69 PUSH0 DUP3 PUSH2 0xB3E JUMP JUMPDEST PUSH1 0x1 DUP2 ADD SWAP1 POP PUSH2 0xB57 JUMP JUMPDEST POP POP JUMP JUMPDEST PUSH1 0x1F DUP3 GT ISZERO PUSH2 0xBB9 JUMPI PUSH2 0xB8A DUP2 PUSH2 0xA61 JUMP JUMPDEST PUSH2 0xB93 DUP5 PUSH2 0xA73 JUMP JUMPDEST DUP2 ADD PUSH1 0x20 DUP6 LT ISZERO PUSH2 0xBA2 JUMPI DUP2 SWAP1 POP JUMPDEST PUSH2 0xBB6 PUSH2 0xBAE DUP6 PUSH2 0xA73 JUMP JUMPDEST DUP4 ADD DUP3 PUSH2 0xB56 JUMP JUMPDEST POP POP JUMPDEST POP POP POP JUMP JUMPDEST PUSH0 DUP3 DUP3 SHR SWAP1 POP SWAP3 SWAP2 POP POP JUMP JUMPDEST PUSH0 PUSH2 0xBD9 PUSH0 NOT DUP5 PUSH1 0x8 MUL PUSH2 0xBBE JUMP JUMPDEST NOT DUP1 DUP4 AND SWAP2 POP POP SWAP3 SWAP2 POP POP JUMP JUMPDEST PUSH0 PUSH2 0xBF1 DUP4 DUP4 PUSH2 0xBCA JUMP JUMPDEST SWAP2 POP DUP3 PUSH1 0x2 MUL DUP3 OR SWAP1 POP SWAP3 SWAP2 POP POP JUMP JUMPDEST PUSH2 0xC0A DUP3 PUSH2 0x883 JUMP JUMPDEST PUSH8 0xFFFFFFFFFFFFFFFF DUP2 GT ISZERO PUSH2 0xC23 JUMPI PUSH2 0xC22 PUSH2 0x624 JUMP JUMPDEST JUMPDEST PUSH2 0xC2D DUP3 SLOAD PUSH2 0xA31 JUMP JUMPDEST PUSH2 0xC38 DUP3 DUP3 DUP6 PUSH2 0xB78 JUMP JUMPDEST PUSH0 PUSH1 0x20 SWAP1 POP PUSH1 0x1F DUP4 GT PUSH1 0x1 DUP2 EQ PUSH2 0xC69 JUMPI PUSH0 DUP5 ISZERO PUSH2 0xC57 JUMPI DUP3 DUP8 ADD MLOAD SWAP1 POP JUMPDEST PUSH2 0xC61 DUP6 DUP3 PUSH2 0xBE6 JUMP JUMPDEST DUP7 SSTORE POP PUSH2 0xCC8 JUMP JUMPDEST PUSH1 0x1F NOT DUP5 AND PUSH2 0xC77 DUP7 PUSH2 0xA61 JUMP JUMPDEST PUSH0 JUMPDEST DUP3 DUP2 LT ISZERO PUSH2 0xC9E JUMPI DUP5 DUP10 ADD MLOAD DUP3 SSTORE PUSH1 0x1 DUP3 ADD SWAP2 POP PUSH1 0x20 DUP6 ADD SWAP5 POP PUSH1 0x20 DUP2 ADD SWAP1 POP PUSH2 0xC79 JUMP JUMPDEST DUP7 DUP4 LT ISZERO PUSH2 0xCBB JUMPI DUP5 DUP10 ADD MLOAD PUSH2 0xCB7 PUSH1 0x1F DUP10 AND DUP3 PUSH2 0xBCA JUMP JUMPDEST DUP4 SSTORE POP JUMPDEST PUSH1 0x1 PUSH1 0x2 DUP9 MUL ADD DUP9 SSTORE POP POP POP JUMPDEST POP POP POP POP POP POP JUMP JUMPDEST PUSH0 DUP2 SWAP1 POP SWAP3 SWAP2 POP POP JUMP JUMPDEST PUSH0 PUSH2 0xCE4 DUP3 PUSH2 0x883 JUMP JUMPDEST PUSH2 0xCEE DUP2 DUP6 PUSH2 0xCD0 JUMP JUMPDEST SWAP4 POP PUSH2 0xCFE DUP2 DUP6 PUSH1 0x20 DUP7 ADD PUSH2 0x89D JUMP JUMPDEST DUP1 DUP5 ADD SWAP2 POP POP SWAP3 SWAP2 POP POP JUMP JUMPDEST PUSH0 PUSH2 0xD15 DUP3 DUP5 PUSH2 0xCDA JUMP JUMPDEST SWAP2 POP DUP2 SWAP1 POP SWAP3 SWAP2 POP POP JUMP JUMPDEST PUSH32 0x4E487B7100000000000000000000000000000000000000000000000000000000 PUSH0 MSTORE PUSH1 0x11 PUSH1 0x4 MSTORE PUSH1 0x24 PUSH0 REVERT JUMPDEST PUSH0 PUSH2 0xD57 DUP3 PUSH2 0x748 JUMP JUMPDEST SWAP2 POP PUSH2 0xD62 DUP4 PUSH2 0x748 JUMP JUMPDEST SWAP3 POP DUP3 DUP3 MUL PUSH2 0xD70 DUP2 PUSH2 0x748 JUMP JUMPDEST SWAP2 POP DUP3 DUP3 DIV DUP5 EQ DUP4 ISZERO OR PUSH2 0xD87 JUMPI PUSH2 0xD86 PUSH2 0xD20 JUMP JUMPDEST JUMPDEST POP SWAP3 SWAP2 POP POP JUMP JUMPDEST PUSH32 0x4E487B7100000000000000000000000000000000000000000000000000000000 PUSH0 MSTORE PUSH1 0x32 PUSH1 0x4 MSTORE PUSH1 0x24 PUSH0 REVERT JUMPDEST PUSH0 DUP2 SWAP1 POP SWAP3 SWAP2 POP POP JUMP JUMPDEST PUSH0 DUP2 SWAP1 POP DUP2 PUSH0 MSTORE PUSH1 0x20 PUSH0 KECCAK256 SWAP1 POP SWAP2 SWAP1 POP JUMP JUMPDEST PUSH0 DUP2 SLOAD PUSH2 0xDE3 DUP2 PUSH2 0xA31 JUMP JUMPDEST PUSH2 0xDED DUP2 DUP7 PUSH2 0xDBB JUMP JUMPDEST SWAP5 POP PUSH1 0x1 DUP3 AND PUSH0 DUP2 EQ PUSH2 0xE07 JUMPI PUSH1 0x1 DUP2 EQ PUSH2 0xE1C JUMPI PUSH2 0xE4E JUMP JUMPDEST PUSH1 0xFF NOT DUP4 AND DUP7 MSTORE DUP2 ISZERO ISZERO DUP3 MUL DUP7 ADD SWAP4 POP PUSH2 0xE4E JUMP JUMPDEST PUSH2 0xE25 DUP6 PUSH2 0xDC5 JUMP JUMPDEST PUSH0 JUMPDEST DUP4 DUP2 LT ISZERO PUSH2 0xE46 JUMPI DUP2 SLOAD DUP2 DUP10 ADD MSTORE PUSH1 0x1 DUP3 ADD SWAP2 POP PUSH1 0x20 DUP2 ADD SWAP1 POP PUSH2 0xE27 JUMP JUMPDEST DUP4 DUP9 ADD SWAP6 POP POP POP JUMPDEST POP POP POP SWAP3 SWAP2 POP POP JUMP JUMPDEST PUSH0 PUSH2 0xE62 DUP3 DUP5 PUSH2 0xDD7 JUMP JUMPDEST SWAP2 POP DUP2 SWAP1 POP SWAP3 SWAP2 POP POP JUMP JUMPDEST PUSH0 PUSH2 0xE77 DUP3 PUSH2 0x748 JUMP JUMPDEST SWAP2 POP PUSH2 0xE82 DUP4 PUSH2 0x748 JUMP JUMPDEST SWAP3 POP DUP3 DUP3 SUB SWAP1 POP DUP2 DUP2 GT ISZERO PUSH2 0xE9A JUMPI PUSH2 0xE99 PUSH2 0xD20 JUMP JUMPDEST JUMPDEST SWAP3 SWAP2 POP POP JUMP JUMPDEST PUSH0 DUP2 SLOAD SWAP1 POP PUSH2 0xEAE DUP2 PUSH2 0xA31 JUMP JUMPDEST SWAP1 POP SWAP2 SWAP1 POP JUMP JUMPDEST PUSH0 DUP2 SWAP1 POP DUP2 PUSH0 MSTORE PUSH1 0x20 PUSH0 KECCAK256 SWAP1 POP SWAP2 SWAP1 POP JUMP JUMPDEST DUP2 DUP2 SUB PUSH2 0xED5 JUMPI POP POP PUSH2 0xFAA JUMP JUMPDEST PUSH2 0xEDE DUP3 PUSH2 0xEA0 JUMP JUMPDEST PUSH8 0xFFFFFFFFFFFFFFFF DUP2 GT ISZERO PUSH2 0xEF7 JUMPI PUSH2 0xEF6 PUSH2 0x624 JUMP JUMPDEST JUMPDEST PUSH2 0xF01 DUP3 SLOAD PUSH2 0xA31 JUMP JUMPDEST PUSH2 0xF0C DUP3 DUP3 DUP6 PUSH2 0xB78 JUMP JUMPDEST PUSH0 PUSH1 0x1F DUP4 GT PUSH1 0x1 DUP2 EQ PUSH2 0xF39 JUMPI PUSH0 DUP5 ISZERO PUSH2 0xF27 JUMPI DUP3 DUP8 ADD SLOAD SWAP1 POP JUMPDEST PUSH2 0xF31 DUP6 DUP3 PUSH2 0xBE6 JUMP JUMPDEST DUP7 SSTORE POP PUSH2 0xFA3 JUMP JUMPDEST PUSH1 0x1F NOT DUP5 AND PUSH2 0xF47 DUP8 PUSH2 0xEB5 JUMP JUMPDEST SWAP7 POP PUSH2 0xF52 DUP7 PUSH2 0xA61 JUMP JUMPDEST PUSH0 JUMPDEST DUP3 DUP2 LT ISZERO PUSH2 0xF79 JUMPI DUP5 DUP10 ADD SLOAD DUP3 SSTORE PUSH1 0x1 DUP3 ADD SWAP2 POP PUSH1 0x1 DUP6 ADD SWAP5 POP PUSH1 0x20 DUP2 ADD SWAP1 POP PUSH2 0xF54 JUMP JUMPDEST DUP7 DUP4 LT ISZERO PUSH2 0xF96 JUMPI DUP5 DUP10 ADD SLOAD PUSH2 0xF92 PUSH1 0x1F DUP10 AND DUP3 PUSH2 0xBCA JUMP JUMPDEST DUP4 SSTORE POP JUMPDEST PUSH1 0x1 PUSH1 0x2 DUP9 MUL ADD DUP9 SSTORE POP POP POP JUMPDEST POP POP POP POP POP POP JUMPDEST JUMP JUMPDEST PUSH32 0x4E487B7100000000000000000000000000000000000000000000000000000000 PUSH0 MSTORE PUSH1 0x31 PUSH1 0x4 MSTORE PUSH1 0x24 PUSH0 REVERT INVALID LOG2 PUSH5 0x6970667358 0x22 SLT KECCAK256 LOG1 PUSH5 0xB04F2BF0E1 BLOBHASH SGT 0xBF 0xD9 0x21 MSIZE ADDRESS BLOBHASH 0xF7 0xB7 PUSH18 0x90E7043D5BEE036F650F90941B4264736F6C PUSH4 0x4300081E STOP CALLER "
		},
		"gasEstimates": {
			"creation": {
				"codeDepositCost": "822200",
				"executionCost": "855",
				"totalCost": "823055"
			},
			"external": {
				"mint(string,uint256)": "infinite",
				"purchaseNFT(string)": "infinite",
				"showNFTs(address)": "infinite",
				"showPrice(string)": "infinite"
			},
			"internal": {
				"_removeNFT(address,string memory)": "infinite"
			}
		},
		"methodIdentifiers": {
			"mint(string,uint256)": "056b01ce",
			"purchaseNFT(string)": "87972862",
			"showNFTs(address)": "16923a2f",
			"showPrice(string)": "c4a70945"
		}
	},
	"abi": [
		{
			"inputs": [
				{
					"internalType": "string",
					"name": "uri",
					"type": "string"
				},
				{
					"internalType": "uint256",
					"name": "price",
					"type": "uint256"
				}
			],
			"name": "mint",
			"outputs": [],
			"stateMutability": "nonpayable",
			"type": "function"
		},
		{
			"inputs": [
				{
					"internalType": "string",
					"name": "NFT",
					"type": "string"
				}
			],
			"name": "purchaseNFT",
			"outputs": [],
			"stateMutability": "payable",
			"type": "function"
		},
		{
			"inputs": [
				{
					"internalType": "address",
					"name": "_address",
					"type": "address"
				}
			],
			"name": "showNFTs",
			"outputs": [
				{
					"internalType": "string[]",
					"name": "",
					"type": "string[]"
				}
			],
			"stateMutability": "view",
			"type": "function"
		},
		{
			"inputs": [
				{
					"internalType": "string",
					"name": "uri",
					"type": "string"
				}
			],
			"name": "showPrice",
			"outputs": [
				{
					"internalType": "uint256",
					"name": "",
					"type": "uint256"
				}
			],
			"stateMutability": "view",
			"type": "function"
		}
	]
}